{
  "contractName": "priceAggregatorProxy",
  "abi": [
    {
      "inputs": [],
      "stateMutability": "nonpayable",
      "type": "constructor"
    },
    {
      "anonymous": false,
      "inputs": [
        {
          "indexed": true,
          "internalType": "address",
          "name": "previousOwner",
          "type": "address"
        },
        {
          "indexed": true,
          "internalType": "address",
          "name": "newOwner",
          "type": "address"
        }
      ],
      "name": "OwnershipTransferred",
      "type": "event"
    },
    {
      "inputs": [],
      "name": "owner",
      "outputs": [
        {
          "internalType": "address",
          "name": "",
          "type": "address"
        }
      ],
      "stateMutability": "view",
      "type": "function"
    },
    {
      "inputs": [],
      "name": "priceAggregator",
      "outputs": [
        {
          "internalType": "contract priceAggregatorInterface",
          "name": "",
          "type": "address"
        }
      ],
      "stateMutability": "view",
      "type": "function"
    },
    {
      "inputs": [],
      "name": "priceAggregatorPropose",
      "outputs": [
        {
          "internalType": "address",
          "name": "",
          "type": "address"
        }
      ],
      "stateMutability": "view",
      "type": "function"
    },
    {
      "inputs": [],
      "name": "priceAggregatorProposeTimestamp",
      "outputs": [
        {
          "internalType": "uint256",
          "name": "",
          "type": "uint256"
        }
      ],
      "stateMutability": "view",
      "type": "function"
    },
    {
      "inputs": [],
      "name": "proposeDelay",
      "outputs": [
        {
          "internalType": "uint256",
          "name": "",
          "type": "uint256"
        }
      ],
      "stateMutability": "view",
      "type": "function"
    },
    {
      "inputs": [],
      "name": "proposeDelayPropose",
      "outputs": [
        {
          "internalType": "uint256",
          "name": "",
          "type": "uint256"
        }
      ],
      "stateMutability": "view",
      "type": "function"
    },
    {
      "inputs": [],
      "name": "proposeDelayTimestamp",
      "outputs": [
        {
          "internalType": "uint256",
          "name": "",
          "type": "uint256"
        }
      ],
      "stateMutability": "view",
      "type": "function"
    },
    {
      "inputs": [],
      "name": "renounceOwnership",
      "outputs": [],
      "stateMutability": "nonpayable",
      "type": "function"
    },
    {
      "inputs": [
        {
          "internalType": "address",
          "name": "newOwner",
          "type": "address"
        }
      ],
      "name": "transferOwnership",
      "outputs": [],
      "stateMutability": "nonpayable",
      "type": "function"
    },
    {
      "inputs": [
        {
          "internalType": "address",
          "name": "vault",
          "type": "address"
        },
        {
          "internalType": "uint256",
          "name": "lastUpdated",
          "type": "uint256"
        }
      ],
      "name": "priceRequest",
      "outputs": [
        {
          "internalType": "int256[]",
          "name": "",
          "type": "int256[]"
        },
        {
          "internalType": "uint256",
          "name": "",
          "type": "uint256"
        }
      ],
      "stateMutability": "view",
      "type": "function"
    },
    {
      "inputs": [
        {
          "internalType": "address",
          "name": "vault",
          "type": "address"
        }
      ],
      "name": "roundIdCheck",
      "outputs": [
        {
          "internalType": "bool",
          "name": "",
          "type": "bool"
        }
      ],
      "stateMutability": "view",
      "type": "function"
    },
    {
      "inputs": [
        {
          "internalType": "address",
          "name": "account",
          "type": "address"
        }
      ],
      "name": "proposeVaultPriceAggregator",
      "outputs": [],
      "stateMutability": "nonpayable",
      "type": "function"
    },
    {
      "inputs": [],
      "name": "updateVaultPriceAggregator",
      "outputs": [],
      "stateMutability": "nonpayable",
      "type": "function"
    },
    {
      "inputs": [
        {
          "internalType": "uint256",
          "name": "delay",
          "type": "uint256"
        }
      ],
      "name": "proposeProposeDelay",
      "outputs": [],
      "stateMutability": "nonpayable",
      "type": "function"
    },
    {
      "inputs": [],
      "name": "updateProposeDelay",
      "outputs": [],
      "stateMutability": "nonpayable",
      "type": "function"
    }
  ],
  "bytecode": "0x608060405234801561001057600080fd5b50600061002161012160201b60201c565b9050806000806101000a81548173ffffffffffffffffffffffffffffffffffffffff021916908373ffffffffffffffffffffffffffffffffffffffff1602179055508073ffffffffffffffffffffffffffffffffffffffff16600073ffffffffffffffffffffffffffffffffffffffff167f8be0079c531659141344cd1fd0a4f28419497f9722a3daafe3b4186f6b6457e060405160405180910390a3506001600481905550737196545d854d03d9c87b7588f6d9e1e42d876e95600160006101000a81548173ffffffffffffffffffffffffffffffffffffffff021916908373ffffffffffffffffffffffffffffffffffffffff160217905550610129565b600033905090565b610f8b806101386000396000f3fe608060405234801561001057600080fd5b50600436106100f55760003560e01c8063715018a611610097578063a3a098ef11610066578063a3a098ef146102a6578063bb00b248146102c4578063d1847bd41461036e578063f2fde38b146103a2576100f5565b8063715018a61461024057806387b9337d1461024a57806388d9bf71146102685780638da5cb5b14610272576100f5565b806354f22def116100d357806354f22def1461017a578063590811121461019857806362c2796b146101f2578063641ff32514610236576100f5565b80632077d2e3146100fa5780633078fff5146101285780633c715f001461015c575b600080fd5b6101266004803603602081101561011057600080fd5b81019080803590602001909291905050506103e6565b005b6101306104bf565b604051808273ffffffffffffffffffffffffffffffffffffffff16815260200191505060405180910390f35b6101646104e5565b6040518082815260200191505060405180910390f35b6101826104eb565b6040518082815260200191505060405180910390f35b6101da600480360360208110156101ae57600080fd5b81019080803573ffffffffffffffffffffffffffffffffffffffff1690602001909291905050506104f1565b60405180821515815260200191505060405180910390f35b6102346004803603602081101561020857600080fd5b81019080803573ffffffffffffffffffffffffffffffffffffffff1690602001909291905050506105be565b005b61023e6106d1565b005b6102486107cf565b005b610252610955565b6040518082815260200191505060405180910390f35b61027061095b565b005b61027a610b39565b604051808273ffffffffffffffffffffffffffffffffffffffff16815260200191505060405180910390f35b6102ae610b62565b6040518082815260200191505060405180910390f35b610310600480360360408110156102da57600080fd5b81019080803573ffffffffffffffffffffffffffffffffffffffff16906020019092919080359060200190929190505050610b68565b6040518080602001838152602001828103825284818151815260200191508051906020019060200280838360005b8381101561035957808201518184015260208101905061033e565b50505050905001935050505060405180910390f35b610376610cf6565b604051808273ffffffffffffffffffffffffffffffffffffffff16815260200191505060405180910390f35b6103e4600480360360208110156103b857600080fd5b81019080803573ffffffffffffffffffffffffffffffffffffffff169060200190929190505050610d1c565b005b6103ee610f27565b73ffffffffffffffffffffffffffffffffffffffff1660008054906101000a900473ffffffffffffffffffffffffffffffffffffffff1673ffffffffffffffffffffffffffffffffffffffff16146104ae576040517f08c379a00000000000000000000000000000000000000000000000000000000081526004018080602001828103825260208152602001807f4f776e61626c653a2063616c6c6572206973206e6f7420746865206f776e657281525060200191505060405180910390fd5b806005819055504260068190555050565b600160009054906101000a900473ffffffffffffffffffffffffffffffffffffffff1681565b60065481565b60045481565b6000600160009054906101000a900473ffffffffffffffffffffffffffffffffffffffff1673ffffffffffffffffffffffffffffffffffffffff166359081112836040518263ffffffff1660e01b8152600401808273ffffffffffffffffffffffffffffffffffffffff16815260200191505060206040518083038186803b15801561057c57600080fd5b505afa158015610590573d6000803e3d6000fd5b505050506040513d60208110156105a657600080fd5b81019080805190602001909291905050509050919050565b6105c6610f27565b73ffffffffffffffffffffffffffffffffffffffff1660008054906101000a900473ffffffffffffffffffffffffffffffffffffffff1673ffffffffffffffffffffffffffffffffffffffff1614610686576040517f08c379a00000000000000000000000000000000000000000000000000000000081526004018080602001828103825260208152602001807f4f776e61626c653a2063616c6c6572206973206e6f7420746865206f776e657281525060200191505060405180910390fd5b80600260006101000a81548173ffffffffffffffffffffffffffffffffffffffff021916908373ffffffffffffffffffffffffffffffffffffffff1602179055504260038190555050565b6106d9610f27565b73ffffffffffffffffffffffffffffffffffffffff1660008054906101000a900473ffffffffffffffffffffffffffffffffffffffff1673ffffffffffffffffffffffffffffffffffffffff1614610799576040517f08c379a00000000000000000000000000000000000000000000000000000000081526004018080602001828103825260208152602001807f4f776e61626c653a2063616c6c6572206973206e6f7420746865206f776e657281525060200191505060405180910390fd5b600060055414156107a957600080fd5b426004546006540111156107bc57600080fd5b6005546004819055506000600581905550565b6107d7610f27565b73ffffffffffffffffffffffffffffffffffffffff1660008054906101000a900473ffffffffffffffffffffffffffffffffffffffff1673ffffffffffffffffffffffffffffffffffffffff1614610897576040517f08c379a00000000000000000000000000000000000000000000000000000000081526004018080602001828103825260208152602001807f4f776e61626c653a2063616c6c6572206973206e6f7420746865206f776e657281525060200191505060405180910390fd5b600073ffffffffffffffffffffffffffffffffffffffff1660008054906101000a900473ffffffffffffffffffffffffffffffffffffffff1673ffffffffffffffffffffffffffffffffffffffff167f8be0079c531659141344cd1fd0a4f28419497f9722a3daafe3b4186f6b6457e060405160405180910390a360008060006101000a81548173ffffffffffffffffffffffffffffffffffffffff021916908373ffffffffffffffffffffffffffffffffffffffff160217905550565b60035481565b610963610f27565b73ffffffffffffffffffffffffffffffffffffffff1660008054906101000a900473ffffffffffffffffffffffffffffffffffffffff1673ffffffffffffffffffffffffffffffffffffffff1614610a23576040517f08c379a00000000000000000000000000000000000000000000000000000000081526004018080602001828103825260208152602001807f4f776e61626c653a2063616c6c6572206973206e6f7420746865206f776e657281525060200191505060405180910390fd5b600073ffffffffffffffffffffffffffffffffffffffff16600260009054906101000a900473ffffffffffffffffffffffffffffffffffffffff1673ffffffffffffffffffffffffffffffffffffffff161415610a7f57600080fd5b42600454600354011115610a9257600080fd5b600260009054906101000a900473ffffffffffffffffffffffffffffffffffffffff16600160006101000a81548173ffffffffffffffffffffffffffffffffffffffff021916908373ffffffffffffffffffffffffffffffffffffffff1602179055506000600260006101000a81548173ffffffffffffffffffffffffffffffffffffffff021916908373ffffffffffffffffffffffffffffffffffffffff160217905550565b60008060009054906101000a900473ffffffffffffffffffffffffffffffffffffffff16905090565b60055481565b6060600060606000600160009054906101000a900473ffffffffffffffffffffffffffffffffffffffff1673ffffffffffffffffffffffffffffffffffffffff1663bb00b24887876040518363ffffffff1660e01b8152600401808373ffffffffffffffffffffffffffffffffffffffff1681526020018281526020019250505060006040518083038186803b158015610c0157600080fd5b505afa158015610c15573d6000803e3d6000fd5b505050506040513d6000823e3d601f19601f820116820180604052506040811015610c3f57600080fd5b8101908080516040519392919084640100000000821115610c5f57600080fd5b83820191506020820185811115610c7557600080fd5b8251866020820283011164010000000082111715610c9257600080fd5b8083526020830192505050908051906020019060200280838360005b83811015610cc9578082015181840152602081019050610cae565b50505050905001604052602001805190602001909291905050509150915081819350935050509250929050565b600260009054906101000a900473ffffffffffffffffffffffffffffffffffffffff1681565b610d24610f27565b73ffffffffffffffffffffffffffffffffffffffff1660008054906101000a900473ffffffffffffffffffffffffffffffffffffffff1673ffffffffffffffffffffffffffffffffffffffff1614610de4576040517f08c379a00000000000000000000000000000000000000000000000000000000081526004018080602001828103825260208152602001807f4f776e61626c653a2063616c6c6572206973206e6f7420746865206f776e657281525060200191505060405180910390fd5b600073ffffffffffffffffffffffffffffffffffffffff168173ffffffffffffffffffffffffffffffffffffffff161415610e6a576040517f08c379a0000000000000000000000000000000000000000000000000000000008152600401808060200182810382526026815260200180610f306026913960400191505060405180910390fd5b8073ffffffffffffffffffffffffffffffffffffffff1660008054906101000a900473ffffffffffffffffffffffffffffffffffffffff1673ffffffffffffffffffffffffffffffffffffffff167f8be0079c531659141344cd1fd0a4f28419497f9722a3daafe3b4186f6b6457e060405160405180910390a3806000806101000a81548173ffffffffffffffffffffffffffffffffffffffff021916908373ffffffffffffffffffffffffffffffffffffffff16021790555050565b60003390509056fe4f776e61626c653a206e6577206f776e657220697320746865207a65726f2061646472657373a2646970667358221220b974f3c287c1c8a8ae5d8b8044c8a186b4144d244900ee737c91249ddb5ceba564736f6c634300060c0033",
  "immutableReferences": {},
  "source": "//////////////////////////////////////////////////\n//SYNLEV price aggregator proxy contract V 1.1\n//////////////////////////\n\npragma solidity >= 0.6.4;\n\nimport './ownable.sol';\nimport './interfaces/priceAggregatorInterface.sol';\n\ncontract priceAggregatorProxy is Owned {\n\n  constructor() public {\n    proposeDelay = 1;\n    priceAggregator = priceAggregatorInterface(0x7196545d854D03D9c87B7588F6D9e1e42D876E95);\n  }\n\n  priceAggregatorInterface public priceAggregator;\n  address public priceAggregatorPropose;\n  uint256 public priceAggregatorProposeTimestamp;\n\n  uint256 public proposeDelay;\n  uint256 public proposeDelayPropose;\n  uint256 public proposeDelayTimestamp;\n\n  function priceRequest(address vault, uint256 lastUpdated)\n  public\n  view\n  virtual\n  returns(int256[] memory, uint256) {\n\n    (int256[] memory priceData, uint256 roundID) =\n    priceAggregator.priceRequest(vault, lastUpdated);\n\n    return(priceData, roundID);\n  }\n\n  function roundIdCheck(address vault) public view returns(bool) {\n    return(priceAggregator.roundIdCheck(vault));\n  }\n\n  //Admin Functions\n  function proposeVaultPriceAggregator(address account) public onlyOwner() {\n    priceAggregatorPropose = account;\n    priceAggregatorProposeTimestamp = block.timestamp;\n  }\n  function updateVaultPriceAggregator() public onlyOwner() {\n    require(priceAggregatorPropose != address(0));\n    require(priceAggregatorProposeTimestamp + proposeDelay <= block.timestamp);\n    priceAggregator = priceAggregatorInterface(priceAggregatorPropose);\n    priceAggregatorPropose = address(0);\n  }\n\n  function proposeProposeDelay(uint256 delay) public onlyOwner() {\n    proposeDelayPropose = delay;\n    proposeDelayTimestamp = block.timestamp;\n  }\n  function updateProposeDelay() public onlyOwner() {\n    require(proposeDelayPropose != 0);\n    require(proposeDelayTimestamp + proposeDelay <= block.timestamp);\n    proposeDelay = proposeDelayPropose;\n    proposeDelayPropose = 0;\n  }\n}\n",
  "sourcePath": "/Users/trevor/SynLev/contracts/live/priceAggregatorProxy.sol",
  "compiler": {
    "name": "solc",
    "version": "0.6.12+commit.27d51765.Emscripten.clang"
  },
  "schemaVersion": "3.3.2",
  "updatedAt": "2020-12-31T02:01:19.192Z",
  "devdoc": {
    "kind": "dev",
    "methods": {},
    "version": 1
  },
  "userdoc": {
    "kind": "user",
    "methods": {},
    "version": 1
  }
}