{
  "contractName": "priceCalculator",
  "abi": [
    {
      "inputs": [],
      "stateMutability": "nonpayable",
      "type": "constructor"
    },
    {
      "anonymous": false,
      "inputs": [
        {
          "indexed": true,
          "internalType": "address",
          "name": "previousOwner",
          "type": "address"
        },
        {
          "indexed": true,
          "internalType": "address",
          "name": "newOwner",
          "type": "address"
        }
      ],
      "name": "OwnershipTransferred",
      "type": "event"
    },
    {
      "inputs": [],
      "name": "kControl",
      "outputs": [
        {
          "internalType": "uint256",
          "name": "",
          "type": "uint256"
        }
      ],
      "stateMutability": "view",
      "type": "function"
    },
    {
      "inputs": [],
      "name": "lossLimit",
      "outputs": [
        {
          "internalType": "uint256",
          "name": "",
          "type": "uint256"
        }
      ],
      "stateMutability": "view",
      "type": "function"
    },
    {
      "inputs": [],
      "name": "owner",
      "outputs": [
        {
          "internalType": "address",
          "name": "",
          "type": "address"
        }
      ],
      "stateMutability": "view",
      "type": "function"
    },
    {
      "inputs": [],
      "name": "priceAggregator",
      "outputs": [
        {
          "internalType": "contract priceAggregatorInterface",
          "name": "",
          "type": "address"
        }
      ],
      "stateMutability": "view",
      "type": "function"
    },
    {
      "inputs": [],
      "name": "priceAggregatorPropose",
      "outputs": [
        {
          "internalType": "address",
          "name": "",
          "type": "address"
        }
      ],
      "stateMutability": "view",
      "type": "function"
    },
    {
      "inputs": [],
      "name": "priceAggregatorProposeTimestamp",
      "outputs": [
        {
          "internalType": "uint256",
          "name": "",
          "type": "uint256"
        }
      ],
      "stateMutability": "view",
      "type": "function"
    },
    {
      "inputs": [],
      "name": "proposeDelay",
      "outputs": [
        {
          "internalType": "uint256",
          "name": "",
          "type": "uint256"
        }
      ],
      "stateMutability": "view",
      "type": "function"
    },
    {
      "inputs": [],
      "name": "proposeDelayPropose",
      "outputs": [
        {
          "internalType": "uint256",
          "name": "",
          "type": "uint256"
        }
      ],
      "stateMutability": "view",
      "type": "function"
    },
    {
      "inputs": [],
      "name": "proposeDelayTimestamp",
      "outputs": [
        {
          "internalType": "uint256",
          "name": "",
          "type": "uint256"
        }
      ],
      "stateMutability": "view",
      "type": "function"
    },
    {
      "inputs": [],
      "name": "renounceOwnership",
      "outputs": [],
      "stateMutability": "nonpayable",
      "type": "function"
    },
    {
      "inputs": [],
      "name": "smallFactor",
      "outputs": [
        {
          "internalType": "int256",
          "name": "",
          "type": "int256"
        }
      ],
      "stateMutability": "view",
      "type": "function"
    },
    {
      "inputs": [
        {
          "internalType": "address",
          "name": "newOwner",
          "type": "address"
        }
      ],
      "name": "transferOwnership",
      "outputs": [],
      "stateMutability": "nonpayable",
      "type": "function"
    },
    {
      "inputs": [],
      "name": "uSmallFactor",
      "outputs": [
        {
          "internalType": "uint256",
          "name": "",
          "type": "uint256"
        }
      ],
      "stateMutability": "view",
      "type": "function"
    },
    {
      "inputs": [
        {
          "internalType": "address",
          "name": "vault",
          "type": "address"
        },
        {
          "internalType": "uint256",
          "name": "latestRoundId",
          "type": "uint256"
        }
      ],
      "name": "getUpdatedPrice",
      "outputs": [
        {
          "internalType": "uint256[6]",
          "name": "latestPrice",
          "type": "uint256[6]"
        },
        {
          "internalType": "uint256",
          "name": "rRoundId",
          "type": "uint256"
        },
        {
          "internalType": "bool",
          "name": "updated",
          "type": "bool"
        }
      ],
      "stateMutability": "view",
      "type": "function"
    },
    {
      "inputs": [
        {
          "internalType": "int256[]",
          "name": "priceData",
          "type": "int256[]"
        },
        {
          "internalType": "uint256",
          "name": "bullEquity",
          "type": "uint256"
        },
        {
          "internalType": "uint256",
          "name": "bearEquity",
          "type": "uint256"
        },
        {
          "internalType": "contract vaultInterface",
          "name": "ivault",
          "type": "address"
        }
      ],
      "name": "priceCalcLoop",
      "outputs": [
        {
          "internalType": "uint256",
          "name": "rBullEquity",
          "type": "uint256"
        },
        {
          "internalType": "uint256",
          "name": "rBearEquity",
          "type": "uint256"
        }
      ],
      "stateMutability": "view",
      "type": "function"
    },
    {
      "inputs": [
        {
          "internalType": "address",
          "name": "bull",
          "type": "address"
        },
        {
          "internalType": "address",
          "name": "bear",
          "type": "address"
        },
        {
          "internalType": "uint256",
          "name": "bullEquity",
          "type": "uint256"
        },
        {
          "internalType": "uint256",
          "name": "bearEquity",
          "type": "uint256"
        },
        {
          "internalType": "contract vaultInterface",
          "name": "ivault",
          "type": "address"
        }
      ],
      "name": "equityToReturnData",
      "outputs": [
        {
          "internalType": "uint256[6]",
          "name": "",
          "type": "uint256[6]"
        }
      ],
      "stateMutability": "view",
      "type": "function"
    },
    {
      "inputs": [
        {
          "internalType": "uint256",
          "name": "targetEquity",
          "type": "uint256"
        },
        {
          "internalType": "uint256",
          "name": "bullEquity",
          "type": "uint256"
        },
        {
          "internalType": "uint256",
          "name": "bearEquity",
          "type": "uint256"
        },
        {
          "internalType": "uint256",
          "name": "totalEquity",
          "type": "uint256"
        }
      ],
      "name": "getKFactor",
      "outputs": [
        {
          "internalType": "uint256",
          "name": "",
          "type": "uint256"
        }
      ],
      "stateMutability": "view",
      "type": "function"
    },
    {
      "inputs": [
        {
          "internalType": "uint256",
          "name": "amount",
          "type": "uint256"
        }
      ],
      "name": "setLossLimit",
      "outputs": [],
      "stateMutability": "nonpayable",
      "type": "function"
    },
    {
      "inputs": [
        {
          "internalType": "uint256",
          "name": "amount",
          "type": "uint256"
        }
      ],
      "name": "setkControl",
      "outputs": [],
      "stateMutability": "nonpayable",
      "type": "function"
    },
    {
      "inputs": [
        {
          "internalType": "address",
          "name": "account",
          "type": "address"
        }
      ],
      "name": "proposeVaultPriceAggregator",
      "outputs": [],
      "stateMutability": "nonpayable",
      "type": "function"
    },
    {
      "inputs": [],
      "name": "updateVaultPriceAggregator",
      "outputs": [],
      "stateMutability": "nonpayable",
      "type": "function"
    },
    {
      "inputs": [
        {
          "internalType": "uint256",
          "name": "delay",
          "type": "uint256"
        }
      ],
      "name": "proposeProposeDelay",
      "outputs": [],
      "stateMutability": "nonpayable",
      "type": "function"
    },
    {
      "inputs": [],
      "name": "updateProposeDelay",
      "outputs": [],
      "stateMutability": "nonpayable",
      "type": "function"
    }
  ],
  "bytecode": "0x608060405234801561001057600080fd5b50600061002161013760201b60201c565b9050806000806101000a81548173ffffffffffffffffffffffffffffffffffffffff021916908373ffffffffffffffffffffffffffffffffffffffff1602179055508073ffffffffffffffffffffffffffffffffffffffff16600073ffffffffffffffffffffffffffffffffffffffff167f8be0079c531659141344cd1fd0a4f28419497f9722a3daafe3b4186f6b6457e060405160405180910390a3506335a4e9006001819055506359682f006002819055506001600681905550737196545d854d03d9c87b7588f6d9e1e42d876e95600360006101000a81548173ffffffffffffffffffffffffffffffffffffffff021916908373ffffffffffffffffffffffffffffffffffffffff16021790555061013f565b600033905090565b612b78806200014f6000396000f3fe608060405234801561001057600080fd5b506004361061014d5760003560e01c806387b9337d116100c3578063b10985e61161007c578063b10985e6146104c8578063cb1cbc9f146105cf578063d008150c1461062f578063d1847bd41461064d578063ede3fe0714610681578063f2fde38b1461069f5761014d565b806387b9337d1461041257806388cba6d01461043057806388d9bf711461044e5780638da5cb5b1461045857806397899abf1461048c578063a3a098ef146104aa5761014d565b8063641ff32511610115578063641ff325146102345780636dae88eb1461023e578063715018a61461026c578063724f3dcf146102765780637a9390751461034a57806382d7a20e146103785761014d565b80632077d2e3146101525780633078fff5146101805780633c715f00146101b457806354f22def146101d257806362c2796b146101f0575b600080fd5b61017e6004803603602081101561016857600080fd5b81019080803590602001909291905050506106e3565b005b6101886107bc565b604051808273ffffffffffffffffffffffffffffffffffffffff16815260200191505060405180910390f35b6101bc6107e2565b6040518082815260200191505060405180910390f35b6101da6107e8565b6040518082815260200191505060405180910390f35b6102326004803603602081101561020657600080fd5b81019080803573ffffffffffffffffffffffffffffffffffffffff1690602001909291905050506107ee565b005b61023c610901565b005b61026a6004803603602081101561025457600080fd5b81019080803590602001909291905050506109ff565b005b610274610ad1565b005b61030c600480360360a081101561028c57600080fd5b81019080803573ffffffffffffffffffffffffffffffffffffffff169060200190929190803573ffffffffffffffffffffffffffffffffffffffff1690602001909291908035906020019092919080359060200190929190803573ffffffffffffffffffffffffffffffffffffffff169060200190929190505050610c57565b6040518082600660200280838360005b8381101561033757808201518184015260208101905061031c565b5050505090500191505060405180910390f35b6103766004803603602081101561036057600080fd5b810190808035906020019092919050505061112b565b005b6103c46004803603604081101561038e57600080fd5b81019080803573ffffffffffffffffffffffffffffffffffffffff169060200190929190803590602001909291905050506111fd565b6040518084600660200280838360005b838110156103ef5780820151818401526020810190506103d4565b505050509050018381526020018215158152602001935050505060405180910390f35b61041a611a50565b6040518082815260200191505060405180910390f35b610438611a56565b6040518082815260200191505060405180910390f35b610456611a5e565b005b610460611c3c565b604051808273ffffffffffffffffffffffffffffffffffffffff16815260200191505060405180910390f35b610494611c65565b6040518082815260200191505060405180910390f35b6104b2611c6b565b6040518082815260200191505060405180910390f35b6105b2600480360360808110156104de57600080fd5b81019080803590602001906401000000008111156104fb57600080fd5b82018360208201111561050d57600080fd5b8035906020019184602083028401116401000000008311171561052f57600080fd5b919080806020026020016040519081016040528093929190818152602001838360200280828437600081840152601f19601f8201169050808301925050505050505091929192908035906020019092919080359060200190929190803573ffffffffffffffffffffffffffffffffffffffff169060200190929190505050611c71565b604051808381526020018281526020019250505060405180910390f35b610619600480360360808110156105e557600080fd5b8101908080359060200190929190803590602001909291908035906020019092919080359060200190929190505050612147565b6040518082815260200191505060405180910390f35b610637612212565b6040518082815260200191505060405180910390f35b610655612218565b604051808273ffffffffffffffffffffffffffffffffffffffff16815260200191505060405180910390f35b61068961223e565b6040518082815260200191505060405180910390f35b6106e1600480360360208110156106b557600080fd5b81019080803573ffffffffffffffffffffffffffffffffffffffff169060200190929190505050612246565b005b6106eb612451565b73ffffffffffffffffffffffffffffffffffffffff1660008054906101000a900473ffffffffffffffffffffffffffffffffffffffff1673ffffffffffffffffffffffffffffffffffffffff16146107ab576040517f08c379a00000000000000000000000000000000000000000000000000000000081526004018080602001828103825260208152602001807f4f776e61626c653a2063616c6c6572206973206e6f7420746865206f776e657281525060200191505060405180910390fd5b806007819055504260088190555050565b600360009054906101000a900473ffffffffffffffffffffffffffffffffffffffff1681565b60085481565b60065481565b6107f6612451565b73ffffffffffffffffffffffffffffffffffffffff1660008054906101000a900473ffffffffffffffffffffffffffffffffffffffff1673ffffffffffffffffffffffffffffffffffffffff16146108b6576040517f08c379a00000000000000000000000000000000000000000000000000000000081526004018080602001828103825260208152602001807f4f776e61626c653a2063616c6c6572206973206e6f7420746865206f776e657281525060200191505060405180910390fd5b80600460006101000a81548173ffffffffffffffffffffffffffffffffffffffff021916908373ffffffffffffffffffffffffffffffffffffffff1602179055504260058190555050565b610909612451565b73ffffffffffffffffffffffffffffffffffffffff1660008054906101000a900473ffffffffffffffffffffffffffffffffffffffff1673ffffffffffffffffffffffffffffffffffffffff16146109c9576040517f08c379a00000000000000000000000000000000000000000000000000000000081526004018080602001828103825260208152602001807f4f776e61626c653a2063616c6c6572206973206e6f7420746865206f776e657281525060200191505060405180910390fd5b600060075414156109d957600080fd5b426006546008540111156109ec57600080fd5b6007546006819055506000600781905550565b610a07612451565b73ffffffffffffffffffffffffffffffffffffffff1660008054906101000a900473ffffffffffffffffffffffffffffffffffffffff1673ffffffffffffffffffffffffffffffffffffffff1614610ac7576040517f08c379a00000000000000000000000000000000000000000000000000000000081526004018080602001828103825260208152602001807f4f776e61626c653a2063616c6c6572206973206e6f7420746865206f776e657281525060200191505060405180910390fd5b8060018190555050565b610ad9612451565b73ffffffffffffffffffffffffffffffffffffffff1660008054906101000a900473ffffffffffffffffffffffffffffffffffffffff1673ffffffffffffffffffffffffffffffffffffffff1614610b99576040517f08c379a00000000000000000000000000000000000000000000000000000000081526004018080602001828103825260208152602001807f4f776e61626c653a2063616c6c6572206973206e6f7420746865206f776e657281525060200191505060405180910390fd5b600073ffffffffffffffffffffffffffffffffffffffff1660008054906101000a900473ffffffffffffffffffffffffffffffffffffffff1673ffffffffffffffffffffffffffffffffffffffff167f8be0079c531659141344cd1fd0a4f28419497f9722a3daafe3b4186f6b6457e060405160405180910390a360008060006101000a81548173ffffffffffffffffffffffffffffffffffffffff021916908373ffffffffffffffffffffffffffffffffffffffff160217905550565b610c5f612a6d565b6000610dc1610d988473ffffffffffffffffffffffffffffffffffffffff166316eb38148a6040518263ffffffff1660e01b8152600401808273ffffffffffffffffffffffffffffffffffffffff16815260200191505060206040518083038186803b158015610cce57600080fd5b505afa158015610ce2573d6000803e3d6000fd5b505050506040513d6020811015610cf857600080fd5b81019080805190602001909291905050508973ffffffffffffffffffffffffffffffffffffffff166318160ddd6040518163ffffffff1660e01b815260040160206040518083038186803b158015610d4f57600080fd5b505afa158015610d63573d6000803e3d6000fd5b505050506040513d6020811015610d7957600080fd5b810190808051906020019092919050505061245990919063ffffffff16565b610db3670de0b6b3a7640000886124e190919063ffffffff16565b61256790919063ffffffff16565b90506000610f25610efc8573ffffffffffffffffffffffffffffffffffffffff166316eb38148a6040518263ffffffff1660e01b8152600401808273ffffffffffffffffffffffffffffffffffffffff16815260200191505060206040518083038186803b158015610e3257600080fd5b505afa158015610e46573d6000803e3d6000fd5b505050506040513d6020811015610e5c57600080fd5b81019080805190602001909291905050508973ffffffffffffffffffffffffffffffffffffffff166318160ddd6040518163ffffffff1660e01b815260040160206040518083038186803b158015610eb357600080fd5b505afa158015610ec7573d6000803e3d6000fd5b505050506040513d6020811015610edd57600080fd5b810190808051906020019092919050505061245990919063ffffffff16565b610f17670de0b6b3a7640000886124e190919063ffffffff16565b61256790919063ffffffff16565b90506000610ff7670de0b6b3a7640000610fe98773ffffffffffffffffffffffffffffffffffffffff166316eb38148d6040518263ffffffff1660e01b8152600401808273ffffffffffffffffffffffffffffffffffffffff16815260200191505060206040518083038186803b158015610f9f57600080fd5b505afa158015610fb3573d6000803e3d6000fd5b505050506040513d6020811015610fc957600080fd5b8101908080519060200190929190505050866124e190919063ffffffff16565b61256790919063ffffffff16565b905060006110c9670de0b6b3a76400006110bb8873ffffffffffffffffffffffffffffffffffffffff166316eb38148d6040518263ffffffff1660e01b8152600401808273ffffffffffffffffffffffffffffffffffffffff16815260200191505060206040518083038186803b15801561107157600080fd5b505afa158015611085573d6000803e3d6000fd5b505050506040513d602081101561109b57600080fd5b8101908080519060200190929190505050866124e190919063ffffffff16565b61256790919063ffffffff16565b90506040518060c00160405280858152602001848152602001838152602001828152602001611101848b6125b190919063ffffffff16565b8152602001611119838a6125b190919063ffffffff16565b81525094505050505095945050505050565b611133612451565b73ffffffffffffffffffffffffffffffffffffffff1660008054906101000a900473ffffffffffffffffffffffffffffffffffffffff1673ffffffffffffffffffffffffffffffffffffffff16146111f3576040517f08c379a00000000000000000000000000000000000000000000000000000000081526004018080602001828103825260208152602001807f4f776e61626c653a2063616c6c6572206973206e6f7420746865206f776e657281525060200191505060405180910390fd5b8060028190555050565b611205612a6d565b60008060606000600360009054906101000a900473ffffffffffffffffffffffffffffffffffffffff1673ffffffffffffffffffffffffffffffffffffffff1663bb00b24888886040518363ffffffff1660e01b8152600401808373ffffffffffffffffffffffffffffffffffffffff1681526020018281526020019250505060006040518083038186803b15801561129d57600080fd5b505afa1580156112b1573d6000803e3d6000fd5b505050506040513d6000823e3d601f19601f8201168201806040525060408110156112db57600080fd5b81019080805160405193929190846401000000008211156112fb57600080fd5b8382019150602082018581111561131157600080fd5b825186602082028301116401000000008211171561132e57600080fd5b8083526020830192505050908051906020019060200280838360005b8381101561136557808201518184015260208101905061134a565b505050509050016040526020018051906020019092919050505091509150600087905060008173ffffffffffffffffffffffffffffffffffffffff16633ba5d96d6040518163ffffffff1660e01b815260040160206040518083038186803b1580156113d057600080fd5b505afa1580156113e4573d6000803e3d6000fd5b505050506040513d60208110156113fa57600080fd5b8101908080519060200190929190505050905060008273ffffffffffffffffffffffffffffffffffffffff16635db214da6040518163ffffffff1660e01b815260040160206040518083038186803b15801561145557600080fd5b505afa158015611469573d6000803e3d6000fd5b505050506040513d602081101561147f57600080fd5b8101908080519060200190929190505050905060008373ffffffffffffffffffffffffffffffffffffffff1663ac86ea0c846040518263ffffffff1660e01b8152600401808273ffffffffffffffffffffffffffffffffffffffff16815260200191505060206040518083038186803b1580156114fb57600080fd5b505afa15801561150f573d6000803e3d6000fd5b505050506040513d602081101561152557600080fd5b8101908080519060200190929190505050905060008473ffffffffffffffffffffffffffffffffffffffff1663ac86ea0c846040518263ffffffff1660e01b8152600401808273ffffffffffffffffffffffffffffffffffffffff16815260200191505060206040518083038186803b1580156115a157600080fd5b505afa1580156115b5573d6000803e3d6000fd5b505050506040513d60208110156115cb57600080fd5b81019080805190602001909291905050509050600087511180156115f0575060008214155b80156115fd575060008114155b15611645576000806116118985858a611c71565b9150915061161d612a6d565b61162a878785858c610c57565b9050808960019c509c509c5050505050505050505050611a49565b6040518060c001604052808673ffffffffffffffffffffffffffffffffffffffff166341976e09876040518263ffffffff1660e01b8152600401808273ffffffffffffffffffffffffffffffffffffffff16815260200191505060206040518083038186803b1580156116b757600080fd5b505afa1580156116cb573d6000803e3d6000fd5b505050506040513d60208110156116e157600080fd5b810190808051906020019092919050505081526020018673ffffffffffffffffffffffffffffffffffffffff166341976e09866040518263ffffffff1660e01b8152600401808273ffffffffffffffffffffffffffffffffffffffff16815260200191505060206040518083038186803b15801561175e57600080fd5b505afa158015611772573d6000803e3d6000fd5b505050506040513d602081101561178857600080fd5b810190808051906020019092919050505081526020018673ffffffffffffffffffffffffffffffffffffffff1663c4056493876040518263ffffffff1660e01b8152600401808273ffffffffffffffffffffffffffffffffffffffff16815260200191505060206040518083038186803b15801561180557600080fd5b505afa158015611819573d6000803e3d6000fd5b505050506040513d602081101561182f57600080fd5b810190808051906020019092919050505081526020018673ffffffffffffffffffffffffffffffffffffffff1663c4056493866040518263ffffffff1660e01b8152600401808273ffffffffffffffffffffffffffffffffffffffff16815260200191505060206040518083038186803b1580156118ac57600080fd5b505afa1580156118c0573d6000803e3d6000fd5b505050506040513d60208110156118d657600080fd5b810190808051906020019092919050505081526020018673ffffffffffffffffffffffffffffffffffffffff1663d344d499876040518263ffffffff1660e01b8152600401808273ffffffffffffffffffffffffffffffffffffffff16815260200191505060206040518083038186803b15801561195357600080fd5b505afa158015611967573d6000803e3d6000fd5b505050506040513d602081101561197d57600080fd5b810190808051906020019092919050505081526020018673ffffffffffffffffffffffffffffffffffffffff1663d344d499866040518263ffffffff1660e01b8152600401808273ffffffffffffffffffffffffffffffffffffffff16815260200191505060206040518083038186803b1580156119fa57600080fd5b505afa158015611a0e573d6000803e3d6000fd5b505050506040513d6020811015611a2457600080fd5b8101908080519060200190929190505050815250866000995099509950505050505050505b9250925092565b60055481565b633b9aca0081565b611a66612451565b73ffffffffffffffffffffffffffffffffffffffff1660008054906101000a900473ffffffffffffffffffffffffffffffffffffffff1673ffffffffffffffffffffffffffffffffffffffff1614611b26576040517f08c379a00000000000000000000000000000000000000000000000000000000081526004018080602001828103825260208152602001807f4f776e61626c653a2063616c6c6572206973206e6f7420746865206f776e657281525060200191505060405180910390fd5b600073ffffffffffffffffffffffffffffffffffffffff16600460009054906101000a900473ffffffffffffffffffffffffffffffffffffffff1673ffffffffffffffffffffffffffffffffffffffff161415611b8257600080fd5b42600654600554011115611b9557600080fd5b600460009054906101000a900473ffffffffffffffffffffffffffffffffffffffff16600360006101000a81548173ffffffffffffffffffffffffffffffffffffffff021916908373ffffffffffffffffffffffffffffffffffffffff1602179055506000600460006101000a81548173ffffffffffffffffffffffffffffffffffffffff021916908373ffffffffffffffffffffffffffffffffffffffff160217905550565b60008060009054906101000a900473ffffffffffffffffffffffffffffffffffffffff16905090565b60015481565b60075481565b60008060008373ffffffffffffffffffffffffffffffffffffffff166340490a906040518163ffffffff1660e01b815260040160206040518083038186803b158015611cbc57600080fd5b505afa158015611cd0573d6000803e3d6000fd5b505050506040513d6020811015611ce657600080fd5b8101908080519060200190929190505050905060008473ffffffffffffffffffffffffffffffffffffffff166356aef98c6040518163ffffffff1660e01b815260040160206040518083038186803b158015611d4157600080fd5b505afa158015611d55573d6000803e3d6000fd5b505050506040513d6020811015611d6b57600080fd5b81019080805190602001909291905050509050600080600080600080600190505b8d5181101561213057611da18d8e8e8a612147565b9350611daf8c8e8e8a612147565b94508d8181518110611dbd57fe5b60200260200101518e6001830381518110611dd457fe5b602002602001015114612123578d8181518110611ded57fe5b60200260200101518e6001830381518110611e0457fe5b60200260200101511315611f835760008e6001830381518110611e2357fe5b60200260200101511415611e4f5760018e6001830381518110611e4257fe5b6020026020010181815250505b611e8b8e8281518110611e5e57fe5b60200260200101518f6001840381518110611e7557fe5b60200260200101516125fb90919063ffffffff16565b9250611ea4633b9aca008461268990919063ffffffff16565b9250611ecf8e6001830381518110611eb857fe5b6020026020010151846127b390919063ffffffff16565b9250829150611f0f633b9aca00611f01611ef2878c6124e190919063ffffffff16565b856124e190919063ffffffff16565b61256790919063ffffffff16565b91506001548210611f2257600154611f24565b815b9150611f39828e6124e190919063ffffffff16565b9550611f52633b9aca008761256790919063ffffffff16565b9550611f67868d61245990919063ffffffff16565b9b50611f7c8c886125b190919063ffffffff16565b9c50612122565b8d8181518110611f8f57fe5b60200260200101518e6001830381518110611fa657fe5b602002602001015112156121215760008e6001830381518110611fc557fe5b60200260200101511415611ff15760018e6001830381518110611fe457fe5b6020026020010181815250505b61202d8e600183038151811061200357fe5b60200260200101518f838151811061201757fe5b60200260200101516125fb90919063ffffffff16565b9250612046633b9aca008461268990919063ffffffff16565b92506120718e600183038151811061205a57fe5b6020026020010151846127b390919063ffffffff16565b92508291506120b1633b9aca006120a3612094888c6124e190919063ffffffff16565b856124e190919063ffffffff16565b61256790919063ffffffff16565b915060015482106120c4576001546120c6565b815b91506120db828d6124e190919063ffffffff16565b95506120f4633b9aca008761256790919063ffffffff16565b9550612109868e61245990919063ffffffff16565b9c5061211e8d886125b190919063ffffffff16565b9b505b5b5b8080600101915050611d8c565b508b8b985098505050505050505094509492505050565b6000808414806121575750600083145b15612165576000905061220a565b60008511612174576001612176565b845b945060006002546121b96121946002896124e190919063ffffffff16565b6121ab633b9aca00876124e190919063ffffffff16565b61256790919063ffffffff16565b106121c657600254612203565b6122026121dd6002886124e190919063ffffffff16565b6121f4633b9aca00866124e190919063ffffffff16565b61256790919063ffffffff16565b5b9050809150505b949350505050565b60025481565b600460009054906101000a900473ffffffffffffffffffffffffffffffffffffffff1681565b633b9aca0081565b61224e612451565b73ffffffffffffffffffffffffffffffffffffffff1660008054906101000a900473ffffffffffffffffffffffffffffffffffffffff1673ffffffffffffffffffffffffffffffffffffffff161461230e576040517f08c379a00000000000000000000000000000000000000000000000000000000081526004018080602001828103825260208152602001807f4f776e61626c653a2063616c6c6572206973206e6f7420746865206f776e657281525060200191505060405180910390fd5b600073ffffffffffffffffffffffffffffffffffffffff168173ffffffffffffffffffffffffffffffffffffffff161415612394576040517f08c379a0000000000000000000000000000000000000000000000000000000008152600401808060200182810382526026815260200180612a906026913960400191505060405180910390fd5b8073ffffffffffffffffffffffffffffffffffffffff1660008054906101000a900473ffffffffffffffffffffffffffffffffffffffff1673ffffffffffffffffffffffffffffffffffffffff167f8be0079c531659141344cd1fd0a4f28419497f9722a3daafe3b4186f6b6457e060405160405180910390a3806000806101000a81548173ffffffffffffffffffffffffffffffffffffffff021916908373ffffffffffffffffffffffffffffffffffffffff16021790555050565b600033905090565b6000808284019050838110156124d7576040517f08c379a000000000000000000000000000000000000000000000000000000000815260040180806020018281038252601b8152602001807f536166654d6174683a206164646974696f6e206f766572666c6f77000000000081525060200191505060405180910390fd5b8091505092915050565b6000808314156124f45760009050612561565b600082840290508284828161250557fe5b041461255c576040517f08c379a0000000000000000000000000000000000000000000000000000000008152600401808060200182810382526021815260200180612ad76021913960400191505060405180910390fd5b809150505b92915050565b60006125a983836040518060400160405280601a81526020017f536166654d6174683a206469766973696f6e206279207a65726f0000000000008152506128e7565b905092915050565b60006125f383836040518060400160405280601e81526020017f536166654d6174683a207375627472616374696f6e206f766572666c6f7700008152506129ad565b905092915050565b6000808284039050600083121580156126145750838113155b8061262a575060008312801561262957508381135b5b61267f576040517f08c379a0000000000000000000000000000000000000000000000000000000008152600401808060200182810382526024815260200180612b1f6024913960400191505060405180910390fd5b8091505092915050565b60008083141561269c57600090506127ad565b7fffffffffffffffffffffffffffffffffffffffffffffffffffffffffffffffff831480156126ea57507f800000000000000000000000000000000000000000000000000000000000000082145b15612740576040517f08c379a0000000000000000000000000000000000000000000000000000000008152600401808060200182810382526027815260200180612af86027913960400191505060405180910390fd5b600082840290508284828161275157fe5b05146127a8576040517f08c379a0000000000000000000000000000000000000000000000000000000008152600401808060200182810382526027815260200180612af86027913960400191505060405180910390fd5b809150505b92915050565b60008082141561282b576040517f08c379a00000000000000000000000000000000000000000000000000000000081526004018080602001828103825260208152602001807f5369676e6564536166654d6174683a206469766973696f6e206279207a65726f81525060200191505060405180910390fd5b7fffffffffffffffffffffffffffffffffffffffffffffffffffffffffffffffff8214801561287957507f800000000000000000000000000000000000000000000000000000000000000083145b156128cf576040517f08c379a0000000000000000000000000000000000000000000000000000000008152600401808060200182810382526021815260200180612ab66021913960400191505060405180910390fd5b60008284816128da57fe5b0590508091505092915050565b60008083118290612993576040517f08c379a00000000000000000000000000000000000000000000000000000000081526004018080602001828103825283818151815260200191508051906020019080838360005b8381101561295857808201518184015260208101905061293d565b50505050905090810190601f1680156129855780820380516001836020036101000a031916815260200191505b509250505060405180910390fd5b50600083858161299f57fe5b049050809150509392505050565b6000838311158290612a5a576040517f08c379a00000000000000000000000000000000000000000000000000000000081526004018080602001828103825283818151815260200191508051906020019080838360005b83811015612a1f578082015181840152602081019050612a04565b50505050905090810190601f168015612a4c5780820380516001836020036101000a031916815260200191505b509250505060405180910390fd5b5060008385039050809150509392505050565b6040518060c0016040528060069060208202803683378082019150509050509056fe4f776e61626c653a206e6577206f776e657220697320746865207a65726f20616464726573735369676e6564536166654d6174683a206469766973696f6e206f766572666c6f77536166654d6174683a206d756c7469706c69636174696f6e206f766572666c6f775369676e6564536166654d6174683a206d756c7469706c69636174696f6e206f766572666c6f775369676e6564536166654d6174683a207375627472616374696f6e206f766572666c6f77a26469706673582212203f09f3f493d8f99e2a3bb82212f840627bdc0ca69ec8fd3bd67652148a442aee64736f6c634300060c0033",
  "immutableReferences": {},
  "source": "//////////////////////////////////////////////////\n//SYNLEV Price Calculator Contract V 1.2\n//////////////////////////\n\npragma solidity >= 0.6.6;\n\nimport './ownable.sol';\nimport './libraries/SafeMath.sol';\nimport './libraries/SignedSafeMath.sol';\nimport './interfaces/IERC20.sol';\nimport './interfaces/vaultInterface.sol';\nimport './interfaces/priceAggregatorInterface.sol';\n\ncontract priceCalculator is Owned {\n  using SafeMath for uint256;\n  using SignedSafeMath for int256;\n\n  constructor() public {\n    lossLimit = 9 * 10**8;\n    kControl = 15 * 10**8;\n    proposeDelay = 1;\n    priceAggregator = priceAggregatorInterface(0x7196545d854D03D9c87B7588F6D9e1e42D876E95);\n  }\n\n  uint256 public constant uSmallFactor = 10**9;\n  int256 public constant smallFactor = 10**9;\n\n  uint256 public lossLimit;\n  uint256 public kControl;\n  priceAggregatorInterface public priceAggregator;\n  address public priceAggregatorPropose;\n  uint256 public priceAggregatorProposeTimestamp;\n\n  uint256 public proposeDelay;\n  uint256 public proposeDelayPropose;\n  uint256 public proposeDelayTimestamp;\n\n  /*\n   * @notice Calculates the most recent price data.\n   * @dev If there is no new price data it returns current price/equity data.\n   * Safety checks are done by SynLev price aggregator. All calcualtions done\n   * via equity in ETH, not price to avoid rounding errors. Caculates price\n   * based on the \"losing side\", then subracts from the other. Mitigates a\n   * prefrence in rounding error to either bull or bear tokens.\n   */\n  function getUpdatedPrice(address vault, uint256 latestRoundId)\n  public\n  view\n  returns(\n    uint256[6] memory latestPrice,\n    uint256 rRoundId,\n    bool updated\n  ) {\n    //Requests price data from price aggregator proxy\n    (\n      int256[] memory priceData,\n      uint256 roundId\n    ) = priceAggregator.priceRequest(vault, latestRoundId);\n    vaultInterface ivault = vaultInterface(vault);\n    address bull = ivault.getBullToken();\n    address bear = ivault.getBearToken();\n    uint256 bullEquity = ivault.getTokenEquity(bull);\n    uint256 bearEquity = ivault.getTokenEquity(bear);\n    //Only update if price data if price array contains 2 or more values\n    //If there is no new price data pricedate array will have 0 length\n    if(priceData.length > 0 && bullEquity != 0 && bearEquity != 0) {\n      (uint256 rBullEquity, uint256 rBearEquity) = priceCalcLoop(priceData, bullEquity, bearEquity, ivault);\n      uint256[6] memory data = equityToReturnData(bull, bear, rBullEquity, rBearEquity, ivault);\n      return(data, roundId, true);\n    }\n    else {\n      return(\n        [ivault.getPrice(bull),\n        ivault.getPrice(bear),\n        ivault.getLiqEquity(bull),\n        ivault.getLiqEquity(bear),\n        ivault.getEquity(bull),\n        ivault.getEquity(bear)],\n        roundId,\n        false\n      );\n    }\n  }\n\n  function priceCalcLoop(\n    int256[] memory priceData,\n    uint256 bullEquity,\n    uint256 bearEquity,\n    vaultInterface ivault\n    )\n    public\n    view\n    returns(uint256 rBullEquity, uint256 rBearEquity)\n    {\n      uint256 multiplier = ivault.getMultiplier();\n      uint256 totalEquity = ivault.getTotalEquity();\n      uint256 movement;\n      uint256 bearKFactor;\n      uint256 bullKFactor;\n      int256  signedPriceDelta;\n      uint256 pricedelta;\n      for (uint i = 1; i < priceData.length; i++) {\n        //Grab k factor based on running equity\n        bullKFactor = getKFactor(bullEquity, bullEquity, bearEquity, totalEquity);\n        bearKFactor = getKFactor(bearEquity, bullEquity, bearEquity, totalEquity);\n        if(priceData[i-1] != priceData[i]) {\n          //Bearish movement, calc equity from the perspective of bull\n          if(priceData[i-1] > priceData[i]) {\n            //Treats 0 price value as 1, 0 causes divides by 0 error\n            if(priceData[i-1] == 0) priceData[i-1] = 1;\n            //Gets price change in absolute terms.\n\n            signedPriceDelta = priceData[i-1].sub(priceData[i]);\n            signedPriceDelta = signedPriceDelta.mul(smallFactor);\n            signedPriceDelta = signedPriceDelta.div(priceData[i-1]);\n            pricedelta = uint256(signedPriceDelta);\n\n            //Converts price change to be in terms of bull equity change\n            //As a percentage\n            pricedelta = pricedelta.mul(multiplier.mul(bullKFactor)).div(uSmallFactor);\n            //Dont allow loss to be greater than set loss limit\n            pricedelta = pricedelta < lossLimit ? pricedelta : lossLimit;\n            //Calculate equity loss of bull equity\n            movement = bullEquity.mul(pricedelta);\n            movement = movement.div(uSmallFactor);\n            //Adds equity movement to running bear euqity and removes that\n            //Loss from running bull equity\n            bearEquity = bearEquity.add(movement);\n            bullEquity = totalEquity.sub(bearEquity);\n          }\n          //Bullish movement, calc equity from the perspective of bear\n          //Same process as above. only from bear perspective\n          else if(priceData[i-1] < priceData[i]) {\n            if(priceData[i-1] == 0) priceData[i-1] = 1;\n\n            signedPriceDelta = priceData[i].sub(priceData[i-1]);\n            signedPriceDelta = signedPriceDelta.mul(smallFactor);\n            signedPriceDelta = signedPriceDelta.div(priceData[i-1]);\n            pricedelta = uint256(signedPriceDelta);\n\n            pricedelta = pricedelta.mul(multiplier.mul(bearKFactor)).div(uSmallFactor);\n            pricedelta = pricedelta < lossLimit ? pricedelta : lossLimit;\n            movement = bearEquity.mul(pricedelta);\n            movement = movement.div(uSmallFactor);\n            bullEquity = bullEquity.add(movement);\n            bearEquity = totalEquity.sub(bullEquity);\n          }\n        }\n      }\n      return(bullEquity, bearEquity);\n  }\n\n  function equityToReturnData(\n    address bull,\n    address bear,\n    uint256 bullEquity,\n    uint256 bearEquity,\n    vaultInterface ivault\n    )\n    public\n    view\n    returns(uint256[6] memory)\n  {\n      uint256 bullPrice =\n        bullEquity\n        .mul(1 ether)\n        .div(IERC20(bull).totalSupply().add(ivault.getLiqTokens(bull)));\n      uint256 bearPrice =\n        bearEquity\n        .mul(1 ether)\n        .div(IERC20(bear).totalSupply().add(ivault.getLiqTokens(bear)));\n      uint256 bullLiqEquity =\n        bullPrice\n        .mul(ivault.getLiqTokens(bull))\n        .div(1 ether);\n      uint256 bearLiqEquity =\n        bearPrice\n        .mul(ivault.getLiqTokens(bear))\n        .div(1 ether);\n\n      return([\n        bullPrice,\n        bearPrice,\n        bullLiqEquity,\n        bearLiqEquity,\n        bullEquity.sub(bullLiqEquity),\n        bearEquity.sub(bearLiqEquity)\n      ]);\n  }\n\n\n  /*\n   * @notice Calculates k factor of selected token. K factor is the multiplier\n   * that adjusts the leverage level to maintain 100% liquidty at all times.\n   * @dev K factor is scaled 10^9. A K factor of 1 represents a 1:1 ratio of\n   * bull and bear equity.\n   * @param targetEquity The total euqity of the target bull token\n   * @param bullEquity The total equity bull tokens\n   * @param bearEquity The total equity bear tokens\n   * @param totalEquity The total equity of bull and bear tokens\n   * @return K factor\n   */\n  function getKFactor(\n    uint256 targetEquity,\n    uint256 bullEquity,\n    uint256 bearEquity,\n    uint256 totalEquity\n  )\n  public\n  view\n  returns(uint256) {\n    //If either token has 0 equity k value is 0\n    if(bullEquity  == 0 || bearEquity == 0) {\n      return(0);\n    }\n    else {\n      //Avoids divides by 0 error\n      targetEquity = targetEquity > 0 ? targetEquity : 1;\n      uint256 kFactor =\n        totalEquity.mul(10**9).div(targetEquity.mul(2)) < kControl ?\n        totalEquity.mul(10**9).div(targetEquity.mul(2)): kControl;\n      return(kFactor);\n    }\n  }\n\n  ///////////////////\n  //ADMIN FUNCTIONS//\n  ///////////////////\n  function setLossLimit(uint256 amount) public onlyOwner() {\n    lossLimit = amount;\n  }\n  function setkControl(uint256 amount) public onlyOwner() {\n    kControl = amount;\n  }\n  function proposeVaultPriceAggregator(address account) public onlyOwner() {\n    priceAggregatorPropose = account;\n    priceAggregatorProposeTimestamp = block.timestamp;\n  }\n  function updateVaultPriceAggregator() public onlyOwner() {\n    require(priceAggregatorPropose != address(0));\n    require(priceAggregatorProposeTimestamp + proposeDelay <= block.timestamp);\n    priceAggregator = priceAggregatorInterface(priceAggregatorPropose);\n    priceAggregatorPropose = address(0);\n  }\n\n  function proposeProposeDelay(uint256 delay) public onlyOwner() {\n    proposeDelayPropose = delay;\n    proposeDelayTimestamp = block.timestamp;\n  }\n  function updateProposeDelay() public onlyOwner() {\n    require(proposeDelayPropose != 0);\n    require(proposeDelayTimestamp + proposeDelay <= block.timestamp);\n    proposeDelay = proposeDelayPropose;\n    proposeDelayPropose = 0;\n  }\n}\n",
  "sourcePath": "/Users/trevor/SynLev/contracts/live/priceCalculator.sol",
  "compiler": {
    "name": "solc",
    "version": "0.6.12+commit.27d51765.Emscripten.clang"
  },
  "schemaVersion": "3.3.2",
  "updatedAt": "2020-12-31T02:01:19.202Z",
  "devdoc": {
    "kind": "dev",
    "methods": {},
    "version": 1
  },
  "userdoc": {
    "kind": "user",
    "methods": {},
    "version": 1
  }
}