{
  "contractName": "priceCalculatorProxy",
  "abi": [
    {
      "inputs": [],
      "stateMutability": "nonpayable",
      "type": "constructor"
    },
    {
      "anonymous": false,
      "inputs": [
        {
          "indexed": true,
          "internalType": "address",
          "name": "previousOwner",
          "type": "address"
        },
        {
          "indexed": true,
          "internalType": "address",
          "name": "newOwner",
          "type": "address"
        }
      ],
      "name": "OwnershipTransferred",
      "type": "event"
    },
    {
      "inputs": [],
      "name": "owner",
      "outputs": [
        {
          "internalType": "address",
          "name": "",
          "type": "address"
        }
      ],
      "stateMutability": "view",
      "type": "function"
    },
    {
      "inputs": [],
      "name": "priceCalculator",
      "outputs": [
        {
          "internalType": "contract priceCalculatorInterface",
          "name": "",
          "type": "address"
        }
      ],
      "stateMutability": "view",
      "type": "function"
    },
    {
      "inputs": [],
      "name": "priceCalculatorPropose",
      "outputs": [
        {
          "internalType": "address",
          "name": "",
          "type": "address"
        }
      ],
      "stateMutability": "view",
      "type": "function"
    },
    {
      "inputs": [],
      "name": "priceCalculatorProposeTimestamp",
      "outputs": [
        {
          "internalType": "uint256",
          "name": "",
          "type": "uint256"
        }
      ],
      "stateMutability": "view",
      "type": "function"
    },
    {
      "inputs": [],
      "name": "proposeDelay",
      "outputs": [
        {
          "internalType": "uint256",
          "name": "",
          "type": "uint256"
        }
      ],
      "stateMutability": "view",
      "type": "function"
    },
    {
      "inputs": [],
      "name": "proposeDelayPropose",
      "outputs": [
        {
          "internalType": "uint256",
          "name": "",
          "type": "uint256"
        }
      ],
      "stateMutability": "view",
      "type": "function"
    },
    {
      "inputs": [],
      "name": "proposeDelayTimestamp",
      "outputs": [
        {
          "internalType": "uint256",
          "name": "",
          "type": "uint256"
        }
      ],
      "stateMutability": "view",
      "type": "function"
    },
    {
      "inputs": [],
      "name": "renounceOwnership",
      "outputs": [],
      "stateMutability": "nonpayable",
      "type": "function"
    },
    {
      "inputs": [
        {
          "internalType": "address",
          "name": "newOwner",
          "type": "address"
        }
      ],
      "name": "transferOwnership",
      "outputs": [],
      "stateMutability": "nonpayable",
      "type": "function"
    },
    {
      "inputs": [
        {
          "internalType": "address",
          "name": "vault",
          "type": "address"
        },
        {
          "internalType": "uint256",
          "name": "latestRoundId",
          "type": "uint256"
        }
      ],
      "name": "getUpdatedPrice",
      "outputs": [
        {
          "internalType": "uint256[6]",
          "name": "latestPrice",
          "type": "uint256[6]"
        },
        {
          "internalType": "uint256",
          "name": "rRoundId",
          "type": "uint256"
        },
        {
          "internalType": "bool",
          "name": "updated",
          "type": "bool"
        }
      ],
      "stateMutability": "view",
      "type": "function"
    },
    {
      "inputs": [
        {
          "internalType": "address",
          "name": "account",
          "type": "address"
        }
      ],
      "name": "proposePriceCalculator",
      "outputs": [],
      "stateMutability": "nonpayable",
      "type": "function"
    },
    {
      "inputs": [],
      "name": "updatePriceCalculator",
      "outputs": [],
      "stateMutability": "nonpayable",
      "type": "function"
    },
    {
      "inputs": [
        {
          "internalType": "uint256",
          "name": "delay",
          "type": "uint256"
        }
      ],
      "name": "proposeProposeDelay",
      "outputs": [],
      "stateMutability": "nonpayable",
      "type": "function"
    },
    {
      "inputs": [],
      "name": "updateProposeDelay",
      "outputs": [],
      "stateMutability": "nonpayable",
      "type": "function"
    }
  ],
  "bytecode": "0x608060405234801561001057600080fd5b5060006100216100cc60201b60201c565b9050806000806101000a81548173ffffffffffffffffffffffffffffffffffffffff021916908373ffffffffffffffffffffffffffffffffffffffff1602179055508073ffffffffffffffffffffffffffffffffffffffff16600073ffffffffffffffffffffffffffffffffffffffff167f8be0079c531659141344cd1fd0a4f28419497f9722a3daafe3b4186f6b6457e060405160405180910390a35060016004819055506100d4565b600033905090565b610de2806100e36000396000f3fe608060405234801561001057600080fd5b50600436106100ea5760003560e01c8063715018a61161008c5780638da5cb5b116100665780638da5cb5b146102a757806397fae76e146102db578063a3a098ef1461030f578063f2fde38b1461032d576100ea565b8063715018a6146101cf57806382d7a20e146101d95780638b95e33514610273576100ea565b80633c715f00116100c85780633c715f0014610145578063499248c91461016357806354f22def146101a7578063641ff325146101c5576100ea565b80632077d2e3146100ef578063252f75551461011d57806327a6fa1414610127575b600080fd5b61011b6004803603602081101561010557600080fd5b8101908080359060200190929190505050610371565b005b61012561044a565b005b61012f610628565b6040518082815260200191505060405180910390f35b61014d61062e565b6040518082815260200191505060405180910390f35b6101a56004803603602081101561017957600080fd5b81019080803573ffffffffffffffffffffffffffffffffffffffff169060200190929190505050610634565b005b6101af610747565b6040518082815260200191505060405180910390f35b6101cd61074d565b005b6101d761084b565b005b610225600480360360408110156101ef57600080fd5b81019080803573ffffffffffffffffffffffffffffffffffffffff169060200190929190803590602001909291905050506109d1565b6040518084600660200280838360005b83811015610250578082015181840152602081019050610235565b505050509050018381526020018215158152602001935050505060405180910390f35b61027b610ad6565b604051808273ffffffffffffffffffffffffffffffffffffffff16815260200191505060405180910390f35b6102af610afc565b604051808273ffffffffffffffffffffffffffffffffffffffff16815260200191505060405180910390f35b6102e3610b25565b604051808273ffffffffffffffffffffffffffffffffffffffff16815260200191505060405180910390f35b610317610b4b565b6040518082815260200191505060405180910390f35b61036f6004803603602081101561034357600080fd5b81019080803573ffffffffffffffffffffffffffffffffffffffff169060200190929190505050610b51565b005b610379610d5c565b73ffffffffffffffffffffffffffffffffffffffff1660008054906101000a900473ffffffffffffffffffffffffffffffffffffffff1673ffffffffffffffffffffffffffffffffffffffff1614610439576040517f08c379a00000000000000000000000000000000000000000000000000000000081526004018080602001828103825260208152602001807f4f776e61626c653a2063616c6c6572206973206e6f7420746865206f776e657281525060200191505060405180910390fd5b806005819055504260068190555050565b610452610d5c565b73ffffffffffffffffffffffffffffffffffffffff1660008054906101000a900473ffffffffffffffffffffffffffffffffffffffff1673ffffffffffffffffffffffffffffffffffffffff1614610512576040517f08c379a00000000000000000000000000000000000000000000000000000000081526004018080602001828103825260208152602001807f4f776e61626c653a2063616c6c6572206973206e6f7420746865206f776e657281525060200191505060405180910390fd5b600073ffffffffffffffffffffffffffffffffffffffff16600260009054906101000a900473ffffffffffffffffffffffffffffffffffffffff1673ffffffffffffffffffffffffffffffffffffffff16141561056e57600080fd5b4260045460035401111561058157600080fd5b600260009054906101000a900473ffffffffffffffffffffffffffffffffffffffff16600160006101000a81548173ffffffffffffffffffffffffffffffffffffffff021916908373ffffffffffffffffffffffffffffffffffffffff1602179055506000600260006101000a81548173ffffffffffffffffffffffffffffffffffffffff021916908373ffffffffffffffffffffffffffffffffffffffff160217905550565b60035481565b60065481565b61063c610d5c565b73ffffffffffffffffffffffffffffffffffffffff1660008054906101000a900473ffffffffffffffffffffffffffffffffffffffff1673ffffffffffffffffffffffffffffffffffffffff16146106fc576040517f08c379a00000000000000000000000000000000000000000000000000000000081526004018080602001828103825260208152602001807f4f776e61626c653a2063616c6c6572206973206e6f7420746865206f776e657281525060200191505060405180910390fd5b80600260006101000a81548173ffffffffffffffffffffffffffffffffffffffff021916908373ffffffffffffffffffffffffffffffffffffffff1602179055504260038190555050565b60045481565b610755610d5c565b73ffffffffffffffffffffffffffffffffffffffff1660008054906101000a900473ffffffffffffffffffffffffffffffffffffffff1673ffffffffffffffffffffffffffffffffffffffff1614610815576040517f08c379a00000000000000000000000000000000000000000000000000000000081526004018080602001828103825260208152602001807f4f776e61626c653a2063616c6c6572206973206e6f7420746865206f776e657281525060200191505060405180910390fd5b6000600554141561082557600080fd5b4260045460065401111561083857600080fd5b6005546004819055506000600581905550565b610853610d5c565b73ffffffffffffffffffffffffffffffffffffffff1660008054906101000a900473ffffffffffffffffffffffffffffffffffffffff1673ffffffffffffffffffffffffffffffffffffffff1614610913576040517f08c379a00000000000000000000000000000000000000000000000000000000081526004018080602001828103825260208152602001807f4f776e61626c653a2063616c6c6572206973206e6f7420746865206f776e657281525060200191505060405180910390fd5b600073ffffffffffffffffffffffffffffffffffffffff1660008054906101000a900473ffffffffffffffffffffffffffffffffffffffff1673ffffffffffffffffffffffffffffffffffffffff167f8be0079c531659141344cd1fd0a4f28419497f9722a3daafe3b4186f6b6457e060405160405180910390a360008060006101000a81548173ffffffffffffffffffffffffffffffffffffffff021916908373ffffffffffffffffffffffffffffffffffffffff160217905550565b6109d9610d64565b600080600160009054906101000a900473ffffffffffffffffffffffffffffffffffffffff1673ffffffffffffffffffffffffffffffffffffffff166382d7a20e86866040518363ffffffff1660e01b8152600401808373ffffffffffffffffffffffffffffffffffffffff168152602001828152602001925050506101006040518083038186803b158015610a6e57600080fd5b505afa158015610a82573d6000803e3d6000fd5b505050506040513d601f19601f82011682018060405250610100811015610aa857600080fd5b8101908091908260c00180519060200190929190805190602001909291905050509250925092509250925092565b600160009054906101000a900473ffffffffffffffffffffffffffffffffffffffff1681565b60008060009054906101000a900473ffffffffffffffffffffffffffffffffffffffff16905090565b600260009054906101000a900473ffffffffffffffffffffffffffffffffffffffff1681565b60055481565b610b59610d5c565b73ffffffffffffffffffffffffffffffffffffffff1660008054906101000a900473ffffffffffffffffffffffffffffffffffffffff1673ffffffffffffffffffffffffffffffffffffffff1614610c19576040517f08c379a00000000000000000000000000000000000000000000000000000000081526004018080602001828103825260208152602001807f4f776e61626c653a2063616c6c6572206973206e6f7420746865206f776e657281525060200191505060405180910390fd5b600073ffffffffffffffffffffffffffffffffffffffff168173ffffffffffffffffffffffffffffffffffffffff161415610c9f576040517f08c379a0000000000000000000000000000000000000000000000000000000008152600401808060200182810382526026815260200180610d876026913960400191505060405180910390fd5b8073ffffffffffffffffffffffffffffffffffffffff1660008054906101000a900473ffffffffffffffffffffffffffffffffffffffff1673ffffffffffffffffffffffffffffffffffffffff167f8be0079c531659141344cd1fd0a4f28419497f9722a3daafe3b4186f6b6457e060405160405180910390a3806000806101000a81548173ffffffffffffffffffffffffffffffffffffffff021916908373ffffffffffffffffffffffffffffffffffffffff16021790555050565b600033905090565b6040518060c0016040528060069060208202803683378082019150509050509056fe4f776e61626c653a206e6577206f776e657220697320746865207a65726f2061646472657373a2646970667358221220967d8afbf403a2fcad2d94f0ec2ff40ff960971e541aafaabbc46d40b24e904f64736f6c634300060c0033",
  "immutableReferences": {},
  "source": "//////////////////////////////////////////////////\n//SYNLEV price calculator proxy V 1.1\n//////////////////////////\n\npragma solidity >= 0.6.4;\n\nimport './ownable.sol';\nimport './interfaces/priceCalculatorInterface.sol';\n\ncontract priceCalculatorProxy is Owned {\n\n  constructor() public {\n    proposeDelay = 1;\n  }\n\n  priceCalculatorInterface public priceCalculator;\n  address public priceCalculatorPropose;\n  uint256 public priceCalculatorProposeTimestamp;\n\n  uint256 public proposeDelay;\n  uint256 public proposeDelayPropose;\n  uint256 public proposeDelayTimestamp;\n\n  function getUpdatedPrice(address vault, uint256 latestRoundId)\n  public\n  view\n  virtual\n  returns(\n    uint256[6] memory latestPrice,\n    uint256 rRoundId,\n    bool updated\n  ) {\n    return(priceCalculator.getUpdatedPrice(vault, latestRoundId));\n  }\n\n  //Admin Functions\n  function proposePriceCalculator(address account) public onlyOwner() {\n    priceCalculatorPropose = account;\n    priceCalculatorProposeTimestamp = block.timestamp;\n  }\n  function updatePriceCalculator() public onlyOwner() {\n    require(priceCalculatorPropose != address(0));\n    require(priceCalculatorProposeTimestamp + proposeDelay <= block.timestamp);\n    priceCalculator = priceCalculatorInterface(priceCalculatorPropose);\n    priceCalculatorPropose = address(0);\n  }\n\n  function proposeProposeDelay(uint256 delay) public onlyOwner() {\n    proposeDelayPropose = delay;\n    proposeDelayTimestamp = block.timestamp;\n  }\n  function updateProposeDelay() public onlyOwner() {\n    require(proposeDelayPropose != 0);\n    require(proposeDelayTimestamp + proposeDelay <= block.timestamp);\n    proposeDelay = proposeDelayPropose;\n    proposeDelayPropose = 0;\n  }\n}\n",
  "sourcePath": "/Users/trevor/SynLev/contracts/live/priceCalculatorProxy.sol",
  "compiler": {
    "name": "solc",
    "version": "0.6.12+commit.27d51765.Emscripten.clang"
  },
  "schemaVersion": "3.3.2",
  "updatedAt": "2020-12-31T02:01:19.213Z",
  "devdoc": {
    "kind": "dev",
    "methods": {},
    "version": 1
  },
  "userdoc": {
    "kind": "user",
    "methods": {},
    "version": 1
  }
}