{
  "contractName": "router",
  "abi": [
    {
      "inputs": [],
      "stateMutability": "nonpayable",
      "type": "constructor"
    },
    {
      "stateMutability": "payable",
      "type": "receive"
    },
    {
      "inputs": [
        {
          "internalType": "address payable",
          "name": "vault",
          "type": "address"
        },
        {
          "internalType": "uint256",
          "name": "minPrice",
          "type": "uint256"
        },
        {
          "internalType": "uint256",
          "name": "maxPrice",
          "type": "uint256"
        },
        {
          "internalType": "uint256",
          "name": "deadline",
          "type": "uint256"
        }
      ],
      "name": "buyBullTokens",
      "outputs": [],
      "stateMutability": "payable",
      "type": "function"
    },
    {
      "inputs": [
        {
          "internalType": "address",
          "name": "vault",
          "type": "address"
        },
        {
          "internalType": "uint256",
          "name": "amount",
          "type": "uint256"
        },
        {
          "internalType": "uint256",
          "name": "minPrice",
          "type": "uint256"
        },
        {
          "internalType": "uint256",
          "name": "maxPrice",
          "type": "uint256"
        },
        {
          "internalType": "uint256",
          "name": "deadline",
          "type": "uint256"
        }
      ],
      "name": "sellBullTokens",
      "outputs": [],
      "stateMutability": "nonpayable",
      "type": "function"
    },
    {
      "inputs": [
        {
          "internalType": "address payable",
          "name": "vault",
          "type": "address"
        },
        {
          "internalType": "uint256",
          "name": "minPrice",
          "type": "uint256"
        },
        {
          "internalType": "uint256",
          "name": "maxPrice",
          "type": "uint256"
        },
        {
          "internalType": "uint256",
          "name": "deadline",
          "type": "uint256"
        }
      ],
      "name": "buyBearTokens",
      "outputs": [],
      "stateMutability": "payable",
      "type": "function"
    },
    {
      "inputs": [
        {
          "internalType": "address",
          "name": "vault",
          "type": "address"
        },
        {
          "internalType": "uint256",
          "name": "amount",
          "type": "uint256"
        },
        {
          "internalType": "uint256",
          "name": "minPrice",
          "type": "uint256"
        },
        {
          "internalType": "uint256",
          "name": "maxPrice",
          "type": "uint256"
        },
        {
          "internalType": "uint256",
          "name": "deadline",
          "type": "uint256"
        }
      ],
      "name": "sellBearTokens",
      "outputs": [],
      "stateMutability": "nonpayable",
      "type": "function"
    }
  ],
  "bytecode": "0x608060405234801561001057600080fd5b506110f7806100206000396000f3fe6080604052600436106100435760003560e01c80630a8f27801461004f5780635cf1b582146100b157806374f98bdc1461012a578063a04bbb77146101a35761004a565b3661004a57005b600080fd5b6100af6004803603608081101561006557600080fd5b81019080803573ffffffffffffffffffffffffffffffffffffffff169060200190929190803590602001909291908035906020019092919080359060200190929190505050610205565b005b3480156100bd57600080fd5b50610128600480360360a08110156100d457600080fd5b81019080803573ffffffffffffffffffffffffffffffffffffffff16906020019092919080359060200190929190803590602001909291908035906020019092919080359060200190929190505050610561565b005b34801561013657600080fd5b506101a1600480360360a081101561014d57600080fd5b81019080803573ffffffffffffffffffffffffffffffffffffffff16906020019092919080359060200190929190803590602001909291908035906020019092919080359060200190929190505050610950565b005b610203600480360360808110156101b957600080fd5b81019080803573ffffffffffffffffffffffffffffffffffffffff169060200190929190803590602001909291908035906020019092919080359060200190929190505050610d3f565b005b804281101561027c576040517f08c379a00000000000000000000000000000000000000000000000000000000081526004018080602001828103825260158152602001807f53796e4c6576526f757465723a2045585049524544000000000000000000000081525060200191505060405180910390fd5b600085905060008173ffffffffffffffffffffffffffffffffffffffff16633ba5d96d6040518163ffffffff1660e01b815260040160206040518083038186803b1580156102c957600080fd5b505afa1580156102dd573d6000803e3d6000fd5b505050506040513d60208110156102f357600080fd5b810190808051906020019092919050505090508173ffffffffffffffffffffffffffffffffffffffff1663673a7e286040518163ffffffff1660e01b8152600401600060405180830381600087803b15801561034e57600080fd5b505af1158015610362573d6000803e3d6000fd5b5050505060008273ffffffffffffffffffffffffffffffffffffffff166341976e09836040518263ffffffff1660e01b8152600401808273ffffffffffffffffffffffffffffffffffffffff16815260200191505060206040518083038186803b1580156103cf57600080fd5b505afa1580156103e3573d6000803e3d6000fd5b505050506040513d60208110156103f957600080fd5b8101908080519060200190929190505050905086811015801561041c5750858111155b610471576040517f08c379a000000000000000000000000000000000000000000000000000000000815260040180806020018281038252602681526020018061109c6026913960400191505060405180910390fd5b8773ffffffffffffffffffffffffffffffffffffffff166108fc479081150290604051600060405180830381858888f193505050501580156104b7573d6000803e3d6000fd5b508273ffffffffffffffffffffffffffffffffffffffff166347f958a783336040518363ffffffff1660e01b8152600401808373ffffffffffffffffffffffffffffffffffffffff1681526020018273ffffffffffffffffffffffffffffffffffffffff16815260200192505050600060405180830381600087803b15801561053f57600080fd5b505af1158015610553573d6000803e3d6000fd5b505050505050505050505050565b80428110156105d8576040517f08c379a00000000000000000000000000000000000000000000000000000000081526004018080602001828103825260158152602001807f53796e4c6576526f757465723a2045585049524544000000000000000000000081525060200191505060405180910390fd5b600086905060008173ffffffffffffffffffffffffffffffffffffffff16633ba5d96d6040518163ffffffff1660e01b815260040160206040518083038186803b15801561062557600080fd5b505afa158015610639573d6000803e3d6000fd5b505050506040513d602081101561064f57600080fd5b810190808051906020019092919050505090508173ffffffffffffffffffffffffffffffffffffffff1663673a7e286040518163ffffffff1660e01b8152600401600060405180830381600087803b1580156106aa57600080fd5b505af11580156106be573d6000803e3d6000fd5b50505050600081905060008373ffffffffffffffffffffffffffffffffffffffff166341976e09846040518263ffffffff1660e01b8152600401808273ffffffffffffffffffffffffffffffffffffffff16815260200191505060206040518083038186803b15801561073057600080fd5b505afa158015610744573d6000803e3d6000fd5b505050506040513d602081101561075a57600080fd5b8101908080519060200190929190505050905087811015801561077d5750868111155b6107d2576040517f08c379a000000000000000000000000000000000000000000000000000000000815260040180806020018281038252602681526020018061109c6026913960400191505060405180910390fd5b8173ffffffffffffffffffffffffffffffffffffffff166323b872dd338c8c6040518463ffffffff1660e01b8152600401808473ffffffffffffffffffffffffffffffffffffffff1681526020018373ffffffffffffffffffffffffffffffffffffffff1681526020018281526020019350505050602060405180830381600087803b15801561086157600080fd5b505af1158015610875573d6000803e3d6000fd5b505050506040513d602081101561088b57600080fd5b81019080805190602001909291905050506108a557600080fd5b8373ffffffffffffffffffffffffffffffffffffffff16633b252e1584336040518363ffffffff1660e01b8152600401808373ffffffffffffffffffffffffffffffffffffffff1681526020018273ffffffffffffffffffffffffffffffffffffffff16815260200192505050600060405180830381600087803b15801561092c57600080fd5b505af1158015610940573d6000803e3d6000fd5b5050505050505050505050505050565b80428110156109c7576040517f08c379a00000000000000000000000000000000000000000000000000000000081526004018080602001828103825260158152602001807f53796e4c6576526f757465723a2045585049524544000000000000000000000081525060200191505060405180910390fd5b600086905060008173ffffffffffffffffffffffffffffffffffffffff16635db214da6040518163ffffffff1660e01b815260040160206040518083038186803b158015610a1457600080fd5b505afa158015610a28573d6000803e3d6000fd5b505050506040513d6020811015610a3e57600080fd5b810190808051906020019092919050505090508173ffffffffffffffffffffffffffffffffffffffff1663673a7e286040518163ffffffff1660e01b8152600401600060405180830381600087803b158015610a9957600080fd5b505af1158015610aad573d6000803e3d6000fd5b50505050600081905060008373ffffffffffffffffffffffffffffffffffffffff166341976e09846040518263ffffffff1660e01b8152600401808273ffffffffffffffffffffffffffffffffffffffff16815260200191505060206040518083038186803b158015610b1f57600080fd5b505afa158015610b33573d6000803e3d6000fd5b505050506040513d6020811015610b4957600080fd5b81019080805190602001909291905050509050878110158015610b6c5750868111155b610bc1576040517f08c379a000000000000000000000000000000000000000000000000000000000815260040180806020018281038252602681526020018061109c6026913960400191505060405180910390fd5b8173ffffffffffffffffffffffffffffffffffffffff166323b872dd338c8c6040518463ffffffff1660e01b8152600401808473ffffffffffffffffffffffffffffffffffffffff1681526020018373ffffffffffffffffffffffffffffffffffffffff1681526020018281526020019350505050602060405180830381600087803b158015610c5057600080fd5b505af1158015610c64573d6000803e3d6000fd5b505050506040513d6020811015610c7a57600080fd5b8101908080519060200190929190505050610c9457600080fd5b8373ffffffffffffffffffffffffffffffffffffffff16633b252e1584336040518363ffffffff1660e01b8152600401808373ffffffffffffffffffffffffffffffffffffffff1681526020018273ffffffffffffffffffffffffffffffffffffffff16815260200192505050600060405180830381600087803b158015610d1b57600080fd5b505af1158015610d2f573d6000803e3d6000fd5b5050505050505050505050505050565b8042811015610db6576040517f08c379a00000000000000000000000000000000000000000000000000000000081526004018080602001828103825260158152602001807f53796e4c6576526f757465723a2045585049524544000000000000000000000081525060200191505060405180910390fd5b600085905060008173ffffffffffffffffffffffffffffffffffffffff16635db214da6040518163ffffffff1660e01b815260040160206040518083038186803b158015610e0357600080fd5b505afa158015610e17573d6000803e3d6000fd5b505050506040513d6020811015610e2d57600080fd5b810190808051906020019092919050505090508173ffffffffffffffffffffffffffffffffffffffff1663673a7e286040518163ffffffff1660e01b8152600401600060405180830381600087803b158015610e8857600080fd5b505af1158015610e9c573d6000803e3d6000fd5b5050505060008273ffffffffffffffffffffffffffffffffffffffff166341976e09836040518263ffffffff1660e01b8152600401808273ffffffffffffffffffffffffffffffffffffffff16815260200191505060206040518083038186803b158015610f0957600080fd5b505afa158015610f1d573d6000803e3d6000fd5b505050506040513d6020811015610f3357600080fd5b81019080805190602001909291905050509050868110158015610f565750858111155b610fab576040517f08c379a000000000000000000000000000000000000000000000000000000000815260040180806020018281038252602681526020018061109c6026913960400191505060405180910390fd5b8773ffffffffffffffffffffffffffffffffffffffff166108fc479081150290604051600060405180830381858888f19350505050158015610ff1573d6000803e3d6000fd5b508273ffffffffffffffffffffffffffffffffffffffff166347f958a783336040518363ffffffff1660e01b8152600401808373ffffffffffffffffffffffffffffffffffffffff1681526020018273ffffffffffffffffffffffffffffffffffffffff16815260200192505050600060405180830381600087803b15801561107957600080fd5b505af115801561108d573d6000803e3d6000fd5b50505050505050505050505056fe53796e4c6576526f757465723a20544f4b454e205052494345204f5554204f462052414e4745a26469706673582212205bd9ee73d2e7e0149433b3a0e7b4973107bf977219fe6371394df0693a90e54a64736f6c634300060c0033",
  "immutableReferences": {},
  "source": "//////////////////////////////////////////////////\n//SYNLEV ROUTER CONTRACT V 1.0.0\n//////////////////////////\n\npragma solidity >= 0.6.4;\n\nimport './interfaces/IERC20.sol';\nimport './interfaces/vaultInterface.sol';\n\ncontract router {\n\n  constructor() public { }\n\n  modifier ensure(uint deadline) {\n    require(deadline >= block.timestamp, 'SynLevRouter: EXPIRED');\n    _;\n  }\n\n  receive() external payable {}\n\n  function buyBullTokens(\n    address payable vault,\n    uint256 minPrice,\n    uint256 maxPrice,\n    uint256 deadline\n  ) public payable ensure(deadline) {\n    vaultInterface ivault = vaultInterface(vault);\n    address token = ivault.getBullToken();\n    ivault.updatePrice();\n    uint256 price = ivault.getPrice(token);\n    require(price >= minPrice && price <= maxPrice, 'SynLevRouter: TOKEN PRICE OUT OF RANGE');\n    vault.transfer(address(this).balance);\n    ivault.tokenBuy(token, msg.sender);\n  }\n\n  function sellBullTokens(\n    address vault,\n    uint256 amount,\n    uint256 minPrice,\n    uint256 maxPrice,\n    uint256 deadline\n  ) public ensure(deadline) {\n    vaultInterface ivault = vaultInterface(vault);\n    address token = ivault.getBullToken();\n    ivault.updatePrice();\n\n    IERC20 itoken = IERC20(token);\n    uint256 price = ivault.getPrice(token);\n    require(price >= minPrice && price <= maxPrice, 'SynLevRouter: TOKEN PRICE OUT OF RANGE');\n    require(itoken.transferFrom(msg.sender, vault, amount));\n    ivault.tokenSell(token, msg.sender);\n  }\n\n  function buyBearTokens(\n    address payable vault,\n    uint256 minPrice,\n    uint256 maxPrice,\n    uint256 deadline\n  ) public payable ensure(deadline) {\n    vaultInterface ivault = vaultInterface(vault);\n    address token = ivault.getBearToken();\n    ivault.updatePrice();\n    uint256 price = ivault.getPrice(token);\n    require(price >= minPrice && price <= maxPrice, 'SynLevRouter: TOKEN PRICE OUT OF RANGE');\n    vault.transfer(address(this).balance);\n    ivault.tokenBuy(token, msg.sender);\n  }\n\n  function sellBearTokens(\n    address vault,\n    uint256 amount,\n    uint256 minPrice,\n    uint256 maxPrice,\n    uint256 deadline\n  ) public ensure(deadline) {\n    vaultInterface ivault = vaultInterface(vault);\n    address token = ivault.getBearToken();\n    ivault.updatePrice();\n    IERC20 itoken = IERC20(token);\n    uint256 price = ivault.getPrice(token);\n    require(price >= minPrice && price <= maxPrice, 'SynLevRouter: TOKEN PRICE OUT OF RANGE');\n    require(itoken.transferFrom(msg.sender, vault, amount));\n    ivault.tokenSell(token, msg.sender);\n  }\n\n\n\n}\n",
  "sourcePath": "/Users/trevor/SynLev/contracts/live/router.sol",
  "compiler": {
    "name": "solc",
    "version": "0.6.12+commit.27d51765.Emscripten.clang"
  },
  "schemaVersion": "3.3.2",
  "updatedAt": "2020-12-31T02:01:19.218Z",
  "devdoc": {
    "kind": "dev",
    "methods": {},
    "version": 1
  },
  "userdoc": {
    "kind": "user",
    "methods": {},
    "version": 1
  }
}