{
  "contractName": "SYNairdrop",
  "abi": [
    {
      "anonymous": false,
      "inputs": [
        {
          "indexed": true,
          "internalType": "address",
          "name": "_from",
          "type": "address"
        },
        {
          "indexed": true,
          "internalType": "address",
          "name": "_to",
          "type": "address"
        }
      ],
      "name": "OwnershipTransferred",
      "type": "event"
    },
    {
      "anonymous": false,
      "inputs": [
        {
          "indexed": false,
          "internalType": "address",
          "name": "account",
          "type": "address"
        }
      ],
      "name": "SignUpForAirdrop",
      "type": "event"
    },
    {
      "stateMutability": "payable",
      "type": "fallback"
    },
    {
      "inputs": [],
      "name": "acceptOwnership",
      "outputs": [],
      "stateMutability": "nonpayable",
      "type": "function"
    },
    {
      "inputs": [
        {
          "internalType": "uint256",
          "name": "",
          "type": "uint256"
        }
      ],
      "name": "airdroplist",
      "outputs": [
        {
          "internalType": "address",
          "name": "",
          "type": "address"
        }
      ],
      "stateMutability": "view",
      "type": "function"
    },
    {
      "inputs": [],
      "name": "newOwner",
      "outputs": [
        {
          "internalType": "address",
          "name": "",
          "type": "address"
        }
      ],
      "stateMutability": "view",
      "type": "function"
    },
    {
      "inputs": [],
      "name": "owner",
      "outputs": [
        {
          "internalType": "address",
          "name": "",
          "type": "address"
        }
      ],
      "stateMutability": "view",
      "type": "function"
    },
    {
      "inputs": [
        {
          "internalType": "address",
          "name": "",
          "type": "address"
        }
      ],
      "name": "signedup",
      "outputs": [
        {
          "internalType": "bool",
          "name": "",
          "type": "bool"
        }
      ],
      "stateMutability": "view",
      "type": "function"
    },
    {
      "inputs": [
        {
          "internalType": "address",
          "name": "_newOwner",
          "type": "address"
        }
      ],
      "name": "transferOwnership",
      "outputs": [],
      "stateMutability": "nonpayable",
      "type": "function"
    },
    {
      "stateMutability": "payable",
      "type": "receive"
    },
    {
      "inputs": [],
      "name": "signUpForAirdrop",
      "outputs": [],
      "stateMutability": "nonpayable",
      "type": "function"
    },
    {
      "inputs": [
        {
          "internalType": "contract IERC20",
          "name": "token",
          "type": "address"
        },
        {
          "internalType": "address[]",
          "name": "account",
          "type": "address[]"
        },
        {
          "internalType": "uint256[]",
          "name": "amount",
          "type": "uint256[]"
        }
      ],
      "name": "sendAirdrop",
      "outputs": [],
      "stateMutability": "nonpayable",
      "type": "function"
    },
    {
      "inputs": [],
      "name": "clearETH",
      "outputs": [],
      "stateMutability": "nonpayable",
      "type": "function"
    },
    {
      "inputs": [
        {
          "internalType": "contract IERC20",
          "name": "token",
          "type": "address"
        },
        {
          "internalType": "uint256",
          "name": "amount",
          "type": "uint256"
        }
      ],
      "name": "adminwithdrawtokens",
      "outputs": [],
      "stateMutability": "nonpayable",
      "type": "function"
    }
  ],
  "bytecode": "0x608060405234801561001057600080fd5b50336000806101000a81548173ffffffffffffffffffffffffffffffffffffffff021916908373ffffffffffffffffffffffffffffffffffffffff160217905550610c43806100606000396000f3fe6080604052600436106100955760003560e01c8063aab6d4bd11610059578063aab6d4bd146101cf578063c67e5114146101e6578063d4ee1d901461035f578063f0501015146103a0578063f2fde38b146104055761009c565b806354a747611461009e578063616eb6381461010557806379ba50971461011c5780638da5cb5b146101335780639bbab979146101745761009c565b3661009c57005b005b3480156100aa57600080fd5b506100ed600480360360208110156100c157600080fd5b81019080803573ffffffffffffffffffffffffffffffffffffffff169060200190929190505050610456565b60405180821515815260200191505060405180910390f35b34801561011157600080fd5b5061011a610476565b005b34801561012857600080fd5b5061013161051d565b005b34801561013f57600080fd5b506101486106b9565b604051808273ffffffffffffffffffffffffffffffffffffffff16815260200191505060405180910390f35b34801561018057600080fd5b506101cd6004803603604081101561019757600080fd5b81019080803573ffffffffffffffffffffffffffffffffffffffff169060200190929190803590602001909291905050506106dd565b005b3480156101db57600080fd5b506101e46107e6565b005b3480156101f257600080fd5b5061035d6004803603606081101561020957600080fd5b81019080803573ffffffffffffffffffffffffffffffffffffffff1690602001909291908035906020019064010000000081111561024657600080fd5b82018360208201111561025857600080fd5b8035906020019184602083028401116401000000008311171561027a57600080fd5b919080806020026020016040519081016040528093929190818152602001838360200280828437600081840152601f19601f820116905080830192505050505050509192919290803590602001906401000000008111156102da57600080fd5b8201836020820111156102ec57600080fd5b8035906020019184602083028401116401000000008311171561030e57600080fd5b919080806020026020016040519081016040528093929190818152602001838360200280828437600081840152601f19601f820116905080830192505050505050509192919290505050610999565b005b34801561036b57600080fd5b50610374610ae3565b604051808273ffffffffffffffffffffffffffffffffffffffff16815260200191505060405180910390f35b3480156103ac57600080fd5b506103d9600480360360208110156103c357600080fd5b8101908080359060200190929190505050610b09565b604051808273ffffffffffffffffffffffffffffffffffffffff16815260200191505060405180910390f35b34801561041157600080fd5b506104546004803603602081101561042857600080fd5b81019080803573ffffffffffffffffffffffffffffffffffffffff169060200190929190505050610b45565b005b60036020528060005260406000206000915054906101000a900460ff1681565b60008054906101000a900473ffffffffffffffffffffffffffffffffffffffff1673ffffffffffffffffffffffffffffffffffffffff163373ffffffffffffffffffffffffffffffffffffffff16146104ce57600080fd5b60003390508073ffffffffffffffffffffffffffffffffffffffff166108fc479081150290604051600060405180830381858888f19350505050158015610519573d6000803e3d6000fd5b5050565b600160009054906101000a900473ffffffffffffffffffffffffffffffffffffffff1673ffffffffffffffffffffffffffffffffffffffff163373ffffffffffffffffffffffffffffffffffffffff161461057757600080fd5b600160009054906101000a900473ffffffffffffffffffffffffffffffffffffffff1673ffffffffffffffffffffffffffffffffffffffff1660008054906101000a900473ffffffffffffffffffffffffffffffffffffffff1673ffffffffffffffffffffffffffffffffffffffff167f8be0079c531659141344cd1fd0a4f28419497f9722a3daafe3b4186f6b6457e060405160405180910390a3600160009054906101000a900473ffffffffffffffffffffffffffffffffffffffff166000806101000a81548173ffffffffffffffffffffffffffffffffffffffff021916908373ffffffffffffffffffffffffffffffffffffffff1602179055506000600160006101000a81548173ffffffffffffffffffffffffffffffffffffffff021916908373ffffffffffffffffffffffffffffffffffffffff160217905550565b60008054906101000a900473ffffffffffffffffffffffffffffffffffffffff1681565b60008054906101000a900473ffffffffffffffffffffffffffffffffffffffff1673ffffffffffffffffffffffffffffffffffffffff163373ffffffffffffffffffffffffffffffffffffffff161461073557600080fd5b8173ffffffffffffffffffffffffffffffffffffffff1663a9059cbb33836040518363ffffffff1660e01b8152600401808373ffffffffffffffffffffffffffffffffffffffff16815260200182815260200192505050602060405180830381600087803b1580156107a657600080fd5b505af11580156107ba573d6000803e3d6000fd5b505050506040513d60208110156107d057600080fd5b8101908080519060200190929190505050505050565b60001515600360003373ffffffffffffffffffffffffffffffffffffffff1673ffffffffffffffffffffffffffffffffffffffff16815260200190815260200160002060009054906101000a900460ff1615151461088f576040517f08c379a000000000000000000000000000000000000000000000000000000000815260040180806020018281038252602c815260200180610be2602c913960400191505060405180910390fd5b6002339080600181540180825580915050600190039060005260206000200160009091909190916101000a81548173ffffffffffffffffffffffffffffffffffffffff021916908373ffffffffffffffffffffffffffffffffffffffff1602179055506001600360003373ffffffffffffffffffffffffffffffffffffffff1673ffffffffffffffffffffffffffffffffffffffff16815260200190815260200160002060006101000a81548160ff0219169083151502179055507f4d694aec0e1a34ddd90c8833da66fef033d4fdc751ec4e5ee0cdd7b67036ad2233604051808273ffffffffffffffffffffffffffffffffffffffff16815260200191505060405180910390a1565b60008054906101000a900473ffffffffffffffffffffffffffffffffffffffff1673ffffffffffffffffffffffffffffffffffffffff163373ffffffffffffffffffffffffffffffffffffffff16146109f157600080fd5b60005b8251811015610add578373ffffffffffffffffffffffffffffffffffffffff1663a9059cbb848381518110610a2557fe5b6020026020010151848481518110610a3957fe5b60200260200101516040518363ffffffff1660e01b8152600401808373ffffffffffffffffffffffffffffffffffffffff16815260200182815260200192505050602060405180830381600087803b158015610a9457600080fd5b505af1158015610aa8573d6000803e3d6000fd5b505050506040513d6020811015610abe57600080fd5b81019080805190602001909291905050505080806001019150506109f4565b50505050565b600160009054906101000a900473ffffffffffffffffffffffffffffffffffffffff1681565b60028181548110610b1657fe5b906000526020600020016000915054906101000a900473ffffffffffffffffffffffffffffffffffffffff1681565b60008054906101000a900473ffffffffffffffffffffffffffffffffffffffff1673ffffffffffffffffffffffffffffffffffffffff163373ffffffffffffffffffffffffffffffffffffffff1614610b9d57600080fd5b80600160006101000a81548173ffffffffffffffffffffffffffffffffffffffff021916908373ffffffffffffffffffffffffffffffffffffffff1602179055505056fe6572726f723a204163636f756e7420616c7265616479207369676e656420757020666f722061697264726f70a26469706673582212202e4524a75be8861ec1aa6b10c39fd162591d717b00cff91bcada9e051a93331a64736f6c634300060c0033",
  "immutableReferences": {},
  "source": "pragma solidity > 0.6.5;\n\ncontract Owned {\n  address public owner;\n  address public newOwner;\n\n  event OwnershipTransferred(address indexed _from, address indexed _to);\n\n  constructor() public {\n    owner = msg.sender;\n  }\n\n  modifier onlyOwner {\n    require(msg.sender == owner);\n    _;\n  }\n\n  function transferOwnership(address _newOwner) public onlyOwner {\n    newOwner = _newOwner;\n  }\n  function acceptOwnership() public {\n    require(msg.sender == newOwner);\n    emit OwnershipTransferred(owner, newOwner);\n    owner = newOwner;\n    newOwner = address(0);\n  }\n}\n\ninterface IERC20 {\n  function totalSupply() external view returns (uint256);\n  function balanceOf(address account) external view returns (uint256);\n  function transfer(address recipient, uint256 amount) external returns (bool);\n  function allowance(address owner, address spender) external view returns (uint256);\n  function approve(address spender, uint256 amount) external returns (bool);\n  function transferFrom(address sender, address recipient, uint256 amount) external returns (bool);\n  function mint(address account, uint256 amount) external;\n  function burn(address account, uint256 amount) external;\n  event Transfer(address indexed from, address indexed to, uint256 value);\n  event Approval(address indexed owner, address indexed spender, uint256 value);\n}\n\ncontract SYNairdrop is Owned {\n\n  event SignUpForAirdrop(address account);\n\n  address[] public airdroplist;\n  mapping(address => bool) public signedup;\n\n  function signUpForAirdrop() public {\n    require(signedup[msg.sender] == false, \"error: Account already signed up for airdrop\");\n    airdroplist.push(msg.sender);\n    signedup[msg.sender] = true;\n    emit SignUpForAirdrop(msg.sender);\n  }\n\n  function sendAirdrop(IERC20 token, address[] memory account, uint256[] memory amount) public onlyOwner() {\n    for( uint k = 0; k < account.length; k++) {\n      token.transfer(account[k], amount[k]);\n    }\n  }\n\n  function clearETH() public onlyOwner() {\n    address payable _owner = msg.sender;\n    _owner.transfer(address(this).balance);\n  }\n  function adminwithdrawtokens(IERC20 token, uint256 amount) public onlyOwner() {\n    token.transfer(msg.sender, amount);\n  }\n\n  fallback() external payable{\n}\n  receive() external payable {\n}\n\n\n}\n",
  "sourcePath": "/Users/trevor/SynLev/contracts/airdrop.sol",
  "compiler": {
    "name": "solc",
    "version": "0.6.12+commit.27d51765.Emscripten.clang"
  },
  "schemaVersion": "3.3.2",
  "updatedAt": "2020-12-31T01:10:05.862Z",
  "devdoc": {
    "kind": "dev",
    "methods": {},
    "version": 1
  },
  "userdoc": {
    "kind": "user",
    "methods": {},
    "version": 1
  }
}