{
  "contractName": "SynLevRouter",
  "abi": [
    {
      "inputs": [],
      "stateMutability": "nonpayable",
      "type": "constructor"
    },
    {
      "stateMutability": "payable",
      "type": "receive"
    },
    {
      "inputs": [
        {
          "internalType": "address payable",
          "name": "vault",
          "type": "address"
        },
        {
          "internalType": "uint256",
          "name": "minPrice",
          "type": "uint256"
        },
        {
          "internalType": "uint256",
          "name": "maxPrice",
          "type": "uint256"
        },
        {
          "internalType": "uint256",
          "name": "deadline",
          "type": "uint256"
        }
      ],
      "name": "buyBullTokens",
      "outputs": [],
      "stateMutability": "payable",
      "type": "function"
    },
    {
      "inputs": [
        {
          "internalType": "address",
          "name": "vault",
          "type": "address"
        },
        {
          "internalType": "uint256",
          "name": "amount",
          "type": "uint256"
        },
        {
          "internalType": "uint256",
          "name": "minPrice",
          "type": "uint256"
        },
        {
          "internalType": "uint256",
          "name": "maxPrice",
          "type": "uint256"
        },
        {
          "internalType": "uint256",
          "name": "deadline",
          "type": "uint256"
        }
      ],
      "name": "sellBullTokens",
      "outputs": [],
      "stateMutability": "nonpayable",
      "type": "function"
    },
    {
      "inputs": [
        {
          "internalType": "address payable",
          "name": "vault",
          "type": "address"
        },
        {
          "internalType": "uint256",
          "name": "minPrice",
          "type": "uint256"
        },
        {
          "internalType": "uint256",
          "name": "maxPrice",
          "type": "uint256"
        },
        {
          "internalType": "uint256",
          "name": "deadline",
          "type": "uint256"
        }
      ],
      "name": "buyBearTokens",
      "outputs": [],
      "stateMutability": "payable",
      "type": "function"
    },
    {
      "inputs": [
        {
          "internalType": "address",
          "name": "vault",
          "type": "address"
        },
        {
          "internalType": "uint256",
          "name": "amount",
          "type": "uint256"
        },
        {
          "internalType": "uint256",
          "name": "minPrice",
          "type": "uint256"
        },
        {
          "internalType": "uint256",
          "name": "maxPrice",
          "type": "uint256"
        },
        {
          "internalType": "uint256",
          "name": "deadline",
          "type": "uint256"
        }
      ],
      "name": "sellBearTokens",
      "outputs": [],
      "stateMutability": "nonpayable",
      "type": "function"
    }
  ],
  "bytecode": "0x608060405234801561001057600080fd5b50611187806100206000396000f3fe6080604052600436106100435760003560e01c80630a8f27801461004f5780635cf1b582146100b157806374f98bdc1461012a578063a04bbb77146101a35761004a565b3661004a57005b600080fd5b6100af6004803603608081101561006557600080fd5b81019080803573ffffffffffffffffffffffffffffffffffffffff169060200190929190803590602001909291908035906020019092919080359060200190929190505050610205565b005b3480156100bd57600080fd5b50610128600480360360a08110156100d457600080fd5b81019080803573ffffffffffffffffffffffffffffffffffffffff16906020019092919080359060200190929190803590602001909291908035906020019092919080359060200190929190505050610585565b005b34801561013657600080fd5b506101a1600480360360a081101561014d57600080fd5b81019080803573ffffffffffffffffffffffffffffffffffffffff16906020019092919080359060200190929190803590602001909291908035906020019092919080359060200190929190505050610998565b005b610203600480360360808110156101b957600080fd5b81019080803573ffffffffffffffffffffffffffffffffffffffff169060200190929190803590602001909291908035906020019092919080359060200190929190505050610dab565b005b804281101561027c576040517f08c379a00000000000000000000000000000000000000000000000000000000081526004018080602001828103825260158152602001807f53796e4c6576526f757465723a2045585049524544000000000000000000000081525060200191505060405180910390fd5b600085905060008173ffffffffffffffffffffffffffffffffffffffff16633ba5d96d6040518163ffffffff1660e01b815260040160206040518083038186803b1580156102c957600080fd5b505afa1580156102dd573d6000803e3d6000fd5b505050506040513d60208110156102f357600080fd5b810190808051906020019092919050505090508173ffffffffffffffffffffffffffffffffffffffff1663673a7e286040518163ffffffff1660e01b8152600401602060405180830381600087803b15801561034e57600080fd5b505af1158015610362573d6000803e3d6000fd5b505050506040513d602081101561037857600080fd5b81019080805190602001909291905050505060008273ffffffffffffffffffffffffffffffffffffffff1663d02641a0836040518263ffffffff1660e01b8152600401808273ffffffffffffffffffffffffffffffffffffffff16815260200191505060206040518083038186803b1580156103f357600080fd5b505afa158015610407573d6000803e3d6000fd5b505050506040513d602081101561041d57600080fd5b810190808051906020019092919050505090508681101580156104405750858111155b610495576040517f08c379a000000000000000000000000000000000000000000000000000000000815260040180806020018281038252602681526020018061112c6026913960400191505060405180910390fd5b8773ffffffffffffffffffffffffffffffffffffffff166108fc479081150290604051600060405180830381858888f193505050501580156104db573d6000803e3d6000fd5b508273ffffffffffffffffffffffffffffffffffffffff166347f958a783336040518363ffffffff1660e01b8152600401808373ffffffffffffffffffffffffffffffffffffffff1681526020018273ffffffffffffffffffffffffffffffffffffffff16815260200192505050600060405180830381600087803b15801561056357600080fd5b505af1158015610577573d6000803e3d6000fd5b505050505050505050505050565b80428110156105fc576040517f08c379a00000000000000000000000000000000000000000000000000000000081526004018080602001828103825260158152602001807f53796e4c6576526f757465723a2045585049524544000000000000000000000081525060200191505060405180910390fd5b600086905060008173ffffffffffffffffffffffffffffffffffffffff16633ba5d96d6040518163ffffffff1660e01b815260040160206040518083038186803b15801561064957600080fd5b505afa15801561065d573d6000803e3d6000fd5b505050506040513d602081101561067357600080fd5b810190808051906020019092919050505090508173ffffffffffffffffffffffffffffffffffffffff1663673a7e286040518163ffffffff1660e01b8152600401602060405180830381600087803b1580156106ce57600080fd5b505af11580156106e2573d6000803e3d6000fd5b505050506040513d60208110156106f857600080fd5b810190808051906020019092919050505050600081905060008373ffffffffffffffffffffffffffffffffffffffff1663d02641a0846040518263ffffffff1660e01b8152600401808273ffffffffffffffffffffffffffffffffffffffff16815260200191505060206040518083038186803b15801561077857600080fd5b505afa15801561078c573d6000803e3d6000fd5b505050506040513d60208110156107a257600080fd5b810190808051906020019092919050505090508781101580156107c55750868111155b61081a576040517f08c379a000000000000000000000000000000000000000000000000000000000815260040180806020018281038252602681526020018061112c6026913960400191505060405180910390fd5b8173ffffffffffffffffffffffffffffffffffffffff166323b872dd338c8c6040518463ffffffff1660e01b8152600401808473ffffffffffffffffffffffffffffffffffffffff1681526020018373ffffffffffffffffffffffffffffffffffffffff1681526020018281526020019350505050602060405180830381600087803b1580156108a957600080fd5b505af11580156108bd573d6000803e3d6000fd5b505050506040513d60208110156108d357600080fd5b81019080805190602001909291905050506108ed57600080fd5b8373ffffffffffffffffffffffffffffffffffffffff16633b252e1584336040518363ffffffff1660e01b8152600401808373ffffffffffffffffffffffffffffffffffffffff1681526020018273ffffffffffffffffffffffffffffffffffffffff16815260200192505050600060405180830381600087803b15801561097457600080fd5b505af1158015610988573d6000803e3d6000fd5b5050505050505050505050505050565b8042811015610a0f576040517f08c379a00000000000000000000000000000000000000000000000000000000081526004018080602001828103825260158152602001807f53796e4c6576526f757465723a2045585049524544000000000000000000000081525060200191505060405180910390fd5b600086905060008173ffffffffffffffffffffffffffffffffffffffff16635db214da6040518163ffffffff1660e01b815260040160206040518083038186803b158015610a5c57600080fd5b505afa158015610a70573d6000803e3d6000fd5b505050506040513d6020811015610a8657600080fd5b810190808051906020019092919050505090508173ffffffffffffffffffffffffffffffffffffffff1663673a7e286040518163ffffffff1660e01b8152600401602060405180830381600087803b158015610ae157600080fd5b505af1158015610af5573d6000803e3d6000fd5b505050506040513d6020811015610b0b57600080fd5b810190808051906020019092919050505050600081905060008373ffffffffffffffffffffffffffffffffffffffff1663d02641a0846040518263ffffffff1660e01b8152600401808273ffffffffffffffffffffffffffffffffffffffff16815260200191505060206040518083038186803b158015610b8b57600080fd5b505afa158015610b9f573d6000803e3d6000fd5b505050506040513d6020811015610bb557600080fd5b81019080805190602001909291905050509050878110158015610bd85750868111155b610c2d576040517f08c379a000000000000000000000000000000000000000000000000000000000815260040180806020018281038252602681526020018061112c6026913960400191505060405180910390fd5b8173ffffffffffffffffffffffffffffffffffffffff166323b872dd338c8c6040518463ffffffff1660e01b8152600401808473ffffffffffffffffffffffffffffffffffffffff1681526020018373ffffffffffffffffffffffffffffffffffffffff1681526020018281526020019350505050602060405180830381600087803b158015610cbc57600080fd5b505af1158015610cd0573d6000803e3d6000fd5b505050506040513d6020811015610ce657600080fd5b8101908080519060200190929190505050610d0057600080fd5b8373ffffffffffffffffffffffffffffffffffffffff16633b252e1584336040518363ffffffff1660e01b8152600401808373ffffffffffffffffffffffffffffffffffffffff1681526020018273ffffffffffffffffffffffffffffffffffffffff16815260200192505050600060405180830381600087803b158015610d8757600080fd5b505af1158015610d9b573d6000803e3d6000fd5b5050505050505050505050505050565b8042811015610e22576040517f08c379a00000000000000000000000000000000000000000000000000000000081526004018080602001828103825260158152602001807f53796e4c6576526f757465723a2045585049524544000000000000000000000081525060200191505060405180910390fd5b600085905060008173ffffffffffffffffffffffffffffffffffffffff16635db214da6040518163ffffffff1660e01b815260040160206040518083038186803b158015610e6f57600080fd5b505afa158015610e83573d6000803e3d6000fd5b505050506040513d6020811015610e9957600080fd5b810190808051906020019092919050505090508173ffffffffffffffffffffffffffffffffffffffff1663673a7e286040518163ffffffff1660e01b8152600401602060405180830381600087803b158015610ef457600080fd5b505af1158015610f08573d6000803e3d6000fd5b505050506040513d6020811015610f1e57600080fd5b81019080805190602001909291905050505060008273ffffffffffffffffffffffffffffffffffffffff1663d02641a0836040518263ffffffff1660e01b8152600401808273ffffffffffffffffffffffffffffffffffffffff16815260200191505060206040518083038186803b158015610f9957600080fd5b505afa158015610fad573d6000803e3d6000fd5b505050506040513d6020811015610fc357600080fd5b81019080805190602001909291905050509050868110158015610fe65750858111155b61103b576040517f08c379a000000000000000000000000000000000000000000000000000000000815260040180806020018281038252602681526020018061112c6026913960400191505060405180910390fd5b8773ffffffffffffffffffffffffffffffffffffffff166108fc479081150290604051600060405180830381858888f19350505050158015611081573d6000803e3d6000fd5b508273ffffffffffffffffffffffffffffffffffffffff166347f958a783336040518363ffffffff1660e01b8152600401808373ffffffffffffffffffffffffffffffffffffffff1681526020018273ffffffffffffffffffffffffffffffffffffffff16815260200192505050600060405180830381600087803b15801561110957600080fd5b505af115801561111d573d6000803e3d6000fd5b50505050505050505050505056fe53796e4c6576526f757465723a20544f4b454e205052494345204f5554204f462052414e4745a26469706673582212201347422a7f919c3e8e1fa7649eae1ac07fb36235411d50a29f8753f2d05bbaee64736f6c634300060c0033",
  "immutableReferences": {},
  "source": "//////////////////////////////////////////////////\n//SYNLEV ROUTER CONTRACT V 0.1.0\n//////////////////////////\n\npragma solidity >= 0.6.4;\n\nimport './interfaces/IERC20.sol';\n\ninterface vaultInterface {\n  function tokenBuy(address token, address account) external;\n  function tokenSell(address token, address payable account) external;\n  function updatePrice() external returns(bool);\n  function getTokenPrice(address token) external view returns(uint256);\n  function getBearToken() external view returns(address);\n  function getBullToken() external view returns(address);\n}\n\ncontract SynLevRouter {\n\n  constructor() public { }\n\n  modifier ensure(uint deadline) {\n    require(deadline >= block.timestamp, 'SynLevRouter: EXPIRED');\n    _;\n  }\n\n  receive() external payable {}\n\n  function buyBullTokens(\n    address payable vault,\n    uint256 minPrice,\n    uint256 maxPrice,\n    uint256 deadline\n  ) public payable ensure(deadline) {\n    vaultInterface ivault = vaultInterface(vault);\n    address token = ivault.getBullToken();\n    ivault.updatePrice();\n    uint256 price = ivault.getTokenPrice(token);\n    require(price >= minPrice && price <= maxPrice, 'SynLevRouter: TOKEN PRICE OUT OF RANGE');\n    vault.transfer(address(this).balance);\n    ivault.tokenBuy(token, msg.sender);\n  }\n\n  function sellBullTokens(\n    address vault,\n    uint256 amount,\n    uint256 minPrice,\n    uint256 maxPrice,\n    uint256 deadline\n  ) public ensure(deadline) {\n    vaultInterface ivault = vaultInterface(vault);\n    address token = ivault.getBullToken();\n    ivault.updatePrice();\n\n    IERC20 itoken = IERC20(token);\n    uint256 price = ivault.getTokenPrice(token);\n    require(price >= minPrice && price <= maxPrice, 'SynLevRouter: TOKEN PRICE OUT OF RANGE');\n    require(itoken.transferFrom(msg.sender, vault, amount));\n    ivault.tokenSell(token, msg.sender);\n  }\n\n  function buyBearTokens(\n    address payable vault,\n    uint256 minPrice,\n    uint256 maxPrice,\n    uint256 deadline\n  ) public payable ensure(deadline) {\n    vaultInterface ivault = vaultInterface(vault);\n    address token = ivault.getBearToken();\n    ivault.updatePrice();\n    uint256 price = ivault.getTokenPrice(token);\n    require(price >= minPrice && price <= maxPrice, 'SynLevRouter: TOKEN PRICE OUT OF RANGE');\n    vault.transfer(address(this).balance);\n    ivault.tokenBuy(token, msg.sender);\n  }\n\n  function sellBearTokens(\n    address vault,\n    uint256 amount,\n    uint256 minPrice,\n    uint256 maxPrice,\n    uint256 deadline\n  ) public ensure(deadline) {\n    vaultInterface ivault = vaultInterface(vault);\n    address token = ivault.getBearToken();\n    ivault.updatePrice();\n    IERC20 itoken = IERC20(token);\n    uint256 price = ivault.getTokenPrice(token);\n    require(price >= minPrice && price <= maxPrice, 'SynLevRouter: TOKEN PRICE OUT OF RANGE');\n    require(itoken.transferFrom(msg.sender, vault, amount));\n    ivault.tokenSell(token, msg.sender);\n  }\n\n\n\n}\n",
  "sourcePath": "/Users/trevor/SynLev/contracts/old/0.1.1/SynLevRouter.sol",
  "compiler": {
    "name": "solc",
    "version": "0.6.12+commit.27d51765.Emscripten.clang"
  },
  "schemaVersion": "3.3.2",
  "updatedAt": "2020-12-31T01:59:24.503Z",
  "devdoc": {
    "kind": "dev",
    "methods": {},
    "version": 1
  },
  "userdoc": {
    "kind": "user",
    "methods": {},
    "version": 1
  }
}