{
  "contractName": "synStaking",
  "abi": [
    {
      "inputs": [],
      "stateMutability": "nonpayable",
      "type": "constructor"
    },
    {
      "anonymous": false,
      "inputs": [
        {
          "indexed": true,
          "internalType": "address",
          "name": "previousOwner",
          "type": "address"
        },
        {
          "indexed": true,
          "internalType": "address",
          "name": "newOwner",
          "type": "address"
        }
      ],
      "name": "OwnershipTransferred",
      "type": "event"
    },
    {
      "anonymous": false,
      "inputs": [
        {
          "indexed": false,
          "internalType": "uint256",
          "name": "ethIn",
          "type": "uint256"
        },
        {
          "indexed": false,
          "internalType": "uint256",
          "name": "fpsTotal",
          "type": "uint256"
        },
        {
          "indexed": false,
          "internalType": "uint256",
          "name": "feesTotal",
          "type": "uint256"
        }
      ],
      "name": "feesIn",
      "type": "event"
    },
    {
      "anonymous": false,
      "inputs": [
        {
          "indexed": false,
          "internalType": "address",
          "name": "account",
          "type": "address"
        },
        {
          "indexed": false,
          "internalType": "uint256",
          "name": "ethOut",
          "type": "uint256"
        }
      ],
      "name": "userClaimEvent",
      "type": "event"
    },
    {
      "anonymous": false,
      "inputs": [
        {
          "indexed": false,
          "internalType": "address",
          "name": "account",
          "type": "address"
        },
        {
          "indexed": false,
          "internalType": "uint256",
          "name": "amount",
          "type": "uint256"
        }
      ],
      "name": "userStakeEvent",
      "type": "event"
    },
    {
      "anonymous": false,
      "inputs": [
        {
          "indexed": false,
          "internalType": "address",
          "name": "account",
          "type": "address"
        },
        {
          "indexed": false,
          "internalType": "uint256",
          "name": "amount",
          "type": "uint256"
        }
      ],
      "name": "userUnStakeEvent",
      "type": "event"
    },
    {
      "inputs": [],
      "name": "SYNTKN",
      "outputs": [
        {
          "internalType": "contract IERC20",
          "name": "",
          "type": "address"
        }
      ],
      "stateMutability": "view",
      "type": "function"
    },
    {
      "inputs": [],
      "name": "feesTotal",
      "outputs": [
        {
          "internalType": "uint256",
          "name": "",
          "type": "uint256"
        }
      ],
      "stateMutability": "view",
      "type": "function"
    },
    {
      "inputs": [],
      "name": "fpsTotal",
      "outputs": [
        {
          "internalType": "uint256",
          "name": "",
          "type": "uint256"
        }
      ],
      "stateMutability": "view",
      "type": "function"
    },
    {
      "inputs": [],
      "name": "owner",
      "outputs": [
        {
          "internalType": "address",
          "name": "",
          "type": "address"
        }
      ],
      "stateMutability": "view",
      "type": "function"
    },
    {
      "inputs": [],
      "name": "renounceOwnership",
      "outputs": [],
      "stateMutability": "nonpayable",
      "type": "function"
    },
    {
      "inputs": [],
      "name": "staking",
      "outputs": [
        {
          "internalType": "contract synStakingProxyInterface",
          "name": "",
          "type": "address"
        }
      ],
      "stateMutability": "view",
      "type": "function"
    },
    {
      "inputs": [],
      "name": "stakingActive",
      "outputs": [
        {
          "internalType": "bool",
          "name": "",
          "type": "bool"
        }
      ],
      "stateMutability": "view",
      "type": "function"
    },
    {
      "inputs": [],
      "name": "synStakingProxy",
      "outputs": [
        {
          "internalType": "address",
          "name": "",
          "type": "address"
        }
      ],
      "stateMutability": "view",
      "type": "function"
    },
    {
      "inputs": [],
      "name": "synTotal",
      "outputs": [
        {
          "internalType": "uint256",
          "name": "",
          "type": "uint256"
        }
      ],
      "stateMutability": "view",
      "type": "function"
    },
    {
      "inputs": [
        {
          "internalType": "address",
          "name": "newOwner",
          "type": "address"
        }
      ],
      "name": "transferOwnership",
      "outputs": [],
      "stateMutability": "nonpayable",
      "type": "function"
    },
    {
      "inputs": [
        {
          "internalType": "address",
          "name": "",
          "type": "address"
        }
      ],
      "name": "userStake",
      "outputs": [
        {
          "internalType": "uint256",
          "name": "syn",
          "type": "uint256"
        },
        {
          "internalType": "uint256",
          "name": "fpsEntered",
          "type": "uint256"
        }
      ],
      "stateMutability": "view",
      "type": "function"
    },
    {
      "stateMutability": "payable",
      "type": "receive"
    },
    {
      "inputs": [
        {
          "internalType": "uint256",
          "name": "amount",
          "type": "uint256"
        }
      ],
      "name": "stake",
      "outputs": [],
      "stateMutability": "nonpayable",
      "type": "function"
    },
    {
      "inputs": [
        {
          "internalType": "uint256",
          "name": "amount",
          "type": "uint256"
        }
      ],
      "name": "unstake",
      "outputs": [],
      "stateMutability": "nonpayable",
      "type": "function"
    },
    {
      "inputs": [],
      "name": "claimReward",
      "outputs": [],
      "stateMutability": "nonpayable",
      "type": "function"
    },
    {
      "inputs": [],
      "name": "updateTotals",
      "outputs": [],
      "stateMutability": "nonpayable",
      "type": "function"
    },
    {
      "inputs": [
        {
          "internalType": "uint256",
          "name": "amount",
          "type": "uint256"
        }
      ],
      "name": "emergencyRemove",
      "outputs": [],
      "stateMutability": "nonpayable",
      "type": "function"
    },
    {
      "inputs": [
        {
          "internalType": "address",
          "name": "account",
          "type": "address"
        }
      ],
      "name": "getUserRewards",
      "outputs": [
        {
          "internalType": "uint256",
          "name": "",
          "type": "uint256"
        }
      ],
      "stateMutability": "view",
      "type": "function"
    },
    {
      "inputs": [
        {
          "internalType": "bool",
          "name": "status",
          "type": "bool"
        }
      ],
      "name": "setStakingStatus",
      "outputs": [],
      "stateMutability": "nonpayable",
      "type": "function"
    },
    {
      "inputs": [
        {
          "internalType": "address",
          "name": "stakingProxy",
          "type": "address"
        }
      ],
      "name": "setStakingProxy",
      "outputs": [],
      "stateMutability": "nonpayable",
      "type": "function"
    }
  ],
  "bytecode": "0x608060405234801561001057600080fd5b5060006100216101c160201b60201c565b9050806000806101000a81548173ffffffffffffffffffffffffffffffffffffffff021916908373ffffffffffffffffffffffffffffffffffffffff1602179055508073ffffffffffffffffffffffffffffffffffffffff16600073ffffffffffffffffffffffffffffffffffffffff167f8be0079c531659141344cd1fd0a4f28419497f9722a3daafe3b4186f6b6457e060405160405180910390a350731695936d6a953df699c38ca21c2140d497c08bd9600160006101000a81548173ffffffffffffffffffffffffffffffffffffffff021916908373ffffffffffffffffffffffffffffffffffffffff1602179055507270f3e1147c03a1bb0caf80035b7c362d312119600260006101000a81548173ffffffffffffffffffffffffffffffffffffffff021916908373ffffffffffffffffffffffffffffffffffffffff1602179055507270f3e1147c03a1bb0caf80035b7c362d312119600360006101000a81548173ffffffffffffffffffffffffffffffffffffffff021916908373ffffffffffffffffffffffffffffffffffffffff1602179055506101c9565b600033905090565b611aab806101d86000396000f3fe6080604052600436106101185760003560e01c806368e5585d116100a0578063a6ac4b3511610064578063a6ac4b351461047f578063b88a802f146104ac578063b8bec6a0146104c3578063e40df15614610500578063f2fde38b1461052b5761011f565b806368e5585d1461032f5780636bf3f9e51461039b578063715018a6146103ec5780638da5cb5b14610403578063a694fc3a146104445761011f565b80632e17de78116100e75780632e17de78146102305780634cf088d91461026b5780635155b3ce146102ac5780635f8dda7f146102c3578063615543cb146102ee5761011f565b806301048eee14610124578063078b0fb71461014f578063141ac951146101b457806321172e5d146101ef5761011f565b3661011f57005b600080fd5b34801561013057600080fd5b5061013961057c565b6040518082815260200191505060405180910390f35b34801561015b57600080fd5b5061019e6004803603602081101561017257600080fd5b81019080803573ffffffffffffffffffffffffffffffffffffffff169060200190929190505050610582565b6040518082815260200191505060405180910390f35b3480156101c057600080fd5b506101ed600480360360208110156101d757600080fd5b8101908080359060200190929190505050610650565b005b3480156101fb57600080fd5b50610204610827565b604051808273ffffffffffffffffffffffffffffffffffffffff16815260200191505060405180910390f35b34801561023c57600080fd5b506102696004803603602081101561025357600080fd5b810190808035906020019092919050505061084d565b005b34801561027757600080fd5b50610280610a81565b604051808273ffffffffffffffffffffffffffffffffffffffff16815260200191505060405180910390f35b3480156102b857600080fd5b506102c1610aa7565b005b3480156102cf57600080fd5b506102d8610bbf565b6040518082815260200191505060405180910390f35b3480156102fa57600080fd5b50610303610bc5565b604051808273ffffffffffffffffffffffffffffffffffffffff16815260200191505060405180910390f35b34801561033b57600080fd5b5061037e6004803603602081101561035257600080fd5b81019080803573ffffffffffffffffffffffffffffffffffffffff169060200190929190505050610beb565b604051808381526020018281526020019250505060405180910390f35b3480156103a757600080fd5b506103ea600480360360208110156103be57600080fd5b81019080803573ffffffffffffffffffffffffffffffffffffffff169060200190929190505050610c0f565b005b3480156103f857600080fd5b50610401610d5c565b005b34801561040f57600080fd5b50610418610ee2565b604051808273ffffffffffffffffffffffffffffffffffffffff16815260200191505060405180910390f35b34801561045057600080fd5b5061047d6004803603602081101561046757600080fd5b8101908080359060200190929190505050610f0b565b005b34801561048b57600080fd5b5061049461115f565b60405180821515815260200191505060405180910390f35b3480156104b857600080fd5b506104c1611172565b005b3480156104cf57600080fd5b506104fe600480360360208110156104e657600080fd5b81019080803515159060200190929190505050611408565b005b34801561050c57600080fd5b506105156114ed565b6040518082815260200191505060405180910390f35b34801561053757600080fd5b5061057a6004803603602081101561054e57600080fd5b81019080803573ffffffffffffffffffffffffffffffffffffffff1690602001909291905050506114f3565b005b60055481565b6000610649670de0b6b3a764000061063b600860008673ffffffffffffffffffffffffffffffffffffffff1673ffffffffffffffffffffffffffffffffffffffff1681526020019081526020016000206000015461062d600860008873ffffffffffffffffffffffffffffffffffffffff1673ffffffffffffffffffffffffffffffffffffffff168152602001908152602001600020600101546004546116fe90919063ffffffff16565b61174890919063ffffffff16565b6117ce90919063ffffffff16565b9050919050565b80600860003373ffffffffffffffffffffffffffffffffffffffff1673ffffffffffffffffffffffffffffffffffffffff16815260200190815260200160002060000154101561069f57600080fd5b6106f481600860003373ffffffffffffffffffffffffffffffffffffffff1673ffffffffffffffffffffffffffffffffffffffff168152602001908152602001600020600001546116fe90919063ffffffff16565b600860003373ffffffffffffffffffffffffffffffffffffffff1673ffffffffffffffffffffffffffffffffffffffff1681526020019081526020016000206000018190555061074f816005546116fe90919063ffffffff16565b600581905550600160009054906101000a900473ffffffffffffffffffffffffffffffffffffffff1673ffffffffffffffffffffffffffffffffffffffff1663a9059cbb33836040518363ffffffff1660e01b8152600401808373ffffffffffffffffffffffffffffffffffffffff16815260200182815260200192505050602060405180830381600087803b1580156107e857600080fd5b505af11580156107fc573d6000803e3d6000fd5b505050506040513d602081101561081257600080fd5b81019080805190602001909291905050505050565b600260009054906101000a900473ffffffffffffffffffffffffffffffffffffffff1681565b80600860003373ffffffffffffffffffffffffffffffffffffffff1673ffffffffffffffffffffffffffffffffffffffff16815260200190815260200160002060000154101561089c57600080fd5b6108a4611172565b6108f981600860003373ffffffffffffffffffffffffffffffffffffffff1673ffffffffffffffffffffffffffffffffffffffff168152602001908152602001600020600001546116fe90919063ffffffff16565b600860003373ffffffffffffffffffffffffffffffffffffffff1673ffffffffffffffffffffffffffffffffffffffff16815260200190815260200160002060000181905550610954816005546116fe90919063ffffffff16565b600581905550600160009054906101000a900473ffffffffffffffffffffffffffffffffffffffff1673ffffffffffffffffffffffffffffffffffffffff1663a9059cbb33836040518363ffffffff1660e01b8152600401808373ffffffffffffffffffffffffffffffffffffffff16815260200182815260200192505050602060405180830381600087803b1580156109ed57600080fd5b505af1158015610a01573d6000803e3d6000fd5b505050506040513d6020811015610a1757600080fd5b8101908080519060200190929190505050507f545050507a8661192f1558da44995244c032c454c28dcad997401ab8cb3b304b3382604051808373ffffffffffffffffffffffffffffffffffffffff1681526020018281526020019250505060405180910390a150565b600360009054906101000a900473ffffffffffffffffffffffffffffffffffffffff1681565b6000610abe600654476116fe90919063ffffffff16565b9050600081118015610ad35750600060055414155b15610bbc576000610b09600554610afb670de0b6b3a76400008561174890919063ffffffff16565b6117ce90919063ffffffff16565b9050610b208160045461181890919063ffffffff16565b600481905550610b69610b58670de0b6b3a7640000610b4a6005548561174890919063ffffffff16565b6117ce90919063ffffffff16565b60065461181890919063ffffffff16565b6006819055507f916dfa9a5d1ae78d10d4087d714cf5f694e6d83e3a03c4985410df467cef6ca88260045460065460405180848152602001838152602001828152602001935050505060405180910390a1505b50565b60045481565b600160009054906101000a900473ffffffffffffffffffffffffffffffffffffffff1681565b60086020528060005260406000206000915090508060000154908060010154905082565b610c176118a0565b73ffffffffffffffffffffffffffffffffffffffff1660008054906101000a900473ffffffffffffffffffffffffffffffffffffffff1673ffffffffffffffffffffffffffffffffffffffff1614610cd7576040517f08c379a00000000000000000000000000000000000000000000000000000000081526004018080602001828103825260208152602001807f4f776e61626c653a2063616c6c6572206973206e6f7420746865206f776e657281525060200191505060405180910390fd5b80600260006101000a81548173ffffffffffffffffffffffffffffffffffffffff021916908373ffffffffffffffffffffffffffffffffffffffff16021790555080600360006101000a81548173ffffffffffffffffffffffffffffffffffffffff021916908373ffffffffffffffffffffffffffffffffffffffff16021790555050565b610d646118a0565b73ffffffffffffffffffffffffffffffffffffffff1660008054906101000a900473ffffffffffffffffffffffffffffffffffffffff1673ffffffffffffffffffffffffffffffffffffffff1614610e24576040517f08c379a00000000000000000000000000000000000000000000000000000000081526004018080602001828103825260208152602001807f4f776e61626c653a2063616c6c6572206973206e6f7420746865206f776e657281525060200191505060405180910390fd5b600073ffffffffffffffffffffffffffffffffffffffff1660008054906101000a900473ffffffffffffffffffffffffffffffffffffffff1673ffffffffffffffffffffffffffffffffffffffff167f8be0079c531659141344cd1fd0a4f28419497f9722a3daafe3b4186f6b6457e060405160405180910390a360008060006101000a81548173ffffffffffffffffffffffffffffffffffffffff021916908373ffffffffffffffffffffffffffffffffffffffff160217905550565b60008060009054906101000a900473ffffffffffffffffffffffffffffffffffffffff16905090565b600160009054906101000a900473ffffffffffffffffffffffffffffffffffffffff1673ffffffffffffffffffffffffffffffffffffffff166323b872dd3330846040518463ffffffff1660e01b8152600401808473ffffffffffffffffffffffffffffffffffffffff1681526020018373ffffffffffffffffffffffffffffffffffffffff1681526020018281526020019350505050602060405180830381600087803b158015610fbc57600080fd5b505af1158015610fd0573d6000803e3d6000fd5b505050506040513d6020811015610fe657600080fd5b810190808051906020019092919050505061100057600080fd5b611008611172565b61105d81600860003373ffffffffffffffffffffffffffffffffffffffff1673ffffffffffffffffffffffffffffffffffffffff1681526020019081526020016000206000015461181890919063ffffffff16565b600860003373ffffffffffffffffffffffffffffffffffffffff1673ffffffffffffffffffffffffffffffffffffffff16815260200190815260200160002060000181905550600454600860003373ffffffffffffffffffffffffffffffffffffffff1673ffffffffffffffffffffffffffffffffffffffff168152602001908152602001600020600101819055506111018160055461181890919063ffffffff16565b6005819055507f6bcf4e76c988bda6cf08a4f220579db4d6d16169ab326ccdb1c1e04f2acc7a7c3382604051808373ffffffffffffffffffffffffffffffffffffffff1681526020018281526020019250505060405180910390a150565b600760009054906101000a900460ff1681565b600760009054906101000a900460ff1680156111c757506000600260009054906101000a900473ffffffffffffffffffffffffffffffffffffffff1673ffffffffffffffffffffffffffffffffffffffff1631115b1561124f57600360009054906101000a900473ffffffffffffffffffffffffffffffffffffffff1673ffffffffffffffffffffffffffffffffffffffff16635e745fe36040518163ffffffff1660e01b8152600401600060405180830381600087803b15801561123657600080fd5b505af115801561124a573d6000803e3d6000fd5b505050505b611257610aa7565b6000600860003373ffffffffffffffffffffffffffffffffffffffff1673ffffffffffffffffffffffffffffffffffffffff168152602001908152602001600020600001541115611406576000600554600860003373ffffffffffffffffffffffffffffffffffffffff1673ffffffffffffffffffffffffffffffffffffffff1681526020019081526020016000206000015410156112fe576112f933610582565b611302565b6006545b9050600454600860003373ffffffffffffffffffffffffffffffffffffffff1673ffffffffffffffffffffffffffffffffffffffff16815260200190815260200160002060010181905550611362816006546116fe90919063ffffffff16565b6006819055503373ffffffffffffffffffffffffffffffffffffffff166108fc829081150290604051600060405180830381858888f193505050501580156113ae573d6000803e3d6000fd5b507fbe14eb59e3e469f750fb848a6c79218e4fdddfe055c6247f80e6d2913fc6715a3382604051808373ffffffffffffffffffffffffffffffffffffffff1681526020018281526020019250505060405180910390a1505b565b6114106118a0565b73ffffffffffffffffffffffffffffffffffffffff1660008054906101000a900473ffffffffffffffffffffffffffffffffffffffff1673ffffffffffffffffffffffffffffffffffffffff16146114d0576040517f08c379a00000000000000000000000000000000000000000000000000000000081526004018080602001828103825260208152602001807f4f776e61626c653a2063616c6c6572206973206e6f7420746865206f776e657281525060200191505060405180910390fd5b80600760006101000a81548160ff02191690831515021790555050565b60065481565b6114fb6118a0565b73ffffffffffffffffffffffffffffffffffffffff1660008054906101000a900473ffffffffffffffffffffffffffffffffffffffff1673ffffffffffffffffffffffffffffffffffffffff16146115bb576040517f08c379a00000000000000000000000000000000000000000000000000000000081526004018080602001828103825260208152602001807f4f776e61626c653a2063616c6c6572206973206e6f7420746865206f776e657281525060200191505060405180910390fd5b600073ffffffffffffffffffffffffffffffffffffffff168173ffffffffffffffffffffffffffffffffffffffff161415611641576040517f08c379a0000000000000000000000000000000000000000000000000000000008152600401808060200182810382526026815260200180611a2f6026913960400191505060405180910390fd5b8073ffffffffffffffffffffffffffffffffffffffff1660008054906101000a900473ffffffffffffffffffffffffffffffffffffffff1673ffffffffffffffffffffffffffffffffffffffff167f8be0079c531659141344cd1fd0a4f28419497f9722a3daafe3b4186f6b6457e060405160405180910390a3806000806101000a81548173ffffffffffffffffffffffffffffffffffffffff021916908373ffffffffffffffffffffffffffffffffffffffff16021790555050565b600061174083836040518060400160405280601e81526020017f536166654d6174683a207375627472616374696f6e206f766572666c6f7700008152506118a8565b905092915050565b60008083141561175b57600090506117c8565b600082840290508284828161176c57fe5b04146117c3576040517f08c379a0000000000000000000000000000000000000000000000000000000008152600401808060200182810382526021815260200180611a556021913960400191505060405180910390fd5b809150505b92915050565b600061181083836040518060400160405280601a81526020017f536166654d6174683a206469766973696f6e206279207a65726f000000000000815250611968565b905092915050565b600080828401905083811015611896576040517f08c379a000000000000000000000000000000000000000000000000000000000815260040180806020018281038252601b8152602001807f536166654d6174683a206164646974696f6e206f766572666c6f77000000000081525060200191505060405180910390fd5b8091505092915050565b600033905090565b6000838311158290611955576040517f08c379a00000000000000000000000000000000000000000000000000000000081526004018080602001828103825283818151815260200191508051906020019080838360005b8381101561191a5780820151818401526020810190506118ff565b50505050905090810190601f1680156119475780820380516001836020036101000a031916815260200191505b509250505060405180910390fd5b5060008385039050809150509392505050565b60008083118290611a14576040517f08c379a00000000000000000000000000000000000000000000000000000000081526004018080602001828103825283818151815260200191508051906020019080838360005b838110156119d95780820151818401526020810190506119be565b50505050905090810190601f168015611a065780820380516001836020036101000a031916815260200191505b509250505060405180910390fd5b506000838581611a2057fe5b04905080915050939250505056fe4f776e61626c653a206e6577206f776e657220697320746865207a65726f2061646472657373536166654d6174683a206d756c7469706c69636174696f6e206f766572666c6f77a264697066735822122025e3ae08232bef63193f4d1b3e5f14fbd910a46dbe8ef08a26e4f0bb947cee4664736f6c634300060c0033",
  "immutableReferences": {},
  "source": "pragma solidity >= 0.6.4;\n\nimport './ownable.sol';\nimport './libraries/SafeMath.sol';\nimport './interfaces/IERC20.sol';\n\ninterface synStakingProxyInterface {\n    function forwardfees() external;\n}\n\ncontract synStaking is Owned {\n  using SafeMath for uint256;\n\n  constructor() public {\n    SYNTKN = IERC20(0x1695936d6a953df699C38CA21c2140d497C08BD9);\n    synStakingProxy = 0x0070F3e1147c03a1Bb0caF80035B7c362D312119;\n    staking = synStakingProxyInterface(0x0070F3e1147c03a1Bb0caF80035B7c362D312119);\n  }\n\n  event feesIn(\n      uint256 ethIn,\n      uint256 fpsTotal,\n      uint256 feesTotal\n  );\n  event userStakeEvent(\n      address account,\n      uint256 amount\n  );\n  event userUnStakeEvent(\n      address account,\n      uint256 amount\n  );\n  event userClaimEvent(\n      address account,\n      uint256 ethOut\n  );\n\n  IERC20 public SYNTKN;\n  address public synStakingProxy;\n  synStakingProxyInterface public staking;\n\n  struct userStakeStruct {\n    uint256 syn;\n    uint256 fpsEntered;\n  }\n\n  uint256 public fpsTotal;\n  uint256 public synTotal;\n  uint256 public feesTotal;\n\n  bool public stakingActive;\n\n  mapping(address => userStakeStruct) public userStake;\n\n    receive() external payable {\n  }\n\n\n  function stake(uint256 amount) public {\n    require(SYNTKN.transferFrom(msg.sender, address(this), amount));\n    claimReward();\n    userStake[msg.sender].syn = userStake[msg.sender].syn.add(amount);\n    userStake[msg.sender].fpsEntered = fpsTotal;\n    synTotal = synTotal.add(amount);\n    emit userStakeEvent(msg.sender, amount);\n  }\n\n\n  function unstake(uint256 amount) public {\n    require(userStake[msg.sender].syn >= amount);\n    claimReward();\n    userStake[msg.sender].syn = userStake[msg.sender].syn.sub(amount);\n    synTotal = synTotal.sub(amount);\n    SYNTKN.transfer(msg.sender, amount);\n    emit userUnStakeEvent(msg.sender, amount);\n  }\n\n  function claimReward() public {\n    if(stakingActive && synStakingProxy.balance > 0) {\n        staking.forwardfees();\n    }\n    updateTotals();\n    if(userStake[msg.sender].syn > 0) {\n        uint256 ethOut = userStake[msg.sender].syn >= synTotal ?\n                feesTotal : getUserRewards(msg.sender);\n        userStake[msg.sender].fpsEntered = fpsTotal;\n        feesTotal = feesTotal.sub(ethOut);\n        msg.sender.transfer(ethOut);\n        emit userClaimEvent(msg.sender, ethOut);\n    }\n  }\n\n  function updateTotals() public {\n    uint256 ethIn = address(this).balance.sub(feesTotal);\n    if(ethIn > 0 && synTotal != 0) {\n        uint256 addFps = ethIn.mul(10**18).div(synTotal);\n        fpsTotal = fpsTotal.add(addFps);\n        feesTotal = feesTotal.add(addFps.mul(synTotal).div(10**18));\n        emit feesIn(ethIn, fpsTotal, feesTotal);\n    }\n  }\n\n  function emergencyRemove(uint256 amount) public {\n    require(userStake[msg.sender].syn >= amount);\n    userStake[msg.sender].syn = userStake[msg.sender].syn.sub(amount);\n    synTotal = synTotal.sub(amount);\n    SYNTKN.transfer(msg.sender, amount);\n  }\n\n  function getUserRewards(address account) public view returns(uint256) {\n      return(fpsTotal.sub(userStake[account].fpsEntered)\n                .mul(userStake[account].syn).div(10**18));\n  }\n\n  function setStakingStatus(bool status) public onlyOwner() {\n    stakingActive = status;\n  }\n  function setStakingProxy(address stakingProxy) public onlyOwner() {\n    synStakingProxy = stakingProxy;\n    staking = synStakingProxyInterface(stakingProxy);\n  }\n\n}\n",
  "sourcePath": "/Users/trevor/SynLev/contracts/live/synstaking.sol",
  "compiler": {
    "name": "solc",
    "version": "0.6.12+commit.27d51765.Emscripten.clang"
  },
  "schemaVersion": "3.3.2",
  "updatedAt": "2020-12-31T02:01:19.237Z",
  "devdoc": {
    "kind": "dev",
    "methods": {},
    "version": 1
  },
  "userdoc": {
    "kind": "user",
    "methods": {},
    "version": 1
  }
}