{
  "contractName": "synSales",
  "abi": [
    {
      "inputs": [],
      "stateMutability": "nonpayable",
      "type": "constructor"
    },
    {
      "anonymous": false,
      "inputs": [
        {
          "indexed": true,
          "internalType": "address",
          "name": "previousOwner",
          "type": "address"
        },
        {
          "indexed": true,
          "internalType": "address",
          "name": "newOwner",
          "type": "address"
        }
      ],
      "name": "OwnershipTransferred",
      "type": "event"
    },
    {
      "anonymous": false,
      "inputs": [
        {
          "indexed": false,
          "internalType": "address",
          "name": "account",
          "type": "address"
        },
        {
          "indexed": false,
          "internalType": "uint256",
          "name": "syn",
          "type": "uint256"
        },
        {
          "indexed": false,
          "internalType": "uint256",
          "name": "eth",
          "type": "uint256"
        },
        {
          "indexed": false,
          "internalType": "uint256",
          "name": "date",
          "type": "uint256"
        }
      ],
      "name": "userBuy",
      "type": "event"
    },
    {
      "anonymous": false,
      "inputs": [
        {
          "indexed": false,
          "internalType": "address",
          "name": "account",
          "type": "address"
        },
        {
          "indexed": false,
          "internalType": "uint256",
          "name": "syn",
          "type": "uint256"
        }
      ],
      "name": "userWithdraw",
      "type": "event"
    },
    {
      "inputs": [],
      "name": "SYN",
      "outputs": [
        {
          "internalType": "contract IERC20",
          "name": "",
          "type": "address"
        }
      ],
      "stateMutability": "view",
      "type": "function"
    },
    {
      "inputs": [],
      "name": "ethPaid",
      "outputs": [
        {
          "internalType": "uint256",
          "name": "",
          "type": "uint256"
        }
      ],
      "stateMutability": "view",
      "type": "function"
    },
    {
      "inputs": [],
      "name": "initPrice",
      "outputs": [
        {
          "internalType": "uint256",
          "name": "",
          "type": "uint256"
        }
      ],
      "stateMutability": "view",
      "type": "function"
    },
    {
      "inputs": [],
      "name": "maxETH",
      "outputs": [
        {
          "internalType": "uint256",
          "name": "",
          "type": "uint256"
        }
      ],
      "stateMutability": "view",
      "type": "function"
    },
    {
      "inputs": [],
      "name": "maxPriceInc",
      "outputs": [
        {
          "internalType": "uint256",
          "name": "",
          "type": "uint256"
        }
      ],
      "stateMutability": "view",
      "type": "function"
    },
    {
      "inputs": [],
      "name": "maxSYN",
      "outputs": [
        {
          "internalType": "uint256",
          "name": "",
          "type": "uint256"
        }
      ],
      "stateMutability": "view",
      "type": "function"
    },
    {
      "inputs": [],
      "name": "owner",
      "outputs": [
        {
          "internalType": "address",
          "name": "",
          "type": "address"
        }
      ],
      "stateMutability": "view",
      "type": "function"
    },
    {
      "inputs": [],
      "name": "renounceOwnership",
      "outputs": [],
      "stateMutability": "nonpayable",
      "type": "function"
    },
    {
      "inputs": [],
      "name": "synSold",
      "outputs": [
        {
          "internalType": "uint256",
          "name": "",
          "type": "uint256"
        }
      ],
      "stateMutability": "view",
      "type": "function"
    },
    {
      "inputs": [
        {
          "internalType": "address",
          "name": "newOwner",
          "type": "address"
        }
      ],
      "name": "transferOwnership",
      "outputs": [],
      "stateMutability": "nonpayable",
      "type": "function"
    },
    {
      "inputs": [
        {
          "internalType": "address",
          "name": "",
          "type": "address"
        },
        {
          "internalType": "uint256",
          "name": "",
          "type": "uint256"
        }
      ],
      "name": "userBuys",
      "outputs": [
        {
          "internalType": "uint256",
          "name": "syn",
          "type": "uint256"
        },
        {
          "internalType": "uint256",
          "name": "date",
          "type": "uint256"
        },
        {
          "internalType": "bool",
          "name": "withdrawn",
          "type": "bool"
        }
      ],
      "stateMutability": "view",
      "type": "function"
    },
    {
      "inputs": [
        {
          "internalType": "address",
          "name": "",
          "type": "address"
        }
      ],
      "name": "userNonce",
      "outputs": [
        {
          "internalType": "uint256",
          "name": "",
          "type": "uint256"
        }
      ],
      "stateMutability": "view",
      "type": "function"
    },
    {
      "inputs": [
        {
          "internalType": "uint256",
          "name": "maxPrice",
          "type": "uint256"
        }
      ],
      "name": "buy",
      "outputs": [],
      "stateMutability": "payable",
      "type": "function"
    },
    {
      "inputs": [
        {
          "internalType": "uint256[]",
          "name": "nonces",
          "type": "uint256[]"
        }
      ],
      "name": "withdraw",
      "outputs": [
        {
          "internalType": "uint256",
          "name": "",
          "type": "uint256"
        }
      ],
      "stateMutability": "nonpayable",
      "type": "function"
    },
    {
      "inputs": [
        {
          "internalType": "uint256",
          "name": "eth",
          "type": "uint256"
        }
      ],
      "name": "getBuyPrice",
      "outputs": [
        {
          "internalType": "uint256",
          "name": "",
          "type": "uint256"
        }
      ],
      "stateMutability": "view",
      "type": "function"
    },
    {
      "inputs": [
        {
          "internalType": "contract IERC20",
          "name": "token",
          "type": "address"
        },
        {
          "internalType": "uint256",
          "name": "amount",
          "type": "uint256"
        }
      ],
      "name": "tokenremove",
      "outputs": [],
      "stateMutability": "nonpayable",
      "type": "function"
    },
    {
      "inputs": [],
      "name": "ethremove",
      "outputs": [],
      "stateMutability": "nonpayable",
      "type": "function"
    }
  ],
  "bytecode": "0x60806040523480156200001157600080fd5b50600062000024620001e760201b60201c565b9050806000806101000a81548173ffffffffffffffffffffffffffffffffffffffff021916908373ffffffffffffffffffffffffffffffffffffffff1602179055508073ffffffffffffffffffffffffffffffffffffffff16600073ffffffffffffffffffffffffffffffffffffffff167f8be0079c531659141344cd1fd0a4f28419497f9722a3daafe3b4186f6b6457e060405160405180910390a350731695936d6a953df699c38ca21c2140d497c08bd9600160006101000a81548173ffffffffffffffffffffffffffffffffffffffff021916908373ffffffffffffffffffffffffffffffffffffffff1602179055506a01a784379d99db42000000600281905550660397662b5b640060048190555066071afd498d0000600581905550620001db62000188671bc16d674ec8000062000174600554600254620001ef60201b620013911790919060201c565b6200027a60201b620014171790919060201c565b620001c7670de0b6b3a7640000620001b3600454600254620001ef60201b620013911790919060201c565b6200027a60201b620014171790919060201c565b620002cc60201b620014611790919060201c565b60038190555062000420565b600033905090565b60008083141562000204576000905062000274565b60008284029050828482816200021657fe5b04146200026f576040517f08c379a000000000000000000000000000000000000000000000000000000000815260040180806020018281038252602181526020018062001a646021913960400191505060405180910390fd5b809150505b92915050565b6000620002c483836040518060400160405280601a81526020017f536166654d6174683a206469766973696f6e206279207a65726f0000000000008152506200035560201b60201c565b905092915050565b6000808284019050838110156200034b576040517f08c379a000000000000000000000000000000000000000000000000000000000815260040180806020018281038252601b8152602001807f536166654d6174683a206164646974696f6e206f766572666c6f77000000000081525060200191505060405180910390fd5b8091505092915050565b6000808311829062000405576040517f08c379a00000000000000000000000000000000000000000000000000000000081526004018080602001828103825283818151815260200191508051906020019080838360005b83811015620003c9578082015181840152602081019050620003ac565b50505050905090810190601f168015620003f75780820380516001836020036101000a031916815260200191505b509250505060405180910390fd5b5060008385816200041257fe5b049050809150509392505050565b61163480620004306000396000f3fe6080604052600436106100fe5760003560e01c806390ed1bca11610095578063cb75839c11610064578063cb75839c14610447578063d96a094a146104c6578063e71bfbeb146104f4578063f2fde38b1461051f578063f92e0c8c14610570576100fe565b806390ed1bca146102a7578063983d95ce14610302578063b6add0f4146103db578063b878b86c14610406576100fe565b8063715018a6116100d1578063715018a61461020d5780637ab29c3b146102245780637bf8f0fc1461024f5780638da5cb5b14610266576100fe565b806302814b861461010357806308d4db141461012e5780632dca37271461017d5780632e04b8e7146101a8575b600080fd5b34801561010f57600080fd5b5061011861059b565b6040518082815260200191505060405180910390f35b34801561013a57600080fd5b506101676004803603602081101561015157600080fd5b81019080803590602001909291905050506105a1565b6040518082815260200191505060405180910390f35b34801561018957600080fd5b50610192610655565b6040518082815260200191505060405180910390f35b3480156101b457600080fd5b506101f7600480360360208110156101cb57600080fd5b81019080803573ffffffffffffffffffffffffffffffffffffffff16906020019092919050505061065b565b6040518082815260200191505060405180910390f35b34801561021957600080fd5b50610222610673565b005b34801561023057600080fd5b506102396107f9565b6040518082815260200191505060405180910390f35b34801561025b57600080fd5b506102646107ff565b005b34801561027257600080fd5b5061027b610916565b604051808273ffffffffffffffffffffffffffffffffffffffff16815260200191505060405180910390f35b3480156102b357600080fd5b50610300600480360360408110156102ca57600080fd5b81019080803573ffffffffffffffffffffffffffffffffffffffff1690602001909291908035906020019092919050505061093f565b005b34801561030e57600080fd5b506103c56004803603602081101561032557600080fd5b810190808035906020019064010000000081111561034257600080fd5b82018360208201111561035457600080fd5b8035906020019184602083028401116401000000008311171561037657600080fd5b919080806020026020016040519081016040528093929190818152602001838360200280828437600081840152601f19601f820116905080830192505050505050509192919290505050610b13565b6040518082815260200191505060405180910390f35b3480156103e757600080fd5b506103f0610e52565b6040518082815260200191505060405180910390f35b34801561041257600080fd5b5061041b610e58565b604051808273ffffffffffffffffffffffffffffffffffffffff16815260200191505060405180910390f35b34801561045357600080fd5b506104a06004803603604081101561046a57600080fd5b81019080803573ffffffffffffffffffffffffffffffffffffffff16906020019092919080359060200190929190505050610e7e565b604051808481526020018381526020018215158152602001935050505060405180910390f35b6104f2600480360360208110156104dc57600080fd5b8101908080359060200190929190505050610ec2565b005b34801561050057600080fd5b5061050961117a565b6040518082815260200191505060405180910390f35b34801561052b57600080fd5b5061056e6004803603602081101561054257600080fd5b81019080803573ffffffffffffffffffffffffffffffffffffffff169060200190929190505050611180565b005b34801561057c57600080fd5b5061058561138b565b6040518082815260200191505060405180910390f35b60035481565b6000806105cf6003546105c160055460095461139190919063ffffffff16565b61141790919063ffffffff16565b905060006106106003546106026005546105f48860095461146190919063ffffffff16565b61139190919063ffffffff16565b61141790919063ffffffff16565b905061064c60045461063e6002610630858761146190919063ffffffff16565b61141790919063ffffffff16565b61146190919063ffffffff16565b92505050919050565b60025481565b60066020528060005260406000206000915090505481565b61067b6114e9565b73ffffffffffffffffffffffffffffffffffffffff1660008054906101000a900473ffffffffffffffffffffffffffffffffffffffff1673ffffffffffffffffffffffffffffffffffffffff161461073b576040517f08c379a00000000000000000000000000000000000000000000000000000000081526004018080602001828103825260208152602001807f4f776e61626c653a2063616c6c6572206973206e6f7420746865206f776e657281525060200191505060405180910390fd5b600073ffffffffffffffffffffffffffffffffffffffff1660008054906101000a900473ffffffffffffffffffffffffffffffffffffffff1673ffffffffffffffffffffffffffffffffffffffff167f8be0079c531659141344cd1fd0a4f28419497f9722a3daafe3b4186f6b6457e060405160405180910390a360008060006101000a81548173ffffffffffffffffffffffffffffffffffffffff021916908373ffffffffffffffffffffffffffffffffffffffff160217905550565b60085481565b6108076114e9565b73ffffffffffffffffffffffffffffffffffffffff1660008054906101000a900473ffffffffffffffffffffffffffffffffffffffff1673ffffffffffffffffffffffffffffffffffffffff16146108c7576040517f08c379a00000000000000000000000000000000000000000000000000000000081526004018080602001828103825260208152602001807f4f776e61626c653a2063616c6c6572206973206e6f7420746865206f776e657281525060200191505060405180910390fd5b60003390508073ffffffffffffffffffffffffffffffffffffffff166108fc479081150290604051600060405180830381858888f19350505050158015610912573d6000803e3d6000fd5b5050565b60008060009054906101000a900473ffffffffffffffffffffffffffffffffffffffff16905090565b6109476114e9565b73ffffffffffffffffffffffffffffffffffffffff1660008054906101000a900473ffffffffffffffffffffffffffffffffffffffff1673ffffffffffffffffffffffffffffffffffffffff1614610a07576040517f08c379a00000000000000000000000000000000000000000000000000000000081526004018080602001828103825260208152602001807f4f776e61626c653a2063616c6c6572206973206e6f7420746865206f776e657281525060200191505060405180910390fd5b600160009054906101000a900473ffffffffffffffffffffffffffffffffffffffff1673ffffffffffffffffffffffffffffffffffffffff168273ffffffffffffffffffffffffffffffffffffffff161415610a6257600080fd5b8173ffffffffffffffffffffffffffffffffffffffff1663a9059cbb33836040518363ffffffff1660e01b8152600401808373ffffffffffffffffffffffffffffffffffffffff16815260200182815260200192505050602060405180830381600087803b158015610ad357600080fd5b505af1158015610ae7573d6000803e3d6000fd5b505050506040513d6020811015610afd57600080fd5b8101908080519060200190929190505050505050565b600080600090505b8251811015610e495742600760003373ffffffffffffffffffffffffffffffffffffffff1673ffffffffffffffffffffffffffffffffffffffff1681526020019081526020016000206000858481518110610b7257fe5b602002602001015181526020019081526020016000206001015411158015610c0157506000600760003373ffffffffffffffffffffffffffffffffffffffff1673ffffffffffffffffffffffffffffffffffffffff1681526020019081526020016000206000858481518110610be457fe5b602002602001015181526020019081526020016000206001015414155b15610e3c5760001515600760003373ffffffffffffffffffffffffffffffffffffffff1673ffffffffffffffffffffffffffffffffffffffff1681526020019081526020016000206000858481518110610c5757fe5b6020026020010151815260200190815260200160002060020160009054906101000a900460ff1615151415610e3b576001600760003373ffffffffffffffffffffffffffffffffffffffff1673ffffffffffffffffffffffffffffffffffffffff1681526020019081526020016000206000858481518110610cd557fe5b6020026020010151815260200190815260200160002060020160006101000a81548160ff021916908315150217905550600160009054906101000a900473ffffffffffffffffffffffffffffffffffffffff1673ffffffffffffffffffffffffffffffffffffffff1663a9059cbb33600760003373ffffffffffffffffffffffffffffffffffffffff1673ffffffffffffffffffffffffffffffffffffffff1681526020019081526020016000206000878681518110610d9157fe5b60200260200101518152602001908152602001600020600001546040518363ffffffff1660e01b8152600401808373ffffffffffffffffffffffffffffffffffffffff16815260200182815260200192505050602060405180830381600087803b158015610dfe57600080fd5b505af1158015610e12573d6000803e3d6000fd5b505050506040513d6020811015610e2857600080fd5b8101908080519060200190929190505050505b5b8080600101915050610b1b565b50429050919050565b60045481565b600160009054906101000a900473ffffffffffffffffffffffffffffffffffffffff1681565b6007602052816000526040600020602052806000526040600020600091509150508060000154908060010154908060020160009054906101000a900460ff16905083565b60003411610ecf57600080fd5b60003490506000610edf826105a1565b905080831015610eee57600080fd5b6000610f1d82610f0f670de0b6b3a76400008661139190919063ffffffff16565b61141790919063ffffffff16565b90506000610f3762093a804261146190919063ffffffff16565b905081600760003373ffffffffffffffffffffffffffffffffffffffff1673ffffffffffffffffffffffffffffffffffffffff1681526020019081526020016000206000600660003373ffffffffffffffffffffffffffffffffffffffff1673ffffffffffffffffffffffffffffffffffffffff1681526020019081526020016000205481526020019081526020016000206000018190555080600760003373ffffffffffffffffffffffffffffffffffffffff1673ffffffffffffffffffffffffffffffffffffffff1681526020019081526020016000206000600660003373ffffffffffffffffffffffffffffffffffffffff1673ffffffffffffffffffffffffffffffffffffffff1681526020019081526020016000205481526020019081526020016000206001018190555061107c8260085461146190919063ffffffff16565b600254101561108a57600080fd5b61109f8260085461146190919063ffffffff16565b6008819055506110ba8460095461146190919063ffffffff16565b6009819055506001600660003373ffffffffffffffffffffffffffffffffffffffff1673ffffffffffffffffffffffffffffffffffffffff168152602001908152602001600020600082825401925050819055507f73d3b891254b1708d399ee05c85cd4b6aa3c18b8763b42578939b98be8ffbb7633838684604051808573ffffffffffffffffffffffffffffffffffffffff16815260200184815260200183815260200182815260200194505050505060405180910390a15050505050565b60095481565b6111886114e9565b73ffffffffffffffffffffffffffffffffffffffff1660008054906101000a900473ffffffffffffffffffffffffffffffffffffffff1673ffffffffffffffffffffffffffffffffffffffff1614611248576040517f08c379a00000000000000000000000000000000000000000000000000000000081526004018080602001828103825260208152602001807f4f776e61626c653a2063616c6c6572206973206e6f7420746865206f776e657281525060200191505060405180910390fd5b600073ffffffffffffffffffffffffffffffffffffffff168173ffffffffffffffffffffffffffffffffffffffff1614156112ce576040517f08c379a00000000000000000000000000000000000000000000000000000000081526004018080602001828103825260268152602001806115b86026913960400191505060405180910390fd5b8073ffffffffffffffffffffffffffffffffffffffff1660008054906101000a900473ffffffffffffffffffffffffffffffffffffffff1673ffffffffffffffffffffffffffffffffffffffff167f8be0079c531659141344cd1fd0a4f28419497f9722a3daafe3b4186f6b6457e060405160405180910390a3806000806101000a81548173ffffffffffffffffffffffffffffffffffffffff021916908373ffffffffffffffffffffffffffffffffffffffff16021790555050565b60055481565b6000808314156113a45760009050611411565b60008284029050828482816113b557fe5b041461140c576040517f08c379a00000000000000000000000000000000000000000000000000000000081526004018080602001828103825260218152602001806115de6021913960400191505060405180910390fd5b809150505b92915050565b600061145983836040518060400160405280601a81526020017f536166654d6174683a206469766973696f6e206279207a65726f0000000000008152506114f1565b905092915050565b6000808284019050838110156114df576040517f08c379a000000000000000000000000000000000000000000000000000000000815260040180806020018281038252601b8152602001807f536166654d6174683a206164646974696f6e206f766572666c6f77000000000081525060200191505060405180910390fd5b8091505092915050565b600033905090565b6000808311829061159d576040517f08c379a00000000000000000000000000000000000000000000000000000000081526004018080602001828103825283818151815260200191508051906020019080838360005b83811015611562578082015181840152602081019050611547565b50505050905090810190601f16801561158f5780820380516001836020036101000a031916815260200191505b509250505060405180910390fd5b5060008385816115a957fe5b04905080915050939250505056fe4f776e61626c653a206e6577206f776e657220697320746865207a65726f2061646472657373536166654d6174683a206d756c7469706c69636174696f6e206f766572666c6f77a26469706673582212207b7eaf53ca83c44d071aa14e57434e54d9a8a9920ca8af5bf5e8ca6fae9c401f64736f6c634300060c0033536166654d6174683a206d756c7469706c69636174696f6e206f766572666c6f77",
  "immutableReferences": {},
  "source": "pragma solidity >= 0.6.4;\n\nimport './ownable.sol';\nimport './libraries/SafeMath.sol';\nimport './interfaces/IERC20.sol';\n\ncontract synSales is Owned {\n  using SafeMath for uint256;\n\n  constructor() public {\n    SYN = IERC20(0x1695936d6a953df699C38CA21c2140d497C08BD9);\n    maxSYN = 2 * 10**6 * 10**18;\n    initPrice = 101089 * 10**10;\n    maxPriceInc = 2 * 10**15;\n    maxETH = maxSYN.mul(initPrice).div(10**18)\n              .add(maxSYN.mul(maxPriceInc).div(2 * 10**18));\n  }\n\n  event userBuy(\n      address account,\n      uint256 syn,\n      uint256 eth,\n      uint256 date\n  );\n  event userWithdraw(\n      address account,\n      uint256 syn\n  );\n\n  struct buyStruct {\n    uint256 syn;\n    uint256 date;\n    bool withdrawn;\n  }\n\n  IERC20 public SYN;\n  uint256 public maxSYN;\n  uint256 public maxETH;\n  uint256 public initPrice;\n  uint256 public maxPriceInc;\n\n  mapping(address => uint256) public userNonce;\n  mapping(address => mapping(uint256 => buyStruct)) public userBuys;\n\n  uint256 public synSold;\n  uint256 public ethPaid;\n\n  function buy(uint256 maxPrice) public payable {\n    require(msg.value > 0);\n    uint256 eth = msg.value;\n    uint256 buyPrice = getBuyPrice(eth);\n    require(maxPrice >= buyPrice);\n    uint256 syn = eth.mul(1 ether).div(buyPrice);\n    uint256 date = block.timestamp.add(1 weeks);\n    userBuys[msg.sender][userNonce[msg.sender]].syn = syn;\n    userBuys[msg.sender][userNonce[msg.sender]].date = date;\n\n    require(maxSYN >= synSold.add(syn));\n    synSold = synSold.add(syn);\n    ethPaid = ethPaid.add(eth);\n\n    userNonce[msg.sender] += 1;\n\n    emit userBuy(msg.sender, syn, eth, date);\n  }\n\n  function withdraw(uint256[] memory nonces) public returns(uint256) {\n    for(uint256 i = 0; i < nonces.length; i++) {\n      if(userBuys[msg.sender][nonces[i]].date <= block.timestamp && userBuys[msg.sender][nonces[i]].date != 0){\n        if(userBuys[msg.sender][nonces[i]].withdrawn == false){\n          userBuys[msg.sender][nonces[i]].withdrawn = true;\n          SYN.transfer(msg.sender, userBuys[msg.sender][nonces[i]].syn);\n        }\n      }\n    }\n    return(block.timestamp);\n  }\n\n  function getBuyPrice(uint256 eth) public view returns(uint256) {\n    uint256 p1 = ethPaid.mul(maxPriceInc).div(maxETH);\n    uint256 p2 = ethPaid.add(eth).mul(maxPriceInc).div(maxETH);\n    return(p1.add(p2).div(2).add(initPrice));\n  }\n\n  function tokenremove(IERC20 token, uint256 amount) public onlyOwner() {\n    require(token != SYN);\n    token.transfer(msg.sender, amount);\n  }\n\n  function ethremove() public onlyOwner() {\n    address payable owner = msg.sender;\n    owner.transfer(address(this).balance);\n  }\n\n}\n",
  "sourcePath": "/Users/trevor/SynLev/contracts/live/synsales.sol",
  "compiler": {
    "name": "solc",
    "version": "0.6.12+commit.27d51765.Emscripten.clang"
  },
  "schemaVersion": "3.3.2",
  "updatedAt": "2020-12-31T02:01:19.228Z",
  "devdoc": {
    "kind": "dev",
    "methods": {},
    "version": 1
  },
  "userdoc": {
    "kind": "user",
    "methods": {},
    "version": 1
  }
}