{
  "contractName": "SYNStakingCotract",
  "abi": [
    {
      "anonymous": false,
      "inputs": [
        {
          "indexed": false,
          "internalType": "address",
          "name": "account",
          "type": "address"
        },
        {
          "indexed": false,
          "internalType": "uint256",
          "name": "resultingSyn",
          "type": "uint256"
        },
        {
          "indexed": false,
          "internalType": "uint256",
          "name": "resultingEth",
          "type": "uint256"
        }
      ],
      "name": "CloseStake",
      "type": "event"
    },
    {
      "anonymous": false,
      "inputs": [
        {
          "indexed": false,
          "internalType": "address",
          "name": "account",
          "type": "address"
        },
        {
          "indexed": false,
          "internalType": "uint256",
          "name": "synIn",
          "type": "uint256"
        },
        {
          "indexed": false,
          "internalType": "uint256",
          "name": "resultingShares",
          "type": "uint256"
        }
      ],
      "name": "OpenStake",
      "type": "event"
    },
    {
      "anonymous": false,
      "inputs": [
        {
          "indexed": true,
          "internalType": "address",
          "name": "previousOwner",
          "type": "address"
        },
        {
          "indexed": true,
          "internalType": "address",
          "name": "newOwner",
          "type": "address"
        }
      ],
      "name": "OwnershipTransferred",
      "type": "event"
    },
    {
      "inputs": [],
      "name": "owner",
      "outputs": [
        {
          "internalType": "address",
          "name": "",
          "type": "address"
        }
      ],
      "stateMutability": "view",
      "type": "function"
    },
    {
      "inputs": [],
      "name": "renounceOwnership",
      "outputs": [],
      "stateMutability": "nonpayable",
      "type": "function"
    },
    {
      "inputs": [],
      "name": "totalShares",
      "outputs": [
        {
          "internalType": "uint256",
          "name": "",
          "type": "uint256"
        }
      ],
      "stateMutability": "view",
      "type": "function"
    },
    {
      "inputs": [
        {
          "internalType": "address",
          "name": "newOwner",
          "type": "address"
        }
      ],
      "name": "transferOwnership",
      "outputs": [],
      "stateMutability": "nonpayable",
      "type": "function"
    },
    {
      "inputs": [
        {
          "internalType": "address",
          "name": "",
          "type": "address"
        }
      ],
      "name": "userSYN",
      "outputs": [
        {
          "internalType": "uint256",
          "name": "",
          "type": "uint256"
        }
      ],
      "stateMutability": "view",
      "type": "function"
    },
    {
      "inputs": [
        {
          "internalType": "address",
          "name": "",
          "type": "address"
        }
      ],
      "name": "userShares",
      "outputs": [
        {
          "internalType": "uint256",
          "name": "",
          "type": "uint256"
        }
      ],
      "stateMutability": "view",
      "type": "function"
    },
    {
      "stateMutability": "payable",
      "type": "receive"
    },
    {
      "inputs": [
        {
          "internalType": "uint256",
          "name": "amount",
          "type": "uint256"
        }
      ],
      "name": "addStakingTokens",
      "outputs": [],
      "stateMutability": "nonpayable",
      "type": "function"
    },
    {
      "inputs": [],
      "name": "removeStakingTokens",
      "outputs": [],
      "stateMutability": "nonpayable",
      "type": "function"
    },
    {
      "inputs": [],
      "name": "claimStakedEth",
      "outputs": [],
      "stateMutability": "nonpayable",
      "type": "function"
    },
    {
      "inputs": [],
      "name": "getSharePrice",
      "outputs": [
        {
          "internalType": "uint256",
          "name": "",
          "type": "uint256"
        }
      ],
      "stateMutability": "view",
      "type": "function"
    }
  ],
  "bytecode": "0x608060405234801561001057600080fd5b5060006100216100c460201b60201c565b9050806000806101000a81548173ffffffffffffffffffffffffffffffffffffffff021916908373ffffffffffffffffffffffffffffffffffffffff1602179055508073ffffffffffffffffffffffffffffffffffffffff16600073ffffffffffffffffffffffffffffffffffffffff167f8be0079c531659141344cd1fd0a4f28419497f9722a3daafe3b4186f6b6457e060405160405180910390a3506100cc565b600033905090565b611200806100db6000396000f3fe6080604052600436106100955760003560e01c80638da5cb5b116100595780638da5cb5b1461018a578063d061af17146101cb578063d127932d146101e2578063de69b3aa1461021d578063f2fde38b146102825761009c565b80631fcedd01146100a15780632148407e146100b85780633a98ef391461011d5780635b1dac6014610148578063715018a6146101735761009c565b3661009c57005b600080fd5b3480156100ad57600080fd5b506100b66102d3565b005b3480156100c457600080fd5b50610107600480360360208110156100db57600080fd5b81019080803573ffffffffffffffffffffffffffffffffffffffff16906020019092919050505061067e565b6040518082815260200191505060405180910390f35b34801561012957600080fd5b50610132610696565b6040518082815260200191505060405180910390f35b34801561015457600080fd5b5061015d61069c565b6040518082815260200191505060405180910390f35b34801561017f57600080fd5b506101886107b4565b005b34801561019657600080fd5b5061019f61093a565b604051808273ffffffffffffffffffffffffffffffffffffffff16815260200191505060405180910390f35b3480156101d757600080fd5b506101e0610963565b005b3480156101ee57600080fd5b5061021b6004803603602081101561020557600080fd5b8101908080359060200190929190505050610965565b005b34801561022957600080fd5b5061026c6004803603602081101561024057600080fd5b81019080803573ffffffffffffffffffffffffffffffffffffffff169060200190929190505050610c30565b6040518082815260200191505060405180910390f35b34801561028e57600080fd5b506102d1600480360360208110156102a557600080fd5b81019080803573ffffffffffffffffffffffffffffffffffffffff169060200190929190505050610c48565b005b60003390506000600360008373ffffffffffffffffffffffffffffffffffffffff1673ffffffffffffffffffffffffffffffffffffffff168152602001908152602001600020541161032457600080fd5b60006103ea600260008473ffffffffffffffffffffffffffffffffffffffff1673ffffffffffffffffffffffffffffffffffffffff168152602001908152602001600020546103dc670de0b6b3a76400006103ce61038061069c565b600360008973ffffffffffffffffffffffffffffffffffffffff1673ffffffffffffffffffffffffffffffffffffffff16815260200190815260200160002054610e5390919063ffffffff16565b610ed990919063ffffffff16565b610f2390919063ffffffff16565b90506000600260003373ffffffffffffffffffffffffffffffffffffffff1673ffffffffffffffffffffffffffffffffffffffff168152602001908152602001600020549050610484600360008573ffffffffffffffffffffffffffffffffffffffff1673ffffffffffffffffffffffffffffffffffffffff16815260200190815260200160002054600154610f2390919063ffffffff16565b6001819055506000600360008573ffffffffffffffffffffffffffffffffffffffff1673ffffffffffffffffffffffffffffffffffffffff168152602001908152602001600020819055506000600260008573ffffffffffffffffffffffffffffffffffffffff1673ffffffffffffffffffffffffffffffffffffffff168152602001908152602001600020819055508273ffffffffffffffffffffffffffffffffffffffff166108fc839081150290604051600060405180830381858888f1935050505015801561055a573d6000803e3d6000fd5b5073a36085f69e2889c224210f603d836748e7dc008873ffffffffffffffffffffffffffffffffffffffff1663a9059cbb84836040518363ffffffff1660e01b8152600401808373ffffffffffffffffffffffffffffffffffffffff16815260200182815260200192505050602060405180830381600087803b1580156105e057600080fd5b505af11580156105f4573d6000803e3d6000fd5b505050506040513d602081101561060a57600080fd5b8101908080519060200190929190505050507f7712eab9bace2a6db4db50e391a24280d3a83952dfa3067d0f5894a1acead372338284604051808473ffffffffffffffffffffffffffffffffffffffff168152602001838152602001828152602001935050505060405180910390a1505050565b60026020528060005260406000206000915090505481565b60015481565b60008060015414156106b857670de0b6b3a764000090506107b1565b6107ae6001546107a0670de0b6b3a764000061079273a36085f69e2889c224210f603d836748e7dc008873ffffffffffffffffffffffffffffffffffffffff166370a08231306040518263ffffffff1660e01b8152600401808273ffffffffffffffffffffffffffffffffffffffff16815260200191505060206040518083038186803b15801561074857600080fd5b505afa15801561075c573d6000803e3d6000fd5b505050506040513d602081101561077257600080fd5b810190808051906020019092919050505047610f6d90919063ffffffff16565b610e5390919063ffffffff16565b610ed990919063ffffffff16565b90505b90565b6107bc610ff5565b73ffffffffffffffffffffffffffffffffffffffff1660008054906101000a900473ffffffffffffffffffffffffffffffffffffffff1673ffffffffffffffffffffffffffffffffffffffff161461087c576040517f08c379a00000000000000000000000000000000000000000000000000000000081526004018080602001828103825260208152602001807f4f776e61626c653a2063616c6c6572206973206e6f7420746865206f776e657281525060200191505060405180910390fd5b600073ffffffffffffffffffffffffffffffffffffffff1660008054906101000a900473ffffffffffffffffffffffffffffffffffffffff1673ffffffffffffffffffffffffffffffffffffffff167f8be0079c531659141344cd1fd0a4f28419497f9722a3daafe3b4186f6b6457e060405160405180910390a360008060006101000a81548173ffffffffffffffffffffffffffffffffffffffff021916908373ffffffffffffffffffffffffffffffffffffffff160217905550565b60008060009054906101000a900473ffffffffffffffffffffffffffffffffffffffff16905090565b565b600061096f61069c565b905060006109a082610992670de0b6b3a764000086610e5390919063ffffffff16565b610ed990919063ffffffff16565b905073a36085f69e2889c224210f603d836748e7dc008873ffffffffffffffffffffffffffffffffffffffff166323b872dd3330866040518463ffffffff1660e01b8152600401808473ffffffffffffffffffffffffffffffffffffffff1681526020018373ffffffffffffffffffffffffffffffffffffffff1681526020018281526020019350505050602060405180830381600087803b158015610a4557600080fd5b505af1158015610a59573d6000803e3d6000fd5b505050506040513d6020811015610a6f57600080fd5b8101908080519060200190929190505050610a8957600080fd5b610a9e81600154610f6d90919063ffffffff16565b600181905550610af681600360003373ffffffffffffffffffffffffffffffffffffffff1673ffffffffffffffffffffffffffffffffffffffff16815260200190815260200160002054610f6d90919063ffffffff16565b600360003373ffffffffffffffffffffffffffffffffffffffff1673ffffffffffffffffffffffffffffffffffffffff16815260200190815260200160002081905550610b8b83600260003373ffffffffffffffffffffffffffffffffffffffff1673ffffffffffffffffffffffffffffffffffffffff16815260200190815260200160002054610f6d90919063ffffffff16565b600260003373ffffffffffffffffffffffffffffffffffffffff1673ffffffffffffffffffffffffffffffffffffffff168152602001908152602001600020819055507fc64641deba7da92ddbaa4bd3568d9977b98863f832b30cd290cb5f9327a51681338483604051808473ffffffffffffffffffffffffffffffffffffffff168152602001838152602001828152602001935050505060405180910390a1505050565b60036020528060005260406000206000915090505481565b610c50610ff5565b73ffffffffffffffffffffffffffffffffffffffff1660008054906101000a900473ffffffffffffffffffffffffffffffffffffffff1673ffffffffffffffffffffffffffffffffffffffff1614610d10576040517f08c379a00000000000000000000000000000000000000000000000000000000081526004018080602001828103825260208152602001807f4f776e61626c653a2063616c6c6572206973206e6f7420746865206f776e657281525060200191505060405180910390fd5b600073ffffffffffffffffffffffffffffffffffffffff168173ffffffffffffffffffffffffffffffffffffffff161415610d96576040517f08c379a00000000000000000000000000000000000000000000000000000000081526004018080602001828103825260268152602001806111846026913960400191505060405180910390fd5b8073ffffffffffffffffffffffffffffffffffffffff1660008054906101000a900473ffffffffffffffffffffffffffffffffffffffff1673ffffffffffffffffffffffffffffffffffffffff167f8be0079c531659141344cd1fd0a4f28419497f9722a3daafe3b4186f6b6457e060405160405180910390a3806000806101000a81548173ffffffffffffffffffffffffffffffffffffffff021916908373ffffffffffffffffffffffffffffffffffffffff16021790555050565b600080831415610e665760009050610ed3565b6000828402905082848281610e7757fe5b0414610ece576040517f08c379a00000000000000000000000000000000000000000000000000000000081526004018080602001828103825260218152602001806111aa6021913960400191505060405180910390fd5b809150505b92915050565b6000610f1b83836040518060400160405280601a81526020017f536166654d6174683a206469766973696f6e206279207a65726f000000000000815250610ffd565b905092915050565b6000610f6583836040518060400160405280601e81526020017f536166654d6174683a207375627472616374696f6e206f766572666c6f7700008152506110c3565b905092915050565b600080828401905083811015610feb576040517f08c379a000000000000000000000000000000000000000000000000000000000815260040180806020018281038252601b8152602001807f536166654d6174683a206164646974696f6e206f766572666c6f77000000000081525060200191505060405180910390fd5b8091505092915050565b600033905090565b600080831182906110a9576040517f08c379a00000000000000000000000000000000000000000000000000000000081526004018080602001828103825283818151815260200191508051906020019080838360005b8381101561106e578082015181840152602081019050611053565b50505050905090810190601f16801561109b5780820380516001836020036101000a031916815260200191505b509250505060405180910390fd5b5060008385816110b557fe5b049050809150509392505050565b6000838311158290611170576040517f08c379a00000000000000000000000000000000000000000000000000000000081526004018080602001828103825283818151815260200191508051906020019080838360005b8381101561113557808201518184015260208101905061111a565b50505050905090810190601f1680156111625780820380516001836020036101000a031916815260200191505b509250505060405180910390fd5b506000838503905080915050939250505056fe4f776e61626c653a206e6577206f776e657220697320746865207a65726f2061646472657373536166654d6174683a206d756c7469706c69636174696f6e206f766572666c6f77a26469706673582212205a7ac038dee540068f3db70fda9e65b9be2cca44c3f4c6296ba89e9fa1deb3f164736f6c634300060c0033",
  "immutableReferences": {},
  "source": "pragma solidity >= 0.6.4;\n\nimport './ownable.sol';\nimport './libraries/SafeMath.sol';\nimport './interfaces/IERC20.sol';\n\ncontract SYNStakingCotract is Owned {\n  using SafeMath for uint256;\n\n  event OpenStake(\n    address account,\n    uint256 synIn,\n    uint256 resultingShares\n  );\n  event CloseStake(\n    address account,\n    uint256 resultingSyn,\n    uint256 resultingEth\n  );\n\n  //USING TESTNET LINK AS SYN TOKEN\n  IERC20 constant synToken = IERC20(0xa36085F69e2889c224210F603D836748e7dC0088);\n\n  uint256 public totalShares;\n  mapping(address => uint256) public userSYN;\n  mapping(address => uint256) public userShares;\n\n  receive() external payable {}\n\n\n  function addStakingTokens(uint256 amount) public {\n    uint256 sharePrice = getSharePrice();\n    uint256 resultingShares = amount.mul(10**18).div(sharePrice);\n    require(synToken.transferFrom(msg.sender, address(this), amount));\n    totalShares = totalShares.add(resultingShares);\n    userShares[msg.sender] = userShares[msg.sender].add(resultingShares);\n    userSYN[msg.sender] = userSYN[msg.sender].add(amount);\n    emit OpenStake(msg.sender, amount, resultingShares);\n  }\n\n  function removeStakingTokens() public {\n    address payable account = msg.sender;\n    require(userShares[account] > 0);\n    uint256 resultingEth = userShares[account].mul(getSharePrice()).div(10**18).sub(userSYN[account]);\n    uint256 resultingSyn = userSYN[msg.sender];\n\n    totalShares = totalShares.sub(userShares[account]);\n\n    userShares[account] = 0;\n    userSYN[account] = 0;\n\n    account.transfer(resultingEth);\n    synToken.transfer(account, resultingSyn);\n\n    emit CloseStake(msg.sender, resultingSyn, resultingEth);\n  }\n\n  function claimStakedEth() public {\n    //TODO\n  }\n  function getSharePrice() public view returns(uint256) {\n    if(totalShares == 0) {\n      return(10**18);\n    }\n    else {\n      return(address(this).balance.add(synToken.balanceOf(address(this))).mul(10**18).div(totalShares));\n    }\n  }\n\n}\n",
  "sourcePath": "/Users/trevor/SynLev/contracts/old/0.1.1/SYNStakingContract.sol",
  "compiler": {
    "name": "solc",
    "version": "0.6.12+commit.27d51765.Emscripten.clang"
  },
  "schemaVersion": "3.3.2",
  "updatedAt": "2020-12-31T01:59:24.495Z",
  "devdoc": {
    "kind": "dev",
    "methods": {},
    "version": 1
  },
  "userdoc": {
    "kind": "user",
    "methods": {},
    "version": 1
  }
}