{
  "contractName": "uniV2Staking",
  "abi": [
    {
      "inputs": [],
      "stateMutability": "nonpayable",
      "type": "constructor"
    },
    {
      "anonymous": false,
      "inputs": [
        {
          "indexed": true,
          "internalType": "address",
          "name": "previousOwner",
          "type": "address"
        },
        {
          "indexed": true,
          "internalType": "address",
          "name": "newOwner",
          "type": "address"
        }
      ],
      "name": "OwnershipTransferred",
      "type": "event"
    },
    {
      "anonymous": false,
      "inputs": [
        {
          "indexed": false,
          "internalType": "uint256",
          "name": "ethIn",
          "type": "uint256"
        },
        {
          "indexed": false,
          "internalType": "uint256",
          "name": "fpuTotal",
          "type": "uint256"
        },
        {
          "indexed": false,
          "internalType": "uint256",
          "name": "feesTotal",
          "type": "uint256"
        }
      ],
      "name": "feesIn",
      "type": "event"
    },
    {
      "anonymous": false,
      "inputs": [
        {
          "indexed": false,
          "internalType": "address",
          "name": "account",
          "type": "address"
        },
        {
          "indexed": false,
          "internalType": "uint256",
          "name": "ethOut",
          "type": "uint256"
        }
      ],
      "name": "userClaimEvent",
      "type": "event"
    },
    {
      "anonymous": false,
      "inputs": [
        {
          "indexed": false,
          "internalType": "address",
          "name": "account",
          "type": "address"
        },
        {
          "indexed": false,
          "internalType": "uint256",
          "name": "amount",
          "type": "uint256"
        }
      ],
      "name": "userStakeEvent",
      "type": "event"
    },
    {
      "anonymous": false,
      "inputs": [
        {
          "indexed": false,
          "internalType": "address",
          "name": "account",
          "type": "address"
        },
        {
          "indexed": false,
          "internalType": "uint256",
          "name": "amount",
          "type": "uint256"
        }
      ],
      "name": "userUnStakeEvent",
      "type": "event"
    },
    {
      "inputs": [],
      "name": "feesTotal",
      "outputs": [
        {
          "internalType": "uint256",
          "name": "",
          "type": "uint256"
        }
      ],
      "stateMutability": "view",
      "type": "function",
      "constant": true
    },
    {
      "inputs": [],
      "name": "fpuTotal",
      "outputs": [
        {
          "internalType": "uint256",
          "name": "",
          "type": "uint256"
        }
      ],
      "stateMutability": "view",
      "type": "function",
      "constant": true
    },
    {
      "inputs": [],
      "name": "owner",
      "outputs": [
        {
          "internalType": "address",
          "name": "",
          "type": "address"
        }
      ],
      "stateMutability": "view",
      "type": "function",
      "constant": true
    },
    {
      "inputs": [],
      "name": "renounceOwnership",
      "outputs": [],
      "stateMutability": "nonpayable",
      "type": "function"
    },
    {
      "inputs": [
        {
          "internalType": "address",
          "name": "",
          "type": "address"
        }
      ],
      "name": "stakedSyn",
      "outputs": [
        {
          "internalType": "uint256",
          "name": "",
          "type": "uint256"
        }
      ],
      "stateMutability": "view",
      "type": "function",
      "constant": true
    },
    {
      "inputs": [],
      "name": "synStaking",
      "outputs": [
        {
          "internalType": "contract synStakingInterface",
          "name": "",
          "type": "address"
        }
      ],
      "stateMutability": "view",
      "type": "function",
      "constant": true
    },
    {
      "inputs": [],
      "name": "synToken",
      "outputs": [
        {
          "internalType": "contract IERC20",
          "name": "",
          "type": "address"
        }
      ],
      "stateMutability": "view",
      "type": "function",
      "constant": true
    },
    {
      "inputs": [
        {
          "internalType": "address",
          "name": "newOwner",
          "type": "address"
        }
      ],
      "name": "transferOwnership",
      "outputs": [],
      "stateMutability": "nonpayable",
      "type": "function"
    },
    {
      "inputs": [],
      "name": "uniV2Token",
      "outputs": [
        {
          "internalType": "contract IERC20",
          "name": "",
          "type": "address"
        }
      ],
      "stateMutability": "view",
      "type": "function",
      "constant": true
    },
    {
      "inputs": [],
      "name": "uniV2TotalStaked",
      "outputs": [
        {
          "internalType": "uint256",
          "name": "",
          "type": "uint256"
        }
      ],
      "stateMutability": "view",
      "type": "function",
      "constant": true
    },
    {
      "inputs": [
        {
          "internalType": "address",
          "name": "",
          "type": "address"
        }
      ],
      "name": "userStake",
      "outputs": [
        {
          "internalType": "uint256",
          "name": "uniV2Tokens",
          "type": "uint256"
        },
        {
          "internalType": "uint256",
          "name": "fpuEntered",
          "type": "uint256"
        }
      ],
      "stateMutability": "view",
      "type": "function",
      "constant": true
    },
    {
      "stateMutability": "payable",
      "type": "receive",
      "payable": true
    },
    {
      "inputs": [
        {
          "internalType": "uint256",
          "name": "amount",
          "type": "uint256"
        }
      ],
      "name": "stake",
      "outputs": [],
      "stateMutability": "nonpayable",
      "type": "function"
    },
    {
      "inputs": [
        {
          "internalType": "uint256",
          "name": "amount",
          "type": "uint256"
        }
      ],
      "name": "unstake",
      "outputs": [],
      "stateMutability": "nonpayable",
      "type": "function"
    },
    {
      "inputs": [],
      "name": "claimReward",
      "outputs": [],
      "stateMutability": "nonpayable",
      "type": "function"
    },
    {
      "inputs": [],
      "name": "updateTotals",
      "outputs": [],
      "stateMutability": "nonpayable",
      "type": "function"
    },
    {
      "inputs": [
        {
          "internalType": "uint256",
          "name": "amount",
          "type": "uint256"
        }
      ],
      "name": "emergencyRemove",
      "outputs": [],
      "stateMutability": "nonpayable",
      "type": "function"
    },
    {
      "inputs": [
        {
          "internalType": "address",
          "name": "account",
          "type": "address"
        }
      ],
      "name": "getUserRewards",
      "outputs": [
        {
          "internalType": "uint256",
          "name": "",
          "type": "uint256"
        }
      ],
      "stateMutability": "view",
      "type": "function",
      "constant": true
    },
    {
      "inputs": [
        {
          "internalType": "uint256",
          "name": "amount",
          "type": "uint256"
        }
      ],
      "name": "stakeSyn",
      "outputs": [],
      "stateMutability": "nonpayable",
      "type": "function"
    },
    {
      "inputs": [
        {
          "internalType": "uint256",
          "name": "amount",
          "type": "uint256"
        }
      ],
      "name": "unstakeSyn",
      "outputs": [],
      "stateMutability": "nonpayable",
      "type": "function"
    },
    {
      "inputs": [
        {
          "internalType": "uint256",
          "name": "amount",
          "type": "uint256"
        }
      ],
      "name": "emergencyRemoveSyn",
      "outputs": [],
      "stateMutability": "nonpayable",
      "type": "function"
    },
    {
      "inputs": [
        {
          "internalType": "address",
          "name": "_synStaking",
          "type": "address"
        }
      ],
      "name": "setSynStaking",
      "outputs": [],
      "stateMutability": "nonpayable",
      "type": "function"
    }
  ],
  "bytecode": "0x608060405234801561001057600080fd5b5060006100216101c360201b60201c565b9050806000806101000a81548173ffffffffffffffffffffffffffffffffffffffff021916908373ffffffffffffffffffffffffffffffffffffffff1602179055508073ffffffffffffffffffffffffffffffffffffffff16600073ffffffffffffffffffffffffffffffffffffffff167f8be0079c531659141344cd1fd0a4f28419497f9722a3daafe3b4186f6b6457e060405160405180910390a350731695936d6a953df699c38ca21c2140d497c08bd9600160006101000a81548173ffffffffffffffffffffffffffffffffffffffff021916908373ffffffffffffffffffffffffffffffffffffffff16021790555073df27a38946a1ace50601ef4e10f07a9cc90d7231600260006101000a81548173ffffffffffffffffffffffffffffffffffffffff021916908373ffffffffffffffffffffffffffffffffffffffff16021790555073f21c4f3a748f38a0b244f649d19fdcc55678f576600360006101000a81548173ffffffffffffffffffffffffffffffffffffffff021916908373ffffffffffffffffffffffffffffffffffffffff1602179055506101cb565b600033905090565b61227b806101da6000396000f3fe60806040526004361061012e5760003560e01c80636d52ecb0116100ab5780638da5cb5b1161006f5780638da5cb5b146104ee578063a694fc3a1461052f578063b88a802f1461056a578063daf7a15714610581578063e40df156146105c2578063f2fde38b146105ed57610135565b80636d52ecb0146103df578063715018a614610420578063768b73ea14610437578063801a28e9146104725780638d4ef83b146104b357610135565b80632e17de78116100f25780632e17de78146102bb5780632e1ec9b6146102f65780633faf7bb8146103315780635155b3ce1461035c57806368e5585d1461037357610135565b8063078b0fb71461013a578063080e17981461019f578063141ac951146102045780632912d7121461023f5780632c39afca1461026a57610135565b3661013557005b600080fd5b34801561014657600080fd5b506101896004803603602081101561015d57600080fd5b81019080803573ffffffffffffffffffffffffffffffffffffffff16906020019092919050505061063e565b6040518082815260200191505060405180910390f35b3480156101ab57600080fd5b506101ee600480360360208110156101c257600080fd5b81019080803573ffffffffffffffffffffffffffffffffffffffff16906020019092919050505061070c565b6040518082815260200191505060405180910390f35b34801561021057600080fd5b5061023d6004803603602081101561022757600080fd5b8101908080359060200190929190505050610724565b005b34801561024b57600080fd5b506102546108fb565b6040518082815260200191505060405180910390f35b34801561027657600080fd5b506102b96004803603602081101561028d57600080fd5b81019080803573ffffffffffffffffffffffffffffffffffffffff169060200190929190505050610901565b005b3480156102c757600080fd5b506102f4600480360360208110156102de57600080fd5b8101908080359060200190929190505050610a0d565b005b34801561030257600080fd5b5061032f6004803603602081101561031957600080fd5b8101908080359060200190929190505050610c41565b005b34801561033d57600080fd5b50610346610fff565b6040518082815260200191505060405180910390f35b34801561036857600080fd5b50610371611005565b005b34801561037f57600080fd5b506103c26004803603602081101561039657600080fd5b81019080803573ffffffffffffffffffffffffffffffffffffffff16906020019092919050505061111d565b604051808381526020018281526020019250505060405180910390f35b3480156103eb57600080fd5b506103f4611141565b604051808273ffffffffffffffffffffffffffffffffffffffff16815260200191505060405180910390f35b34801561042c57600080fd5b50610435611167565b005b34801561044357600080fd5b506104706004803603602081101561045a57600080fd5b81019080803590602001909291905050506112ed565b005b34801561047e57600080fd5b50610487611553565b604051808273ffffffffffffffffffffffffffffffffffffffff16815260200191505060405180910390f35b3480156104bf57600080fd5b506104ec600480360360208110156104d657600080fd5b8101908080359060200190929190505050611579565b005b3480156104fa57600080fd5b506105036117df565b604051808273ffffffffffffffffffffffffffffffffffffffff16815260200191505060405180910390f35b34801561053b57600080fd5b506105686004803603602081101561055257600080fd5b8101908080359060200190929190505050611808565b005b34801561057657600080fd5b5061057f611a5c565b005b34801561058d57600080fd5b50610596611c97565b604051808273ffffffffffffffffffffffffffffffffffffffff16815260200191505060405180910390f35b3480156105ce57600080fd5b506105d7611cbd565b6040518082815260200191505060405180910390f35b3480156105f957600080fd5b5061063c6004803603602081101561061057600080fd5b81019080803573ffffffffffffffffffffffffffffffffffffffff169060200190929190505050611cc3565b005b6000610705670de0b6b3a76400006106f7600460008673ffffffffffffffffffffffffffffffffffffffff1673ffffffffffffffffffffffffffffffffffffffff168152602001908152602001600020600001546106e9600460008873ffffffffffffffffffffffffffffffffffffffff1673ffffffffffffffffffffffffffffffffffffffff16815260200190815260200160002060010154600754611ece90919063ffffffff16565b611f1890919063ffffffff16565b611f9e90919063ffffffff16565b9050919050565b60056020528060005260406000206000915090505481565b80600460003373ffffffffffffffffffffffffffffffffffffffff1673ffffffffffffffffffffffffffffffffffffffff16815260200190815260200160002060000154101561077357600080fd5b6107c881600460003373ffffffffffffffffffffffffffffffffffffffff1673ffffffffffffffffffffffffffffffffffffffff16815260200190815260200160002060000154611ece90919063ffffffff16565b600460003373ffffffffffffffffffffffffffffffffffffffff1673ffffffffffffffffffffffffffffffffffffffff1681526020019081526020016000206000018190555061082381600654611ece90919063ffffffff16565b600681905550600260009054906101000a900473ffffffffffffffffffffffffffffffffffffffff1673ffffffffffffffffffffffffffffffffffffffff1663a9059cbb33836040518363ffffffff1660e01b8152600401808373ffffffffffffffffffffffffffffffffffffffff16815260200182815260200192505050602060405180830381600087803b1580156108bc57600080fd5b505af11580156108d0573d6000803e3d6000fd5b505050506040513d60208110156108e657600080fd5b81019080805190602001909291905050505050565b60075481565b610909611fe8565b73ffffffffffffffffffffffffffffffffffffffff1660008054906101000a900473ffffffffffffffffffffffffffffffffffffffff1673ffffffffffffffffffffffffffffffffffffffff16146109c9576040517f08c379a00000000000000000000000000000000000000000000000000000000081526004018080602001828103825260208152602001807f4f776e61626c653a2063616c6c6572206973206e6f7420746865206f776e657281525060200191505060405180910390fd5b80600360006101000a81548173ffffffffffffffffffffffffffffffffffffffff021916908373ffffffffffffffffffffffffffffffffffffffff16021790555050565b80600460003373ffffffffffffffffffffffffffffffffffffffff1673ffffffffffffffffffffffffffffffffffffffff168152602001908152602001600020600001541015610a5c57600080fd5b610a64611a5c565b610ab981600460003373ffffffffffffffffffffffffffffffffffffffff1673ffffffffffffffffffffffffffffffffffffffff16815260200190815260200160002060000154611ece90919063ffffffff16565b600460003373ffffffffffffffffffffffffffffffffffffffff1673ffffffffffffffffffffffffffffffffffffffff16815260200190815260200160002060000181905550610b1481600654611ece90919063ffffffff16565b600681905550600260009054906101000a900473ffffffffffffffffffffffffffffffffffffffff1673ffffffffffffffffffffffffffffffffffffffff1663a9059cbb33836040518363ffffffff1660e01b8152600401808373ffffffffffffffffffffffffffffffffffffffff16815260200182815260200192505050602060405180830381600087803b158015610bad57600080fd5b505af1158015610bc1573d6000803e3d6000fd5b505050506040513d6020811015610bd757600080fd5b8101908080519060200190929190505050507f545050507a8661192f1558da44995244c032c454c28dcad997401ab8cb3b304b3382604051808373ffffffffffffffffffffffffffffffffffffffff1681526020018281526020019250505060405180910390a150565b6000600160009054906101000a900473ffffffffffffffffffffffffffffffffffffffff1673ffffffffffffffffffffffffffffffffffffffff166370a08231306040518263ffffffff1660e01b8152600401808273ffffffffffffffffffffffffffffffffffffffff16815260200191505060206040518083038186803b158015610ccc57600080fd5b505afa158015610ce0573d6000803e3d6000fd5b505050506040513d6020811015610cf657600080fd5b81019080805190602001909291905050509050600160009054906101000a900473ffffffffffffffffffffffffffffffffffffffff1673ffffffffffffffffffffffffffffffffffffffff166323b872dd3330856040518463ffffffff1660e01b8152600401808473ffffffffffffffffffffffffffffffffffffffff1681526020018373ffffffffffffffffffffffffffffffffffffffff1681526020018281526020019350505050602060405180830381600087803b158015610dba57600080fd5b505af1158015610dce573d6000803e3d6000fd5b505050506040513d6020811015610de457600080fd5b8101908080519060200190929190505050610dfe57600080fd5b6000610ed682600160009054906101000a900473ffffffffffffffffffffffffffffffffffffffff1673ffffffffffffffffffffffffffffffffffffffff166370a08231306040518263ffffffff1660e01b8152600401808273ffffffffffffffffffffffffffffffffffffffff16815260200191505060206040518083038186803b158015610e8d57600080fd5b505afa158015610ea1573d6000803e3d6000fd5b505050506040513d6020811015610eb757600080fd5b8101908080519060200190929190505050611ece90919063ffffffff16565b9050600360009054906101000a900473ffffffffffffffffffffffffffffffffffffffff1673ffffffffffffffffffffffffffffffffffffffff1663a694fc3a826040518263ffffffff1660e01b815260040180828152602001915050600060405180830381600087803b158015610f4d57600080fd5b505af1158015610f61573d6000803e3d6000fd5b50505050610fb781600560003373ffffffffffffffffffffffffffffffffffffffff1673ffffffffffffffffffffffffffffffffffffffff16815260200190815260200160002054611ff090919063ffffffff16565b600560003373ffffffffffffffffffffffffffffffffffffffff1673ffffffffffffffffffffffffffffffffffffffff16815260200190815260200160002081905550505050565b60065481565b600061101c60085447611ece90919063ffffffff16565b90506000811180156110315750600060065414155b1561111a576000611067600654611059670de0b6b3a764000085611f1890919063ffffffff16565b611f9e90919063ffffffff16565b905061107e81600754611ff090919063ffffffff16565b6007819055506110c76110b6670de0b6b3a76400006110a860065485611f1890919063ffffffff16565b611f9e90919063ffffffff16565b600854611ff090919063ffffffff16565b6008819055507f916dfa9a5d1ae78d10d4087d714cf5f694e6d83e3a03c4985410df467cef6ca88260075460085460405180848152602001838152602001828152602001935050505060405180910390a1505b50565b60046020528060005260406000206000915090508060000154908060010154905082565b600160009054906101000a900473ffffffffffffffffffffffffffffffffffffffff1681565b61116f611fe8565b73ffffffffffffffffffffffffffffffffffffffff1660008054906101000a900473ffffffffffffffffffffffffffffffffffffffff1673ffffffffffffffffffffffffffffffffffffffff161461122f576040517f08c379a00000000000000000000000000000000000000000000000000000000081526004018080602001828103825260208152602001807f4f776e61626c653a2063616c6c6572206973206e6f7420746865206f776e657281525060200191505060405180910390fd5b600073ffffffffffffffffffffffffffffffffffffffff1660008054906101000a900473ffffffffffffffffffffffffffffffffffffffff1673ffffffffffffffffffffffffffffffffffffffff167f8be0079c531659141344cd1fd0a4f28419497f9722a3daafe3b4186f6b6457e060405160405180910390a360008060006101000a81548173ffffffffffffffffffffffffffffffffffffffff021916908373ffffffffffffffffffffffffffffffffffffffff160217905550565b600560003373ffffffffffffffffffffffffffffffffffffffff1673ffffffffffffffffffffffffffffffffffffffff1681526020019081526020016000205481111561133957600080fd5b61138b81600560003373ffffffffffffffffffffffffffffffffffffffff1673ffffffffffffffffffffffffffffffffffffffff16815260200190815260200160002054611ece90919063ffffffff16565b600560003373ffffffffffffffffffffffffffffffffffffffff1673ffffffffffffffffffffffffffffffffffffffff16815260200190815260200160002081905550600360009054906101000a900473ffffffffffffffffffffffffffffffffffffffff1673ffffffffffffffffffffffffffffffffffffffff1663141ac951826040518263ffffffff1660e01b815260040180828152602001915050600060405180830381600087803b15801561144357600080fd5b505af1158015611457573d6000803e3d6000fd5b50505050600160009054906101000a900473ffffffffffffffffffffffffffffffffffffffff1673ffffffffffffffffffffffffffffffffffffffff166323b872dd3033846040518463ffffffff1660e01b8152600401808473ffffffffffffffffffffffffffffffffffffffff1681526020018373ffffffffffffffffffffffffffffffffffffffff1681526020018281526020019350505050602060405180830381600087803b15801561150c57600080fd5b505af1158015611520573d6000803e3d6000fd5b505050506040513d602081101561153657600080fd5b810190808051906020019092919050505061155057600080fd5b50565b600260009054906101000a900473ffffffffffffffffffffffffffffffffffffffff1681565b600560003373ffffffffffffffffffffffffffffffffffffffff1673ffffffffffffffffffffffffffffffffffffffff168152602001908152602001600020548111156115c557600080fd5b600360009054906101000a900473ffffffffffffffffffffffffffffffffffffffff1673ffffffffffffffffffffffffffffffffffffffff16632e17de78826040518263ffffffff1660e01b815260040180828152602001915050600060405180830381600087803b15801561163a57600080fd5b505af115801561164e573d6000803e3d6000fd5b505050506116a481600560003373ffffffffffffffffffffffffffffffffffffffff1673ffffffffffffffffffffffffffffffffffffffff16815260200190815260200160002054611ece90919063ffffffff16565b600560003373ffffffffffffffffffffffffffffffffffffffff1673ffffffffffffffffffffffffffffffffffffffff16815260200190815260200160002081905550600160009054906101000a900473ffffffffffffffffffffffffffffffffffffffff1673ffffffffffffffffffffffffffffffffffffffff166323b872dd3033846040518463ffffffff1660e01b8152600401808473ffffffffffffffffffffffffffffffffffffffff1681526020018373ffffffffffffffffffffffffffffffffffffffff1681526020018281526020019350505050602060405180830381600087803b15801561179857600080fd5b505af11580156117ac573d6000803e3d6000fd5b505050506040513d60208110156117c257600080fd5b81019080805190602001909291905050506117dc57600080fd5b50565b60008060009054906101000a900473ffffffffffffffffffffffffffffffffffffffff16905090565b600260009054906101000a900473ffffffffffffffffffffffffffffffffffffffff1673ffffffffffffffffffffffffffffffffffffffff166323b872dd3330846040518463ffffffff1660e01b8152600401808473ffffffffffffffffffffffffffffffffffffffff1681526020018373ffffffffffffffffffffffffffffffffffffffff1681526020018281526020019350505050602060405180830381600087803b1580156118b957600080fd5b505af11580156118cd573d6000803e3d6000fd5b505050506040513d60208110156118e357600080fd5b81019080805190602001909291905050506118fd57600080fd5b611905611a5c565b61195a81600460003373ffffffffffffffffffffffffffffffffffffffff1673ffffffffffffffffffffffffffffffffffffffff16815260200190815260200160002060000154611ff090919063ffffffff16565b600460003373ffffffffffffffffffffffffffffffffffffffff1673ffffffffffffffffffffffffffffffffffffffff16815260200190815260200160002060000181905550600754600460003373ffffffffffffffffffffffffffffffffffffffff1673ffffffffffffffffffffffffffffffffffffffff168152602001908152602001600020600101819055506119fe81600654611ff090919063ffffffff16565b6006819055507f6bcf4e76c988bda6cf08a4f220579db4d6d16169ab326ccdb1c1e04f2acc7a7c3382604051808373ffffffffffffffffffffffffffffffffffffffff1681526020018281526020019250505060405180910390a150565b600360009054906101000a900473ffffffffffffffffffffffffffffffffffffffff1673ffffffffffffffffffffffffffffffffffffffff1663b88a802f6040518163ffffffff1660e01b8152600401600060405180830381600087803b158015611ac657600080fd5b505af1158015611ada573d6000803e3d6000fd5b50505050611ae6611005565b6000600460003373ffffffffffffffffffffffffffffffffffffffff1673ffffffffffffffffffffffffffffffffffffffff168152602001908152602001600020600001541115611c95576000600654600460003373ffffffffffffffffffffffffffffffffffffffff1673ffffffffffffffffffffffffffffffffffffffff168152602001908152602001600020600001541015611b8d57611b883361063e565b611b91565b6008545b9050600754600460003373ffffffffffffffffffffffffffffffffffffffff1673ffffffffffffffffffffffffffffffffffffffff16815260200190815260200160002060010181905550611bf181600854611ece90919063ffffffff16565b6008819055503373ffffffffffffffffffffffffffffffffffffffff166108fc829081150290604051600060405180830381858888f19350505050158015611c3d573d6000803e3d6000fd5b507fbe14eb59e3e469f750fb848a6c79218e4fdddfe055c6247f80e6d2913fc6715a3382604051808373ffffffffffffffffffffffffffffffffffffffff1681526020018281526020019250505060405180910390a1505b565b600360009054906101000a900473ffffffffffffffffffffffffffffffffffffffff1681565b60085481565b611ccb611fe8565b73ffffffffffffffffffffffffffffffffffffffff1660008054906101000a900473ffffffffffffffffffffffffffffffffffffffff1673ffffffffffffffffffffffffffffffffffffffff1614611d8b576040517f08c379a00000000000000000000000000000000000000000000000000000000081526004018080602001828103825260208152602001807f4f776e61626c653a2063616c6c6572206973206e6f7420746865206f776e657281525060200191505060405180910390fd5b600073ffffffffffffffffffffffffffffffffffffffff168173ffffffffffffffffffffffffffffffffffffffff161415611e11576040517f08c379a00000000000000000000000000000000000000000000000000000000081526004018080602001828103825260268152602001806121ff6026913960400191505060405180910390fd5b8073ffffffffffffffffffffffffffffffffffffffff1660008054906101000a900473ffffffffffffffffffffffffffffffffffffffff1673ffffffffffffffffffffffffffffffffffffffff167f8be0079c531659141344cd1fd0a4f28419497f9722a3daafe3b4186f6b6457e060405160405180910390a3806000806101000a81548173ffffffffffffffffffffffffffffffffffffffff021916908373ffffffffffffffffffffffffffffffffffffffff16021790555050565b6000611f1083836040518060400160405280601e81526020017f536166654d6174683a207375627472616374696f6e206f766572666c6f770000815250612078565b905092915050565b600080831415611f2b5760009050611f98565b6000828402905082848281611f3c57fe5b0414611f93576040517f08c379a00000000000000000000000000000000000000000000000000000000081526004018080602001828103825260218152602001806122256021913960400191505060405180910390fd5b809150505b92915050565b6000611fe083836040518060400160405280601a81526020017f536166654d6174683a206469766973696f6e206279207a65726f000000000000815250612138565b905092915050565b600033905090565b60008082840190508381101561206e576040517f08c379a000000000000000000000000000000000000000000000000000000000815260040180806020018281038252601b8152602001807f536166654d6174683a206164646974696f6e206f766572666c6f77000000000081525060200191505060405180910390fd5b8091505092915050565b6000838311158290612125576040517f08c379a00000000000000000000000000000000000000000000000000000000081526004018080602001828103825283818151815260200191508051906020019080838360005b838110156120ea5780820151818401526020810190506120cf565b50505050905090810190601f1680156121175780820380516001836020036101000a031916815260200191505b509250505060405180910390fd5b5060008385039050809150509392505050565b600080831182906121e4576040517f08c379a00000000000000000000000000000000000000000000000000000000081526004018080602001828103825283818151815260200191508051906020019080838360005b838110156121a957808201518184015260208101905061218e565b50505050905090810190601f1680156121d65780820380516001836020036101000a031916815260200191505b509250505060405180910390fd5b5060008385816121f057fe5b04905080915050939250505056fe4f776e61626c653a206e6577206f776e657220697320746865207a65726f2061646472657373536166654d6174683a206d756c7469706c69636174696f6e206f766572666c6f77a26469706673582212200970e4424f776c283d41afd660523e003712c437ff1012c73de0b04a413b6a3e64736f6c634300060c0033",
  "immutableReferences": {},
  "source": "pragma solidity >= 0.6.4;\n\nimport './ownable.sol';\nimport './libraries/SafeMath.sol';\nimport './interfaces/IERC20.sol';\n\ninterface synStakingInterface {\n  // Stakes SYN\n  function stake(uint256 amount) external;\n  // Unstakes SYN\n  function unstake(uint256 amount) external;\n  // Claims any ETH owed to msg.sender for staking SYN\n  function claimReward() external;\n  // Emergency removes staked SYN\n  function emergencyRemove(uint256 amount) external;\n}\n\ncontract uniV2Staking is Owned {\n  using SafeMath for uint256;\n\n  struct userStakeStruct {\n    uint256 uniV2Tokens;\n    uint256 fpuEntered;\n  }\n\n  IERC20 public synToken;\n  IERC20 public uniV2Token;\n  synStakingInterface public synStaking;\n\n  mapping(address => userStakeStruct) public userStake;\n  // Map of original SYN owner -> amount of SYN they've staked via this contract\n  mapping(address => uint) public stakedSyn;\n\n\n  // Total amount of UniV2Tokens staked\n  uint256 public uniV2TotalStaked;\n  // Amount of fees per UniV2Token currently staked\n  uint256 public fpuTotal;\n  // Total fees this contract has earned that can be given to UniV2Token stakers\n  uint256 public feesTotal;\n\n  event feesIn(\n      uint256 ethIn,\n      uint256 fpuTotal,\n      uint256 feesTotal\n  );\n  event userStakeEvent(\n      address account,\n      uint256 amount\n  );\n  event userUnStakeEvent(\n      address account,\n      uint256 amount\n  );\n  event userClaimEvent(\n      address account,\n      uint256 ethOut\n  );\n\n  constructor() public {\n    synToken = IERC20(0x1695936d6a953df699C38CA21c2140d497C08BD9);\n    // SYN-ETH pair https://info.uniswap.org/pair/0xdf27a38946a1ace50601ef4e10f07a9cc90d7231\n    uniV2Token = IERC20(0xdF27A38946a1AcE50601Ef4e10f07A9CC90d7231);\n    // Syn Staking impl\n    synStaking = synStakingInterface(0xf21c4F3a748F38A0B244f649d19FdcC55678F576);\n  }\n\n  // Allow this contract to receive ETH\n  receive() external payable {}\n\n  // Stake uniV2Tokens\n  function stake(uint256 amount) external {\n    require(uniV2Token.transferFrom(msg.sender, address(this), amount));\n    claimReward();\n    userStake[msg.sender].uniV2Tokens = userStake[msg.sender].uniV2Tokens.add(amount);\n    userStake[msg.sender].fpuEntered = fpuTotal;\n    uniV2TotalStaked = uniV2TotalStaked.add(amount);\n    emit userStakeEvent(msg.sender, amount);\n  }\n\n  // Unstake uniV2Tokens\n  function unstake(uint256 amount) external {\n    require(userStake[msg.sender].uniV2Tokens >= amount);\n    claimReward();\n    userStake[msg.sender].uniV2Tokens = userStake[msg.sender].uniV2Tokens.sub(amount);\n    uniV2TotalStaked = uniV2TotalStaked.sub(amount);\n    uniV2Token.transfer(msg.sender, amount);\n    emit userUnStakeEvent(msg.sender, amount);\n  }\n\n  // Claims msg.sender's reward for staking uniV2Tokens\n  function claimReward() public {\n    // Claim earned ETH from SYN staking. This also forwards fees into synStaking\n    synStaking.claimReward();\n    // Update state to deal w/ earned ETH we just claimed\n    updateTotals();\n    // Give sender their owed ETH\n    if(userStake[msg.sender].uniV2Tokens > 0) {\n        uint256 ethOut = userStake[msg.sender].uniV2Tokens >= uniV2TotalStaked ?\n                feesTotal : getUserRewards(msg.sender);\n        userStake[msg.sender].fpuEntered = fpuTotal;\n        feesTotal = feesTotal.sub(ethOut);\n        msg.sender.transfer(ethOut);\n        emit userClaimEvent(msg.sender, ethOut);\n    }\n  }\n\n  function updateTotals() public {\n    uint256 ethIn = address(this).balance.sub(feesTotal);\n    if(ethIn > 0 && uniV2TotalStaked != 0) {\n        uint256 addFpu = ethIn.mul(10**18).div(uniV2TotalStaked);\n        fpuTotal = fpuTotal.add(addFpu);\n        feesTotal = feesTotal.add(addFpu.mul(uniV2TotalStaked).div(10**18));\n        emit feesIn(ethIn, fpuTotal, feesTotal);\n    }\n  }\n\n  // Emergency removal of staked uniV2Tokens\n  function emergencyRemove(uint256 amount) public {\n    require(userStake[msg.sender].uniV2Tokens >= amount);\n    userStake[msg.sender].uniV2Tokens = userStake[msg.sender].uniV2Tokens.sub(amount);\n    uniV2TotalStaked = uniV2TotalStaked.sub(amount);\n    uniV2Token.transfer(msg.sender, amount);\n  }\n\n  function getUserRewards(address account) public view returns(uint256) {\n      return(fpuTotal.sub(userStake[account].fpuEntered)\n                .mul(userStake[account].uniV2Tokens).div(10**18));\n  }\n\n  // ---- Fns to add/remove SYN to stake via this contract ----\n\n  // Note `stakeSyn` and `unstakeSyn` can result in ETH rewards being given to this\n  // contract as a result of the `synStaking.(un)stake` call. This is okay because calls\n  // to `stake`, `unstake`, and `claimReward` in this contract call `updateTotals`,\n  // which will calculate ethIn based off any new eth balance this contract has\n  // before it performs anything important\n\n  // Stake SYN via this contract, giving all earned fees to this contract\n  function stakeSyn(uint amount) external {\n    uint synBalanceBefore = synToken.balanceOf(address(this));\n    // Transfer the SYN into this contract first\n    require(synToken.transferFrom(msg.sender, address(this), amount));\n    // To cover the case of someone accidentally sending SYN directly to this contract.\n    // It'll get staked and owned by whoever calls stakeSyn first\n    uint synAmountToStake = synToken.balanceOf(address(this)).sub(synBalanceBefore);\n    // Stake it\n    synStaking.stake(synAmountToStake);\n    // Record that sender has staked syn via this contract\n    stakedSyn[msg.sender] = stakedSyn[msg.sender].add(synAmountToStake);\n  }\n\n  // Unstake SYN that has been staked via this contract, giving all earned fees to this contract\n  function unstakeSyn(uint amount) external {\n    // Prevent someone from unstaking more SYN than they have staked via this contract\n    require(amount <= stakedSyn[msg.sender]);\n    // Unstake it\n    synStaking.unstake(amount);\n    // Record that sender has unstaked syn via this contract\n    stakedSyn[msg.sender] = stakedSyn[msg.sender].sub(amount);\n    // Transfer the syn that was unstaked from this contract to the sender\n    require(synToken.transferFrom(address(this), msg.sender, amount));\n  }\n\n  function emergencyRemoveSyn(uint amount) external {\n    // Prevent someone from emergency removing more syn than they have staked via this contract\n    require(amount <= stakedSyn[msg.sender]);\n    // Record that sender has unstaked syn via this contract\n    stakedSyn[msg.sender] = stakedSyn[msg.sender].sub(amount);\n    // Emergency remove that syn\n    synStaking.emergencyRemove(amount);\n    // Transfer the syn that was removed from this contract to the sender\n    require(synToken.transferFrom(address(this), msg.sender, amount));\n  }\n\n  // ---- Owner only ----\n\n  function setSynStaking(address _synStaking) public onlyOwner() {\n    synStaking = synStakingInterface(_synStaking);\n  }\n}\n",
  "sourcePath": "/Users/trevor/SynLev/contracts/live/uniV2Staking.sol",
  "compiler": {
    "name": "solc",
    "version": "0.6.12+commit.27d51765.Emscripten.clang"
  },
  "schemaVersion": "3.3.2",
  "updatedAt": "2020-12-31T02:01:29.952Z",
  "networkType": "ethereum",
  "devdoc": {
    "kind": "dev",
    "methods": {},
    "version": 1
  },
  "userdoc": {
    "kind": "user",
    "methods": {},
    "version": 1
  }
}