{
  "contractName": "vaultHelper",
  "abi": [
    {
      "inputs": [],
      "stateMutability": "nonpayable",
      "type": "constructor"
    },
    {
      "anonymous": false,
      "inputs": [
        {
          "indexed": true,
          "internalType": "address",
          "name": "previousOwner",
          "type": "address"
        },
        {
          "indexed": true,
          "internalType": "address",
          "name": "newOwner",
          "type": "address"
        }
      ],
      "name": "OwnershipTransferred",
      "type": "event"
    },
    {
      "inputs": [],
      "name": "balanceControlFactor",
      "outputs": [
        {
          "internalType": "uint256",
          "name": "",
          "type": "uint256"
        }
      ],
      "stateMutability": "view",
      "type": "function"
    },
    {
      "inputs": [],
      "name": "owner",
      "outputs": [
        {
          "internalType": "address",
          "name": "",
          "type": "address"
        }
      ],
      "stateMutability": "view",
      "type": "function"
    },
    {
      "inputs": [],
      "name": "renounceOwnership",
      "outputs": [],
      "stateMutability": "nonpayable",
      "type": "function"
    },
    {
      "inputs": [
        {
          "internalType": "address",
          "name": "newOwner",
          "type": "address"
        }
      ],
      "name": "transferOwnership",
      "outputs": [],
      "stateMutability": "nonpayable",
      "type": "function"
    },
    {
      "inputs": [
        {
          "internalType": "address",
          "name": "vault",
          "type": "address"
        },
        {
          "internalType": "address",
          "name": "token",
          "type": "address"
        },
        {
          "internalType": "uint256",
          "name": "eth",
          "type": "uint256"
        }
      ],
      "name": "getBonus",
      "outputs": [
        {
          "internalType": "uint256",
          "name": "",
          "type": "uint256"
        }
      ],
      "stateMutability": "view",
      "type": "function"
    },
    {
      "inputs": [
        {
          "internalType": "address",
          "name": "vault",
          "type": "address"
        },
        {
          "internalType": "address",
          "name": "token",
          "type": "address"
        },
        {
          "internalType": "uint256",
          "name": "eth",
          "type": "uint256"
        }
      ],
      "name": "getPenalty",
      "outputs": [
        {
          "internalType": "uint256",
          "name": "",
          "type": "uint256"
        }
      ],
      "stateMutability": "view",
      "type": "function"
    },
    {
      "inputs": [
        {
          "internalType": "address",
          "name": "vault",
          "type": "address"
        }
      ],
      "name": "getSharePrice",
      "outputs": [
        {
          "internalType": "uint256",
          "name": "",
          "type": "uint256"
        }
      ],
      "stateMutability": "view",
      "type": "function"
    },
    {
      "inputs": [
        {
          "internalType": "address",
          "name": "vault",
          "type": "address"
        },
        {
          "internalType": "uint256",
          "name": "eth",
          "type": "uint256"
        }
      ],
      "name": "getLiqAddTokens",
      "outputs": [
        {
          "internalType": "uint256",
          "name": "",
          "type": "uint256"
        },
        {
          "internalType": "uint256",
          "name": "",
          "type": "uint256"
        },
        {
          "internalType": "uint256",
          "name": "",
          "type": "uint256"
        },
        {
          "internalType": "uint256",
          "name": "",
          "type": "uint256"
        }
      ],
      "stateMutability": "view",
      "type": "function"
    },
    {
      "inputs": [
        {
          "internalType": "address",
          "name": "vault",
          "type": "address"
        },
        {
          "internalType": "uint256",
          "name": "shares",
          "type": "uint256"
        }
      ],
      "name": "getLiqRemoveTokens",
      "outputs": [
        {
          "internalType": "uint256",
          "name": "",
          "type": "uint256"
        },
        {
          "internalType": "uint256",
          "name": "",
          "type": "uint256"
        },
        {
          "internalType": "uint256",
          "name": "",
          "type": "uint256"
        },
        {
          "internalType": "uint256",
          "name": "",
          "type": "uint256"
        },
        {
          "internalType": "uint256",
          "name": "",
          "type": "uint256"
        }
      ],
      "stateMutability": "view",
      "type": "function"
    },
    {
      "inputs": [
        {
          "internalType": "uint256",
          "name": "amount",
          "type": "uint256"
        }
      ],
      "name": "setbalanceControlFactor",
      "outputs": [],
      "stateMutability": "nonpayable",
      "type": "function"
    }
  ],
  "bytecode": "0x608060405234801561001057600080fd5b5060006100216100cf60201b60201c565b9050806000806101000a81548173ffffffffffffffffffffffffffffffffffffffff021916908373ffffffffffffffffffffffffffffffffffffffff1602179055508073ffffffffffffffffffffffffffffffffffffffff16600073ffffffffffffffffffffffffffffffffffffffff167f8be0079c531659141344cd1fd0a4f28419497f9722a3daafe3b4186f6b6457e060405160405180910390a350633b9aca006001819055506100d7565b600033905090565b612f6c80620000e76000396000f3fe608060405234801561001057600080fd5b506004361061009e5760003560e01c80638da5cb5b116100665780638da5cb5b146101f25780639486909f14610226578063b9c7840b146102a4578063f2fde38b146102fc578063f8956a67146103405761009e565b80630bdc4789146100a3578063465c57aa1461011a578063715018a6146101485780637b79bb8e146101525780637c83ffd114610170575b600080fd5b6100ef600480360360408110156100b957600080fd5b81019080803573ffffffffffffffffffffffffffffffffffffffff169060200190929190803590602001909291905050506103c2565b6040518085815260200184815260200183815260200182815260200194505050505060405180910390f35b6101466004803603602081101561013057600080fd5b8101908080359060200190929190505050610ce4565b005b610150610db6565b005b61015a610f3c565b6040518082815260200191505060405180910390f35b6101dc6004803603606081101561018657600080fd5b81019080803573ffffffffffffffffffffffffffffffffffffffff169060200190929190803573ffffffffffffffffffffffffffffffffffffffff16906020019092919080359060200190929190505050610f42565b6040518082815260200191505060405180910390f35b6101fa6111b1565b604051808273ffffffffffffffffffffffffffffffffffffffff16815260200191505060405180910390f35b6102726004803603604081101561023c57600080fd5b81019080803573ffffffffffffffffffffffffffffffffffffffff169060200190929190803590602001909291905050506111da565b604051808681526020018581526020018481526020018381526020018281526020019550505050505060405180910390f35b6102e6600480360360208110156102ba57600080fd5b81019080803573ffffffffffffffffffffffffffffffffffffffff16906020019092919050505061225e565b6040518082815260200191505060405180910390f35b61033e6004803603602081101561031257600080fd5b81019080803573ffffffffffffffffffffffffffffffffffffffff1690602001909291905050506126a8565b005b6103ac6004803603606081101561035657600080fd5b81019080803573ffffffffffffffffffffffffffffffffffffffff169060200190929190803573ffffffffffffffffffffffffffffffffffffffff169060200190929190803590602001909291905050506128b3565b6040518082815260200191505060405180910390f35b600080600080600086905060008173ffffffffffffffffffffffffffffffffffffffff16633ba5d96d6040518163ffffffff1660e01b815260040160206040518083038186803b15801561041557600080fd5b505afa158015610429573d6000803e3d6000fd5b505050506040513d602081101561043f57600080fd5b8101908080519060200190929190505050905060008273ffffffffffffffffffffffffffffffffffffffff16635db214da6040518163ffffffff1660e01b815260040160206040518083038186803b15801561049a57600080fd5b505afa1580156104ae573d6000803e3d6000fd5b505050506040513d60208110156104c457600080fd5b8101908080519060200190929190505050905060008373ffffffffffffffffffffffffffffffffffffffff1663c4056493836040518263ffffffff1660e01b8152600401808273ffffffffffffffffffffffffffffffffffffffff16815260200191505060206040518083038186803b15801561054057600080fd5b505afa158015610554573d6000803e3d6000fd5b505050506040513d602081101561056a57600080fd5b81019080805190602001909291905050508473ffffffffffffffffffffffffffffffffffffffff1663c4056493856040518263ffffffff1660e01b8152600401808273ffffffffffffffffffffffffffffffffffffffff16815260200191505060206040518083038186803b1580156105e257600080fd5b505afa1580156105f6573d6000803e3d6000fd5b505050506040513d602081101561060c57600080fd5b81019080805190602001909291905050501061062957600061077f565b61077e8473ffffffffffffffffffffffffffffffffffffffff1663c4056493856040518263ffffffff1660e01b8152600401808273ffffffffffffffffffffffffffffffffffffffff16815260200191505060206040518083038186803b15801561069357600080fd5b505afa1580156106a7573d6000803e3d6000fd5b505050506040513d60208110156106bd57600080fd5b81019080805190602001909291905050508573ffffffffffffffffffffffffffffffffffffffff1663c4056493856040518263ffffffff1660e01b8152600401808273ffffffffffffffffffffffffffffffffffffffff16815260200191505060206040518083038186803b15801561073557600080fd5b505afa158015610749573d6000803e3d6000fd5b505050506040513d602081101561075f57600080fd5b8101908080519060200190929190505050612bbf90919063ffffffff16565b5b905060008473ffffffffffffffffffffffffffffffffffffffff1663c4056493856040518263ffffffff1660e01b8152600401808273ffffffffffffffffffffffffffffffffffffffff16815260200191505060206040518083038186803b1580156107ea57600080fd5b505afa1580156107fe573d6000803e3d6000fd5b505050506040513d602081101561081457600080fd5b81019080805190602001909291905050508573ffffffffffffffffffffffffffffffffffffffff1663c4056493856040518263ffffffff1660e01b8152600401808273ffffffffffffffffffffffffffffffffffffffff16815260200191505060206040518083038186803b15801561088c57600080fd5b505afa1580156108a0573d6000803e3d6000fd5b505050506040513d60208110156108b657600080fd5b8101908080519060200190929190505050106108d3576000610a29565b610a288573ffffffffffffffffffffffffffffffffffffffff1663c4056493856040518263ffffffff1660e01b8152600401808273ffffffffffffffffffffffffffffffffffffffff16815260200191505060206040518083038186803b15801561093d57600080fd5b505afa158015610951573d6000803e3d6000fd5b505050506040513d602081101561096757600080fd5b81019080805190602001909291905050508673ffffffffffffffffffffffffffffffffffffffff1663c4056493876040518263ffffffff1660e01b8152600401808273ffffffffffffffffffffffffffffffffffffffff16815260200191505060206040518083038186803b1580156109df57600080fd5b505afa1580156109f3573d6000803e3d6000fd5b505050506040513d6020811015610a0957600080fd5b8101908080519060200190929190505050612bbf90919063ffffffff16565b5b9050898210610a3a57899150610b30565b898110610a4957899050610b2f565b80821115610aa557610a89610a7a6002610a6c858e612bbf90919063ffffffff16565b612c0990919063ffffffff16565b83612c5390919063ffffffff16565b9150610a9e828b612bbf90919063ffffffff16565b9050610b2e565b81811115610b0157610ae5610ad66002610ac8848e612bbf90919063ffffffff16565b612c0990919063ffffffff16565b82612c5390919063ffffffff16565b9050610afa818b612bbf90919063ffffffff16565b9150610b2d565b610b1560028b612c0990919063ffffffff16565b9150610b2a828b612bbf90919063ffffffff16565b90505b5b5b5b8181610c008773ffffffffffffffffffffffffffffffffffffffff166341976e09886040518263ffffffff1660e01b8152600401808273ffffffffffffffffffffffffffffffffffffffff16815260200191505060206040518083038186803b158015610b9c57600080fd5b505afa158015610bb0573d6000803e3d6000fd5b505050506040513d6020811015610bc657600080fd5b8101908080519060200190929190505050610bf2670de0b6b3a764000087612cdb90919063ffffffff16565b612c0990919063ffffffff16565b610cce8873ffffffffffffffffffffffffffffffffffffffff166341976e09886040518263ffffffff1660e01b8152600401808273ffffffffffffffffffffffffffffffffffffffff16815260200191505060206040518083038186803b158015610c6a57600080fd5b505afa158015610c7e573d6000803e3d6000fd5b505050506040513d6020811015610c9457600080fd5b8101908080519060200190929190505050610cc0670de0b6b3a764000087612cdb90919063ffffffff16565b612c0990919063ffffffff16565b9850985098509850505050505092959194509250565b610cec612d61565b73ffffffffffffffffffffffffffffffffffffffff1660008054906101000a900473ffffffffffffffffffffffffffffffffffffffff1673ffffffffffffffffffffffffffffffffffffffff1614610dac576040517f08c379a00000000000000000000000000000000000000000000000000000000081526004018080602001828103825260208152602001807f4f776e61626c653a2063616c6c6572206973206e6f7420746865206f776e657281525060200191505060405180910390fd5b8060018190555050565b610dbe612d61565b73ffffffffffffffffffffffffffffffffffffffff1660008054906101000a900473ffffffffffffffffffffffffffffffffffffffff1673ffffffffffffffffffffffffffffffffffffffff1614610e7e576040517f08c379a00000000000000000000000000000000000000000000000000000000081526004018080602001828103825260208152602001807f4f776e61626c653a2063616c6c6572206973206e6f7420746865206f776e657281525060200191505060405180910390fd5b600073ffffffffffffffffffffffffffffffffffffffff1660008054906101000a900473ffffffffffffffffffffffffffffffffffffffff1673ffffffffffffffffffffffffffffffffffffffff167f8be0079c531659141344cd1fd0a4f28419497f9722a3daafe3b4186f6b6457e060405160405180910390a360008060006101000a81548173ffffffffffffffffffffffffffffffffffffffff021916908373ffffffffffffffffffffffffffffffffffffffff160217905550565b60015481565b60008084905060008173ffffffffffffffffffffffffffffffffffffffff166356aef98c6040518163ffffffff1660e01b815260040160206040518083038186803b158015610f9057600080fd5b505afa158015610fa4573d6000803e3d6000fd5b505050506040513d6020811015610fba57600080fd5b8101908080519060200190929190505050905060008273ffffffffffffffffffffffffffffffffffffffff1663ac86ea0c876040518263ffffffff1660e01b8152600401808273ffffffffffffffffffffffffffffffffffffffff16815260200191505060206040518083038186803b15801561103657600080fd5b505afa15801561104a573d6000803e3d6000fd5b505050506040513d602081101561106057600080fd5b8101908080519060200190929190505050905060006110888683612bbf90919063ffffffff16565b90508061109f600285612c0990919063ffffffff16565b106111a15760006110d3846110c5670de0b6b3a764000086612cdb90919063ffffffff16565b612c0990919063ffffffff16565b905060006111166110ed8987612bbf90919063ffffffff16565b611108670de0b6b3a764000086612cdb90919063ffffffff16565b612c0990919063ffffffff16565b9050611194670de0b6b3a7640000611186633b9aca006111788c61116a611159600261114b8a8c612bbf90919063ffffffff16565b612c0990919063ffffffff16565b600154612cdb90919063ffffffff16565b612cdb90919063ffffffff16565b612c0990919063ffffffff16565b612c0990919063ffffffff16565b96505050505050506111aa565b60009450505050505b9392505050565b60008060009054906101000a900473ffffffffffffffffffffffffffffffffffffffff16905090565b60008060008060008087905060008173ffffffffffffffffffffffffffffffffffffffff16633ba5d96d6040518163ffffffff1660e01b815260040160206040518083038186803b15801561122e57600080fd5b505afa158015611242573d6000803e3d6000fd5b505050506040513d602081101561125857600080fd5b8101908080519060200190929190505050905060008273ffffffffffffffffffffffffffffffffffffffff16635db214da6040518163ffffffff1660e01b815260040160206040518083038186803b1580156112b357600080fd5b505afa1580156112c7573d6000803e3d6000fd5b505050506040513d60208110156112dd57600080fd5b81019080805190602001909291905050509050600061151f670de0b6b3a76400006115116115028773ffffffffffffffffffffffffffffffffffffffff1663331637736040518163ffffffff1660e01b815260040160206040518083038186803b15801561134a57600080fd5b505afa15801561135e573d6000803e3d6000fd5b505050506040513d602081101561137457600080fd5b81019080805190602001909291905050506114f4670de0b6b3a76400006114e68b73ffffffffffffffffffffffffffffffffffffffff1663c40564938b6040518263ffffffff1660e01b8152600401808273ffffffffffffffffffffffffffffffffffffffff16815260200191505060206040518083038186803b1580156113fb57600080fd5b505afa15801561140f573d6000803e3d6000fd5b505050506040513d602081101561142557600080fd5b81019080805190602001909291905050508c73ffffffffffffffffffffffffffffffffffffffff1663c40564938d6040518263ffffffff1660e01b8152600401808273ffffffffffffffffffffffffffffffffffffffff16815260200191505060206040518083038186803b15801561149d57600080fd5b505afa1580156114b1573d6000803e3d6000fd5b505050506040513d60208110156114c757600080fd5b8101908080519060200190929190505050612c5390919063ffffffff16565b612cdb90919063ffffffff16565b612c0990919063ffffffff16565b8d612cdb90919063ffffffff16565b612c0990919063ffffffff16565b905060008473ffffffffffffffffffffffffffffffffffffffff1663c4056493846040518263ffffffff1660e01b8152600401808273ffffffffffffffffffffffffffffffffffffffff16815260200191505060206040518083038186803b15801561158a57600080fd5b505afa15801561159e573d6000803e3d6000fd5b505050506040513d60208110156115b457600080fd5b81019080805190602001909291905050508573ffffffffffffffffffffffffffffffffffffffff1663c4056493866040518263ffffffff1660e01b8152600401808273ffffffffffffffffffffffffffffffffffffffff16815260200191505060206040518083038186803b15801561162c57600080fd5b505afa158015611640573d6000803e3d6000fd5b505050506040513d602081101561165657600080fd5b8101908080519060200190929190505050116116735760006117c9565b6117c88573ffffffffffffffffffffffffffffffffffffffff1663c4056493856040518263ffffffff1660e01b8152600401808273ffffffffffffffffffffffffffffffffffffffff16815260200191505060206040518083038186803b1580156116dd57600080fd5b505afa1580156116f1573d6000803e3d6000fd5b505050506040513d602081101561170757600080fd5b81019080805190602001909291905050508673ffffffffffffffffffffffffffffffffffffffff1663c4056493876040518263ffffffff1660e01b8152600401808273ffffffffffffffffffffffffffffffffffffffff16815260200191505060206040518083038186803b15801561177f57600080fd5b505afa158015611793573d6000803e3d6000fd5b505050506040513d60208110156117a957600080fd5b8101908080519060200190929190505050612bbf90919063ffffffff16565b5b905060008573ffffffffffffffffffffffffffffffffffffffff1663c4056493866040518263ffffffff1660e01b8152600401808273ffffffffffffffffffffffffffffffffffffffff16815260200191505060206040518083038186803b15801561183457600080fd5b505afa158015611848573d6000803e3d6000fd5b505050506040513d602081101561185e57600080fd5b81019080805190602001909291905050508673ffffffffffffffffffffffffffffffffffffffff1663c4056493866040518263ffffffff1660e01b8152600401808273ffffffffffffffffffffffffffffffffffffffff16815260200191505060206040518083038186803b1580156118d657600080fd5b505afa1580156118ea573d6000803e3d6000fd5b505050506040513d602081101561190057600080fd5b81019080805190602001909291905050501161191d576000611a73565b611a728673ffffffffffffffffffffffffffffffffffffffff1663c4056493876040518263ffffffff1660e01b8152600401808273ffffffffffffffffffffffffffffffffffffffff16815260200191505060206040518083038186803b15801561198757600080fd5b505afa15801561199b573d6000803e3d6000fd5b505050506040513d60208110156119b157600080fd5b81019080805190602001909291905050508773ffffffffffffffffffffffffffffffffffffffff1663c4056493876040518263ffffffff1660e01b8152600401808273ffffffffffffffffffffffffffffffffffffffff16815260200191505060206040518083038186803b158015611a2957600080fd5b505afa158015611a3d573d6000803e3d6000fd5b505050506040513d6020811015611a5357600080fd5b8101908080519060200190929190505050612bbf90919063ffffffff16565b5b9050828210611a8457829150611b7a565b828110611a9357829050611b79565b80821115611aef57611ad3611ac46002611ab68587612bbf90919063ffffffff16565b612c0990919063ffffffff16565b83612c5390919063ffffffff16565b9150611ae88284612bbf90919063ffffffff16565b9050611b78565b81811115611b4b57611b2f611b206002611b128487612bbf90919063ffffffff16565b612c0990919063ffffffff16565b82612c5390919063ffffffff16565b9050611b448184612bbf90919063ffffffff16565b9150611b77565b611b5f600284612c0990919063ffffffff16565b9150611b748284612bbf90919063ffffffff16565b90505b5b5b5b6000611c4a8773ffffffffffffffffffffffffffffffffffffffff166341976e09886040518263ffffffff1660e01b8152600401808273ffffffffffffffffffffffffffffffffffffffff16815260200191505060206040518083038186803b158015611be657600080fd5b505afa158015611bfa573d6000803e3d6000fd5b505050506040513d6020811015611c1057600080fd5b8101908080519060200190929190505050611c3c670de0b6b3a764000086612cdb90919063ffffffff16565b612c0990919063ffffffff16565b90506000611d1c8873ffffffffffffffffffffffffffffffffffffffff166341976e09886040518263ffffffff1660e01b8152600401808273ffffffffffffffffffffffffffffffffffffffff16815260200191505060206040518083038186803b158015611cb857600080fd5b505afa158015611ccc573d6000803e3d6000fd5b505050506040513d6020811015611ce257600080fd5b8101908080519060200190929190505050611d0e670de0b6b3a764000086612cdb90919063ffffffff16565b612c0990919063ffffffff16565b90508773ffffffffffffffffffffffffffffffffffffffff166316eb3814886040518263ffffffff1660e01b8152600401808273ffffffffffffffffffffffffffffffffffffffff16815260200191505060206040518083038186803b158015611d8557600080fd5b505afa158015611d99573d6000803e3d6000fd5b505050506040513d6020811015611daf57600080fd5b81019080805190602001909291905050508211611dcc5781611e6f565b8773ffffffffffffffffffffffffffffffffffffffff166316eb3814886040518263ffffffff1660e01b8152600401808273ffffffffffffffffffffffffffffffffffffffff16815260200191505060206040518083038186803b158015611e3357600080fd5b505afa158015611e47573d6000803e3d6000fd5b505050506040513d6020811015611e5d57600080fd5b81019080805190602001909291905050505b91508773ffffffffffffffffffffffffffffffffffffffff166316eb3814876040518263ffffffff1660e01b8152600401808273ffffffffffffffffffffffffffffffffffffffff16815260200191505060206040518083038186803b158015611ed857600080fd5b505afa158015611eec573d6000803e3d6000fd5b505050506040513d6020811015611f0257600080fd5b81019080805190602001909291905050508111611f1f5780611fc2565b8773ffffffffffffffffffffffffffffffffffffffff166316eb3814876040518263ffffffff1660e01b8152600401808273ffffffffffffffffffffffffffffffffffffffff16815260200191505060206040518083038186803b158015611f8657600080fd5b505afa158015611f9a573d6000803e3d6000fd5b505050506040513d6020811015611fb057600080fd5b81019080805190602001909291905050505b905060008873ffffffffffffffffffffffffffffffffffffffff1663a4d7a6cc6040518163ffffffff1660e01b815260040160206040518083038186803b15801561200c57600080fd5b505afa158015612020573d6000803e3d6000fd5b505050506040513d602081101561203657600080fd5b8101908080519060200190929190505050905061205c8f82612cdb90919063ffffffff16565b9050612079670de0b6b3a764000082612cdb90919063ffffffff16565b9050612128670de0b6b3a764000061211a8b73ffffffffffffffffffffffffffffffffffffffff1663331637736040518163ffffffff1660e01b815260040160206040518083038186803b1580156120d057600080fd5b505afa1580156120e4573d6000803e3d6000fd5b505050506040513d60208110156120fa57600080fd5b810190808051906020019092919050505084612c0990919063ffffffff16565b612c0990919063ffffffff16565b90508873ffffffffffffffffffffffffffffffffffffffff1663331637736040518163ffffffff1660e01b815260040160206040518083038186803b15801561217057600080fd5b505afa158015612184573d6000803e3d6000fd5b505050506040513d602081101561219a57600080fd5b81019080805190602001909291905050508f1115612238578873ffffffffffffffffffffffffffffffffffffffff1663a4d7a6cc6040518163ffffffff1660e01b815260040160206040518083038186803b1580156121f857600080fd5b505afa15801561220c573d6000803e3d6000fd5b505050506040513d602081101561222257600080fd5b810190808051906020019092919050505061223a565b805b905084848484849d509d509d509d509d505050505050505050509295509295909350565b60008082905060008173ffffffffffffffffffffffffffffffffffffffff16633ba5d96d6040518163ffffffff1660e01b815260040160206040518083038186803b1580156122ac57600080fd5b505afa1580156122c0573d6000803e3d6000fd5b505050506040513d60208110156122d657600080fd5b8101908080519060200190929190505050905060008273ffffffffffffffffffffffffffffffffffffffff16635db214da6040518163ffffffff1660e01b815260040160206040518083038186803b15801561233157600080fd5b505afa158015612345573d6000803e3d6000fd5b505050506040513d602081101561235b57600080fd5b8101908080519060200190929190505050905060008373ffffffffffffffffffffffffffffffffffffffff1663331637736040518163ffffffff1660e01b815260040160206040518083038186803b1580156123b657600080fd5b505afa1580156123ca573d6000803e3d6000fd5b505050506040513d60208110156123e057600080fd5b8101908080519060200190929190505050141561240a57670de0b6b3a764000093505050506126a3565b61269d8373ffffffffffffffffffffffffffffffffffffffff1663331637736040518163ffffffff1660e01b815260040160206040518083038186803b15801561245357600080fd5b505afa158015612467573d6000803e3d6000fd5b505050506040513d602081101561247d57600080fd5b810190808051906020019092919050505061268f670de0b6b3a76400006126818773ffffffffffffffffffffffffffffffffffffffff1663a4d7a6cc6040518163ffffffff1660e01b815260040160206040518083038186803b1580156124e357600080fd5b505afa1580156124f7573d6000803e3d6000fd5b505050506040513d602081101561250d57600080fd5b81019080805190602001909291905050506126738973ffffffffffffffffffffffffffffffffffffffff1663c4056493896040518263ffffffff1660e01b8152600401808273ffffffffffffffffffffffffffffffffffffffff16815260200191505060206040518083038186803b15801561258857600080fd5b505afa15801561259c573d6000803e3d6000fd5b505050506040513d60208110156125b257600080fd5b81019080805190602001909291905050508a73ffffffffffffffffffffffffffffffffffffffff1663c40564938b6040518263ffffffff1660e01b8152600401808273ffffffffffffffffffffffffffffffffffffffff16815260200191505060206040518083038186803b15801561262a57600080fd5b505afa15801561263e573d6000803e3d6000fd5b505050506040513d602081101561265457600080fd5b8101908080519060200190929190505050612c5390919063ffffffff16565b612c5390919063ffffffff16565b612cdb90919063ffffffff16565b612c0990919063ffffffff16565b93505050505b919050565b6126b0612d61565b73ffffffffffffffffffffffffffffffffffffffff1660008054906101000a900473ffffffffffffffffffffffffffffffffffffffff1673ffffffffffffffffffffffffffffffffffffffff1614612770576040517f08c379a00000000000000000000000000000000000000000000000000000000081526004018080602001828103825260208152602001807f4f776e61626c653a2063616c6c6572206973206e6f7420746865206f776e657281525060200191505060405180910390fd5b600073ffffffffffffffffffffffffffffffffffffffff168173ffffffffffffffffffffffffffffffffffffffff1614156127f6576040517f08c379a0000000000000000000000000000000000000000000000000000000008152600401808060200182810382526026815260200180612ef06026913960400191505060405180910390fd5b8073ffffffffffffffffffffffffffffffffffffffff1660008054906101000a900473ffffffffffffffffffffffffffffffffffffffff1673ffffffffffffffffffffffffffffffffffffffff167f8be0079c531659141344cd1fd0a4f28419497f9722a3daafe3b4186f6b6457e060405160405180910390a3806000806101000a81548173ffffffffffffffffffffffffffffffffffffffff021916908373ffffffffffffffffffffffffffffffffffffffff16021790555050565b60008084905060008173ffffffffffffffffffffffffffffffffffffffff166356aef98c6040518163ffffffff1660e01b815260040160206040518083038186803b15801561290157600080fd5b505afa158015612915573d6000803e3d6000fd5b505050506040513d602081101561292b57600080fd5b8101908080519060200190929190505050905060008273ffffffffffffffffffffffffffffffffffffffff1663ac86ea0c876040518263ffffffff1660e01b8152600401808273ffffffffffffffffffffffffffffffffffffffff16815260200191505060206040518083038186803b1580156129a757600080fd5b505afa1580156129bb573d6000803e3d6000fd5b505050506040513d60208110156129d157600080fd5b8101908080519060200190929190505050905060008373ffffffffffffffffffffffffffffffffffffffff1663cad29e9c6040518163ffffffff1660e01b815260040160206040518083038186803b158015612a2c57600080fd5b505afa158015612a40573d6000803e3d6000fd5b505050506040513d6020811015612a5657600080fd5b81019080805190602001909291905050509050600081118015612a8b5750612a88600283612cdb90919063ffffffff16565b83115b15612baf576000612abf84612ab1670de0b6b3a764000086612cdb90919063ffffffff16565b612c0990919063ffffffff16565b90506000612b14612ad98987612c5390919063ffffffff16565b612b06670de0b6b3a7640000612af88c89612c5390919063ffffffff16565b612cdb90919063ffffffff16565b612c0990919063ffffffff16565b90506706f05b59d3b20000811115612b2c5782612ba2565b612ba1670de0b6b3a7640000612b9385612b85866706f05b59d3b2000003612b77670de0b6b3a7640000612b698a8a612bbf90919063ffffffff16565b612cdb90919063ffffffff16565b612c0990919063ffffffff16565b612cdb90919063ffffffff16565b612c0990919063ffffffff16565b5b9650505050505050612bb8565b60009450505050505b9392505050565b6000612c0183836040518060400160405280601e81526020017f536166654d6174683a207375627472616374696f6e206f766572666c6f770000815250612d69565b905092915050565b6000612c4b83836040518060400160405280601a81526020017f536166654d6174683a206469766973696f6e206279207a65726f000000000000815250612e29565b905092915050565b600080828401905083811015612cd1576040517f08c379a000000000000000000000000000000000000000000000000000000000815260040180806020018281038252601b8152602001807f536166654d6174683a206164646974696f6e206f766572666c6f77000000000081525060200191505060405180910390fd5b8091505092915050565b600080831415612cee5760009050612d5b565b6000828402905082848281612cff57fe5b0414612d56576040517f08c379a0000000000000000000000000000000000000000000000000000000008152600401808060200182810382526021815260200180612f166021913960400191505060405180910390fd5b809150505b92915050565b600033905090565b6000838311158290612e16576040517f08c379a00000000000000000000000000000000000000000000000000000000081526004018080602001828103825283818151815260200191508051906020019080838360005b83811015612ddb578082015181840152602081019050612dc0565b50505050905090810190601f168015612e085780820380516001836020036101000a031916815260200191505b509250505060405180910390fd5b5060008385039050809150509392505050565b60008083118290612ed5576040517f08c379a00000000000000000000000000000000000000000000000000000000081526004018080602001828103825283818151815260200191508051906020019080838360005b83811015612e9a578082015181840152602081019050612e7f565b50505050905090810190601f168015612ec75780820380516001836020036101000a031916815260200191505b509250505060405180910390fd5b506000838581612ee157fe5b04905080915050939250505056fe4f776e61626c653a206e6577206f776e657220697320746865207a65726f2061646472657373536166654d6174683a206d756c7469706c69636174696f6e206f766572666c6f77a264697066735822122093f4b47623e949c9be9406350ee32db05fed1921b321ad65f3f7fa741338cd4c64736f6c634300060c0033",
  "immutableReferences": {},
  "source": "//////////////////////////////////////////////////\n//SYNLEV Vault Helper contract V 1.0.0\n//////////////////////////\n\npragma solidity >= 0.6.6;\n\nimport './ownable.sol';\nimport './libraries/SafeMath.sol';\nimport './interfaces/vaultInterface.sol';\n\ncontract vaultHelper is Owned {\n  using SafeMath for uint256;\n\n  constructor() public {\n    balanceControlFactor = 10**9;\n  }\n\n  uint256 public balanceControlFactor;\n\n  /*\n   * @notice Returns the buy bonus based on the incoming ETH and selected token.\n   * Only relevant to token buys\n   * @param token The selected bull or bear token\n   * @param eth The amount of ETH to be added\n   * @return Bonus in ETH\n   */\n  function getBonus(address vault, address token, uint256 eth)\n  public\n  view\n  returns(uint256)\n  {\n    vaultInterface ivault = vaultInterface(vault);\n    //Grab total equity of both tokens\n    uint256 totaleth0 = ivault.getTotalEquity();\n    //Grab total equity of only target token\n    uint256 tokeneth0 = ivault.getTokenEquity(token);\n    uint256 balanceEquity = ivault.getBalanceEquity();\n    //Check if we need to calc a bonus\n    if(balanceEquity > 0 && totaleth0 > tokeneth0.mul(2)) {\n      //Current ratio of token equity to total equity\n      uint256 ratio0 = tokeneth0.mul(1 ether).div(totaleth0);\n      //Ratio of token equity to total equity after buy\n      uint256 ratio1 = tokeneth0.add(eth).mul(1 ether).div(totaleth0.add(eth));\n      //If the after buy ratio is grater than .5 (50%) we reward the entire\n      //balance equity\n      return(\n        ratio1 <= 5 * 10**17 ?\n        ratio1.sub(ratio0).mul(1 ether).div(5 * 10**17 - ratio0).mul(balanceEquity).div(1 ether) :\n        balanceEquity\n      );\n    }\n    else {\n      return(0);\n    }\n  }\n\n  /*\n   * @notice Returns the sell penalty based on the outgoing ETH and selected\n   * token. Only relevant to token sells.\n   * @param token The selected bull or bear token\n   * @param eth The amount of outgoing ETH\n   * @return Penalty in ETH\n   */\n  function getPenalty(address vault, address token, uint256 eth)\n  public\n  view\n  returns(uint256)\n  {\n    vaultInterface ivault = vaultInterface(vault);\n    //Grab total equity of both tokens\n    uint256 totaleth0 = ivault.getTotalEquity();\n    //Grab total equity of only target token\n    uint256 tokeneth0 = ivault.getTokenEquity(token);\n    //Calc target token equity after sell\n    uint256 tokeneth1 = tokeneth0.sub(eth);\n    //Only calc penalty if ratio is less than .5 (50%) after token sell\n    if(totaleth0.div(2) >= tokeneth1) {\n      //Current ratio of token equity to total equity\n      uint256 ratio0 = tokeneth0.mul(1 ether).div(totaleth0);\n      //Ratio of token equity to total equity after buy\n      uint256 ratio1 = tokeneth1.mul(1 ether).div(totaleth0.sub(eth));\n      return(balanceControlFactor.mul(ratio0.sub(ratio1).div(2)).mul(eth).div(10**9).div(1 ether));\n    }\n    else {\n      return(0);\n    }\n  }\n\n  /*\n   * @notice Returns the current LP share price. Defaults to 1 ETH if 0 LP\n   * @param token The selected bull or bear token\n   * @param eth The amount of outgoing ETH\n   * @return Penalty in ETH\n   */\n  function getSharePrice(address vault)\n  public\n  view\n  returns(uint256)\n  {\n    vaultInterface ivault = vaultInterface(vault);\n    address bull = ivault.getBullToken();\n    address bear = ivault.getBearToken();\n    if(ivault.getTotalLiqShares() == 0) {\n      return(1 ether);\n    }\n    else {\n      return(\n        ivault.getLiqEquity(bull)\n        .add(ivault.getLiqEquity(bear))\n        .add(ivault.getLiqFees())\n        .mul(1 ether)\n        .div(ivault.getTotalLiqShares())\n      );\n    }\n  }\n\n\n  /*\n   * @notice Calc how many bull/bear tokens virtually mint based on incoming\n   * ETH.\n   * @returns bull/bear equity and bull/bear tokens to be added\n  */\n  function getLiqAddTokens(address vault, uint256 eth)\n  public\n  view\n  returns(uint256, uint256, uint256, uint256)\n  {\n    vaultInterface ivault = vaultInterface(vault);\n    address bull = ivault.getBullToken();\n    address bear = ivault.getBearToken();\n    uint256 bullEquity = ivault.getLiqEquity(bull) < ivault.getLiqEquity(bear) ?\n      ivault.getLiqEquity(bear).sub(ivault.getLiqEquity(bull)) : 0 ;\n    uint256 bearEquity = ivault.getLiqEquity(bear) < ivault.getLiqEquity(bull) ?\n      ivault.getLiqEquity(bull).sub(ivault.getLiqEquity(bear)) : 0 ;\n    if(bullEquity >= eth) bullEquity = eth;\n    else if(bearEquity >= eth) bearEquity = eth;\n    else if(bullEquity > bearEquity) {\n      bullEquity = bullEquity.add(eth.sub(bullEquity).div(2));\n      bearEquity = eth.sub(bullEquity);\n    }\n    else if(bearEquity > bullEquity) {\n      bearEquity = bearEquity.add(eth.sub(bearEquity).div(2));\n      bullEquity = eth.sub(bearEquity);\n    }\n    else {\n      bullEquity = eth.div(2);\n      bearEquity = eth.sub(bullEquity);\n    }\n    return(\n      bullEquity,\n      bearEquity,\n      bullEquity.mul(1 ether).div(ivault.getPrice(bull)),\n      bearEquity.mul(1 ether).div(ivault.getPrice(bear))\n    );\n  }\n\n  /*\n   * @notice Calc how many bull/bear tokens virtually burn based on shares\n   * being removed.\n   * @param shares Amount of shares user removing from LP\n   * @returns bull/bear equity and bull/bear tokens to be removed\n  */\n  function getLiqRemoveTokens(address vault, uint256 shares)\n  public\n  view\n  returns(uint256, uint256, uint256, uint256, uint256)\n  {\n    vaultInterface ivault = vaultInterface(vault);\n    address bull = ivault.getBullToken();\n    address bear = ivault.getBearToken();\n    uint256 eth =\n      shares\n      .mul(ivault.getLiqEquity(bull)\n      .add(ivault.getLiqEquity(bear))\n      .mul(1 ether).div(ivault.getTotalLiqShares()))\n      .div(1 ether);\n    uint256 bullEquity = ivault.getLiqEquity(bull) > ivault.getLiqEquity(bear) ?\n      ivault.getLiqEquity(bull).sub(ivault.getLiqEquity(bear)) : 0 ;\n    uint256 bearEquity = ivault.getLiqEquity(bear) > ivault.getLiqEquity(bull) ?\n      ivault.getLiqEquity(bear).sub(ivault.getLiqEquity(bull)) : 0 ;\n    if(bullEquity >= eth) bullEquity = eth;\n    else if(bearEquity >= eth) bearEquity = eth;\n    else if(bullEquity > bearEquity) {\n      bullEquity = bullEquity.add(eth.sub(bullEquity).div(2));\n      bearEquity = eth.sub(bullEquity);\n    }\n    else if(bearEquity > bullEquity) {\n      bearEquity = bearEquity.add(eth.sub(bearEquity).div(2));\n      bullEquity = eth.sub(bearEquity);\n    }\n    else {\n      bullEquity = eth.div(2);\n      bearEquity = eth.sub(bullEquity);\n    }\n    uint256 bullTokens = bullEquity.mul(1 ether).div(ivault.getPrice(bull));\n    uint256 bearTokens = bearEquity.mul(1 ether).div(ivault.getPrice(bear));\n    bullTokens = bullTokens > ivault.getLiqTokens(bull) ?\n      ivault.getLiqTokens(bull) : bullTokens;\n    bearTokens = bearTokens > ivault.getLiqTokens(bear) ?\n      ivault.getLiqTokens(bear) : bearTokens;\n    uint256 feesPaid = ivault.getLiqFees();\n    feesPaid = feesPaid.mul(shares);\n    feesPaid = feesPaid.mul(1 ether);\n    feesPaid = feesPaid.div(ivault.getTotalLiqShares()).div(1 ether);\n    feesPaid = shares <= ivault.getTotalLiqShares() ? feesPaid : ivault.getLiqFees();\n\n    return(\n      bullEquity,\n      bearEquity,\n      bullTokens,\n      bearTokens,\n      feesPaid\n    );\n  }\n\n  function setbalanceControlFactor(uint256 amount) public onlyOwner() {\n    balanceControlFactor = amount;\n  }\n\n\n}\n",
  "sourcePath": "/Users/trevor/SynLev/contracts/live/vaultHelper.sol",
  "compiler": {
    "name": "solc",
    "version": "0.6.12+commit.27d51765.Emscripten.clang"
  },
  "schemaVersion": "3.3.2",
  "updatedAt": "2020-12-31T02:01:19.286Z",
  "devdoc": {
    "kind": "dev",
    "methods": {},
    "version": 1
  },
  "userdoc": {
    "kind": "user",
    "methods": {},
    "version": 1
  }
}